{"contracts/contracts/ERC721/ERC721a-standard.sol":{"SohailStandardERC721A":{"abi":[{"inputs":[{"internalType":"string","name":"_name","type":"string"},{"internalType":"string","name":"_symbol","type":"string"},{"internalType":"string","name":"_uri","type":"string"},{"internalType":"uint256","name":"price","type":"uint256"},{"internalType":"uint256","name":"maxSupply","type":"uint256"}],"stateMutability":"payable","type":"constructor"},{"inputs":[],"name":"ApprovalCallerNotOwnerNorApproved","type":"error"},{"inputs":[],"name":"ApprovalQueryForNonexistentToken","type":"error"},{"inputs":[],"name":"ApprovalToCurrentOwner","type":"error"},{"inputs":[],"name":"ApproveToCaller","type":"error"},{"inputs":[],"name":"BalanceQueryForZeroAddress","type":"error"},{"inputs":[],"name":"MintToZeroAddress","type":"error"},{"inputs":[],"name":"MintZeroQuantity","type":"error"},{"inputs":[],"name":"OwnerQueryForNonexistentToken","type":"error"},{"inputs":[],"name":"TransferCallerNotOwnerNorApproved","type":"error"},{"inputs":[],"name":"TransferFromIncorrectOwner","type":"error"},{"inputs":[],"name":"TransferToNonERC721ReceiverImplementer","type":"error"},{"inputs":[],"name":"TransferToZeroAddress","type":"error"},{"inputs":[],"name":"URIQueryForNonexistentToken","type":"error"},{"anonymous":false,"inputs":[{"indexed":true,"internalType":"address","name":"owner","type":"address"},{"indexed":true,"internalType":"address","name":"approved","type":"address"},{"indexed":true,"internalType":"uint256","name":"tokenId","type":"uint256"}],"name":"Approval","type":"event"},{"anonymous":false,"inputs":[{"indexed":true,"internalType":"address","name":"owner","type":"address"},{"indexed":true,"internalType":"address","name":"operator","type":"address"},{"indexed":false,"internalType":"bool","name":"approved","type":"bool"}],"name":"ApprovalForAll","type":"event"},{"anonymous":false,"inputs":[{"indexed":true,"internalType":"address","name":"previousOwner","type":"address"},{"indexed":true,"internalType":"address","name":"newOwner","type":"address"}],"name":"OwnershipTransferred","type":"event"},{"anonymous":false,"inputs":[{"indexed":true,"internalType":"address","name":"from","type":"address"},{"indexed":true,"internalType":"address","name":"to","type":"address"},{"indexed":true,"internalType":"uint256","name":"tokenId","type":"uint256"}],"name":"Transfer","type":"event"},{"inputs":[],"name":"MAX_SUPPLY","outputs":[{"internalType":"uint256","name":"","type":"uint256"}],"stateMutability":"view","type":"function"},{"inputs":[{"internalType":"address","name":"to","type":"address"},{"internalType":"uint256","name":"tokenId","type":"uint256"}],"name":"approve","outputs":[],"stateMutability":"nonpayable","type":"function"},{"inputs":[{"internalType":"address","name":"owner","type":"address"}],"name":"balanceOf","outputs":[{"internalType":"uint256","name":"","type":"uint256"}],"stateMutability":"view","type":"function"},{"inputs":[],"name":"currentPrice","outputs":[{"internalType":"uint256","name":"","type":"uint256"}],"stateMutability":"view","type":"function"},{"inputs":[{"internalType":"uint256","name":"tokenId","type":"uint256"}],"name":"getApproved","outputs":[{"internalType":"address","name":"","type":"address"}],"stateMutability":"view","type":"function"},{"inputs":[{"internalType":"address","name":"owner","type":"address"},{"internalType":"address","name":"operator","type":"address"}],"name":"isApprovedForAll","outputs":[{"internalType":"bool","name":"","type":"bool"}],"stateMutability":"view","type":"function"},{"inputs":[{"internalType":"uint256","name":"amount","type":"uint256"}],"name":"mint","outputs":[],"stateMutability":"payable","type":"function"},{"inputs":[],"name":"name","outputs":[{"internalType":"string","name":"","type":"string"}],"stateMutability":"view","type":"function"},{"inputs":[],"name":"owner","outputs":[{"internalType":"address","name":"","type":"address"}],"stateMutability":"view","type":"function"},{"inputs":[{"internalType":"uint256","name":"tokenId","type":"uint256"}],"name":"ownerOf","outputs":[{"internalType":"address","name":"","type":"address"}],"stateMutability":"view","type":"function"},{"inputs":[],"name":"renounceOwnership","outputs":[],"stateMutability":"nonpayable","type":"function"},{"inputs":[{"internalType":"address","name":"to","type":"address"},{"internalType":"uint256","name":"amount","type":"uint256"}],"name":"reserve","outputs":[],"stateMutability":"nonpayable","type":"function"},{"inputs":[{"internalType":"address","name":"from","type":"address"},{"internalType":"address","name":"to","type":"address"},{"internalType":"uint256","name":"tokenId","type":"uint256"}],"name":"safeTransferFrom","outputs":[],"stateMutability":"nonpayable","type":"function"},{"inputs":[{"internalType":"address","name":"from","type":"address"},{"internalType":"address","name":"to","type":"address"},{"internalType":"uint256","name":"tokenId","type":"uint256"},{"internalType":"bytes","name":"_data","type":"bytes"}],"name":"safeTransferFrom","outputs":[],"stateMutability":"nonpayable","type":"function"},{"inputs":[],"name":"saleIsActive","outputs":[{"internalType":"bool","name":"","type":"bool"}],"stateMutability":"view","type":"function"},{"inputs":[{"internalType":"address","name":"operator","type":"address"},{"internalType":"bool","name":"approved","type":"bool"}],"name":"setApprovalForAll","outputs":[],"stateMutability":"nonpayable","type":"function"},{"inputs":[{"internalType":"string","name":"baseURI_","type":"string"}],"name":"setBaseURI","outputs":[],"stateMutability":"nonpayable","type":"function"},{"inputs":[{"internalType":"uint256","name":"price","type":"uint256"}],"name":"setCurrentPrice","outputs":[],"stateMutability":"nonpayable","type":"function"},{"inputs":[{"internalType":"bool","name":"isActive","type":"bool"}],"name":"setSaleIsActive","outputs":[],"stateMutability":"nonpayable","type":"function"},{"inputs":[{"internalType":"bytes4","name":"interfaceId","type":"bytes4"}],"name":"supportsInterface","outputs":[{"internalType":"bool","name":"","type":"bool"}],"stateMutability":"view","type":"function"},{"inputs":[],"name":"symbol","outputs":[{"internalType":"string","name":"","type":"string"}],"stateMutability":"view","type":"function"},{"inputs":[{"internalType":"uint256","name":"tokenId","type":"uint256"}],"name":"tokenURI","outputs":[{"internalType":"string","name":"","type":"string"}],"stateMutability":"view","type":"function"},{"inputs":[],"name":"totalSupply","outputs":[{"internalType":"uint256","name":"","type":"uint256"}],"stateMutability":"view","type":"function"},{"inputs":[{"internalType":"address","name":"from","type":"address"},{"internalType":"address","name":"to","type":"address"},{"internalType":"uint256","name":"tokenId","type":"uint256"}],"name":"transferFrom","outputs":[],"stateMutability":"nonpayable","type":"function"},{"inputs":[{"internalType":"address","name":"newOwner","type":"address"}],"name":"transferOwnership","outputs":[],"stateMutability":"nonpayable","type":"function"},{"inputs":[],"name":"walletLimit","outputs":[{"internalType":"uint256","name":"","type":"uint256"}],"stateMutability":"view","type":"function"},{"inputs":[],"name":"withdraw","outputs":[],"stateMutability":"nonpayable","type":"function"}],"evm":{"bytecode":{"linkReferences":{},"object":"60a06040526001600860146101000a81548160ff02191690831515021790555060405162003715380380620037158339818101604052810190620000449190620002ef565b848481600290805190602001906200005e929190620001b6565b50806003908051906020019062000077929190620001b6565b5062000088620000e360201b60201c565b6000819055505050620000b0620000a4620000e860201b60201c565b620000f060201b60201c565b8260099080519060200190620000c8929190620001b6565b5081600a819055508060808181525050505050505062000550565b600090565b600033905090565b6000600860009054906101000a900473ffffffffffffffffffffffffffffffffffffffff16905081600860006101000a81548173ffffffffffffffffffffffffffffffffffffffff021916908373ffffffffffffffffffffffffffffffffffffffff1602179055508173ffffffffffffffffffffffffffffffffffffffff168173ffffffffffffffffffffffffffffffffffffffff167f8be0079c531659141344cd1fd0a4f28419497f9722a3daafe3b4186f6b6457e060405160405180910390a35050565b828054620001c4906200045b565b90600052602060002090601f016020900481019282620001e8576000855562000234565b82601f106200020357805160ff191683800117855562000234565b8280016001018555821562000234579182015b828111156200023357825182559160200191906001019062000216565b5b50905062000243919062000247565b5090565b5b808211156200026257600081600090555060010162000248565b5090565b60006200027d6200027784620003e5565b620003bc565b9050828152602081018484840111156200029657600080fd5b620002a384828562000425565b509392505050565b600082601f830112620002bd57600080fd5b8151620002cf84826020860162000266565b91505092915050565b600081519050620002e98162000536565b92915050565b600080600080600060a086880312156200030857600080fd5b600086015167ffffffffffffffff8111156200032357600080fd5b6200033188828901620002ab565b955050602086015167ffffffffffffffff8111156200034f57600080fd5b6200035d88828901620002ab565b945050604086015167ffffffffffffffff8111156200037b57600080fd5b6200038988828901620002ab565b93505060606200039c88828901620002d8565b9250506080620003af88828901620002d8565b9150509295509295909350565b6000620003c8620003db565b9050620003d6828262000491565b919050565b6000604051905090565b600067ffffffffffffffff821115620004035762000402620004f6565b5b6200040e8262000525565b9050602081019050919050565b6000819050919050565b60005b838110156200044557808201518184015260208101905062000428565b8381111562000455576000848401525b50505050565b600060028204905060018216806200047457607f821691505b602082108114156200048b576200048a620004c7565b5b50919050565b6200049c8262000525565b810181811067ffffffffffffffff82111715620004be57620004bd620004f6565b5b80604052505050565b7f4e487b7100000000000000000000000000000000000000000000000000000000600052602260045260246000fd5b7f4e487b7100000000000000000000000000000000000000000000000000000000600052604160045260246000fd5b6000601f19601f8301169050919050565b62000541816200041b565b81146200054d57600080fd5b50565b60805161319b6200057a600039600081816109a601528181610c800152610ff2015261319b6000f3fe60806040526004361061019c5760003560e01c80636352211e116100ec578063a22cb4651161008a578063cc47a40b11610064578063cc47a40b14610591578063e985e9c5146105ba578063eb8d2444146105f7578063f2fde38b146106225761019c565b8063a22cb46514610502578063b88d4fde1461052b578063c87b56dd146105545761019c565b80638da5cb5b116100c65780638da5cb5b1461046557806395d89b41146104905780639d1b464a146104bb578063a0712d68146104e65761019c565b80636352211e146103d457806370a0823114610411578063715018a61461044e5761019c565b806318b20071116101595780633c8463a1116101335780633c8463a1146103405780633ccfd60b1461036b57806342842e0e1461038257806355f804b3146103ab5761019c565b806318b20071146102c357806323b872dd146102ec57806332cb6b0c146103155761019c565b806301ffc9a7146101a157806302c88989146101de57806306fdde0314610207578063081812fc14610232578063095ea7b31461026f57806318160ddd14610298575b600080fd5b3480156101ad57600080fd5b506101c860048036038101906101c39190612901565b61064b565b6040516101d59190612bc7565b60405180910390f35b3480156101ea57600080fd5b50610205600480360381019061020091906128d8565b61072d565b005b34801561021357600080fd5b5061021c610752565b6040516102299190612be2565b60405180910390f35b34801561023e57600080fd5b5061025960048036038101906102549190612994565b6107e4565b6040516102669190612b60565b60405180910390f35b34801561027b57600080fd5b506102966004803603810190610291919061289c565b610860565b005b3480156102a457600080fd5b506102ad61096b565b6040516102ba9190612ca4565b60405180910390f35b3480156102cf57600080fd5b506102ea60048036038101906102e59190612994565b610982565b005b3480156102f857600080fd5b50610313600480360381019061030e9190612796565b610994565b005b34801561032157600080fd5b5061032a6109a4565b6040516103379190612ca4565b60405180910390f35b34801561034c57600080fd5b506103556109c8565b6040516103629190612ca4565b60405180910390f35b34801561037757600080fd5b506103806109ce565b005b34801561038e57600080fd5b506103a960048036038101906103a49190612796565b610a25565b005b3480156103b757600080fd5b506103d260048036038101906103cd9190612953565b610a45565b005b3480156103e057600080fd5b506103fb60048036038101906103f69190612994565b610a67565b6040516104089190612b60565b60405180910390f35b34801561041d57600080fd5b5061043860048036038101906104339190612731565b610a7d565b6040516104459190612ca4565b60405180910390f35b34801561045a57600080fd5b50610463610b4d565b005b34801561047157600080fd5b5061047a610b61565b6040516104879190612b60565b60405180910390f35b34801561049c57600080fd5b506104a5610b8b565b6040516104b29190612be2565b60405180910390f35b3480156104c757600080fd5b506104d0610c1d565b6040516104dd9190612ca4565b60405180910390f35b61050060048036038101906104fb9190612994565b610c23565b005b34801561050e57600080fd5b5061052960048036038101906105249190612860565b610d49565b005b34801561053757600080fd5b50610552600480360381019061054d91906127e5565b610ec1565b005b34801561056057600080fd5b5061057b60048036038101906105769190612994565b610f3d565b6040516105889190612be2565b60405180910390f35b34801561059d57600080fd5b506105b860048036038101906105b3919061289c565b610fdc565b005b3480156105c657600080fd5b506105e160048036038101906105dc919061275a565b61106d565b6040516105ee9190612bc7565b60405180910390f35b34801561060357600080fd5b5061060c611101565b6040516106199190612bc7565b60405180910390f35b34801561062e57600080fd5b5061064960048036038101906106449190612731565b611114565b005b60007f80ac58cd000000000000000000000000000000000000000000000000000000007bffffffffffffffffffffffffffffffffffffffffffffffffffffffff1916827bffffffffffffffffffffffffffffffffffffffffffffffffffffffff1916148061071657507f5b5e139f000000000000000000000000000000000000000000000000000000007bffffffffffffffffffffffffffffffffffffffffffffffffffffffff1916827bffffffffffffffffffffffffffffffffffffffffffffffffffffffff1916145b80610726575061072582611198565b5b9050919050565b610735611202565b80600860146101000a81548160ff02191690831515021790555050565b60606002805461076190612eef565b80601f016020809104026020016040519081016040528092919081815260200182805461078d90612eef565b80156107da5780601f106107af576101008083540402835291602001916107da565b820191906000526020600020905b8154815290600101906020018083116107bd57829003601f168201915b5050505050905090565b60006107ef82611280565b610825576040517fcf4700e400000000000000000000000000000000000000000000000000000000815260040160405180910390fd5b6006600083815260200190815260200160002060009054906101000a900473ffffffffffffffffffffffffffffffffffffffff169050919050565b600061086b82610a67565b90508073ffffffffffffffffffffffffffffffffffffffff168373ffffffffffffffffffffffffffffffffffffffff1614156108d3576040517f943f7b8c00000000000000000000000000000000000000000000000000000000815260040160405180910390fd5b8073ffffffffffffffffffffffffffffffffffffffff166108f26112ce565b73ffffffffffffffffffffffffffffffffffffffff161415801561092457506109228161091d6112ce565b61106d565b155b1561095b576040517fcfb3b94200000000000000000000000000000000000000000000000000000000815260040160405180910390fd5b6109668383836112d6565b505050565b6000610975611388565b6001546000540303905090565b61098a611202565b80600a8190555050565b61099f83838361138d565b505050565b7f000000000000000000000000000000000000000000000000000000000000000081565b600b5481565b6109d6611202565b60004790503373ffffffffffffffffffffffffffffffffffffffff166108fc829081150290604051600060405180830381858888f19350505050158015610a21573d6000803e3d6000fd5b5050565b610a4083838360405180602001604052806000815250610ec1565b505050565b610a4d611202565b8060099080519060200190610a63929190612512565b5050565b6000610a7282611843565b600001519050919050565b60008073ffffffffffffffffffffffffffffffffffffffff168273ffffffffffffffffffffffffffffffffffffffff161415610ae5576040517f8f4eb60400000000000000000000000000000000000000000000000000000000815260040160405180910390fd5b600560008373ffffffffffffffffffffffffffffffffffffffff1673ffffffffffffffffffffffffffffffffffffffff16815260200190815260200160002060000160009054906101000a900467ffffffffffffffff1667ffffffffffffffff169050919050565b610b55611202565b610b5f6000611ad2565b565b6000600860009054906101000a900473ffffffffffffffffffffffffffffffffffffffff16905090565b606060038054610b9a90612eef565b80601f0160208091040260200160405190810160405280929190818152602001828054610bc690612eef565b8015610c135780601f10610be857610100808354040283529160200191610c13565b820191906000526020600020905b815481529060010190602001808311610bf657829003601f168201915b5050505050905090565b600a5481565b6000610c2d61096b565b9050600860149054906101000a900460ff16610c7e576040517f08c379a0000000000000000000000000000000000000000000000000000000008152600401610c7590612c84565b60405180910390fd5b7f00000000000000000000000000000000000000000000000000000000000000008282610cab9190612d89565b1115610cec576040517f08c379a0000000000000000000000000000000000000000000000000000000008152600401610ce390612c24565b60405180910390fd5b3482600a54610cfb9190612ddf565b14610d3b576040517f08c379a0000000000000000000000000000000000000000000000000000000008152600401610d3290612c44565b60405180910390fd5b610d453383611b98565b5050565b610d516112ce565b73ffffffffffffffffffffffffffffffffffffffff168273ffffffffffffffffffffffffffffffffffffffff161415610db6576040517fb06307db00000000000000000000000000000000000000000000000000000000815260040160405180910390fd5b8060076000610dc36112ce565b73ffffffffffffffffffffffffffffffffffffffff1673ffffffffffffffffffffffffffffffffffffffff16815260200190815260200160002060008473ffffffffffffffffffffffffffffffffffffffff1673ffffffffffffffffffffffffffffffffffffffff16815260200190815260200160002060006101000a81548160ff0219169083151502179055508173ffffffffffffffffffffffffffffffffffffffff16610e706112ce565b73ffffffffffffffffffffffffffffffffffffffff167f17307eab39ab6107e8899845ad3d59bd9653f200f220920489ca2b5937696c3183604051610eb59190612bc7565b60405180910390a35050565b610ecc84848461138d565b610eeb8373ffffffffffffffffffffffffffffffffffffffff16611bb6565b8015610f005750610efe84848484611bd9565b155b15610f37576040517fd1a57ed600000000000000000000000000000000000000000000000000000000815260040160405180910390fd5b50505050565b6060610f4882611280565b610f7e576040517fa14c4b5000000000000000000000000000000000000000000000000000000000815260040160405180910390fd5b6000610f88611d39565b9050600081511415610fa95760405180602001604052806000815250610fd4565b80610fb384611dcb565b604051602001610fc4929190612b3c565b6040516020818303038152906040525b915050919050565b610fe4611202565b6000610fee61096b565b90507f0000000000000000000000000000000000000000000000000000000000000000828261101d9190612d89565b111561105e576040517f08c379a000000000000000000000000000000000000000000000000000000000815260040161105590612c24565b60405180910390fd5b6110688383611b98565b505050565b6000600760008473ffffffffffffffffffffffffffffffffffffffff1673ffffffffffffffffffffffffffffffffffffffff16815260200190815260200160002060008373ffffffffffffffffffffffffffffffffffffffff1673ffffffffffffffffffffffffffffffffffffffff16815260200190815260200160002060009054906101000a900460ff16905092915050565b600860149054906101000a900460ff1681565b61111c611202565b600073ffffffffffffffffffffffffffffffffffffffff168173ffffffffffffffffffffffffffffffffffffffff16141561118c576040517f08c379a000000000000000000000000000000000000000000000000000000000815260040161118390612c04565b60405180910390fd5b61119581611ad2565b50565b60007f01ffc9a7000000000000000000000000000000000000000000000000000000007bffffffffffffffffffffffffffffffffffffffffffffffffffffffff1916827bffffffffffffffffffffffffffffffffffffffffffffffffffffffff1916149050919050565b61120a6112ce565b73ffffffffffffffffffffffffffffffffffffffff16611228610b61565b73ffffffffffffffffffffffffffffffffffffffff161461127e576040517f08c379a000000000000000000000000000000000000000000000000000000000815260040161127590612c64565b60405180910390fd5b565b60008161128b611388565b1115801561129a575060005482105b80156112c7575060046000838152602001908152602001600020600001601c9054906101000a900460ff16155b9050919050565b600033905090565b826006600084815260200190815260200160002060006101000a81548173ffffffffffffffffffffffffffffffffffffffff021916908373ffffffffffffffffffffffffffffffffffffffff160217905550818373ffffffffffffffffffffffffffffffffffffffff168273ffffffffffffffffffffffffffffffffffffffff167f8c5be1e5ebec7d5bd14f71427d1e84f3dd0314c0f7b2291e5b200ac8c7c3b92560405160405180910390a4505050565b600090565b600061139882611843565b90508373ffffffffffffffffffffffffffffffffffffffff16816000015173ffffffffffffffffffffffffffffffffffffffff1614611403576040517fa114810000000000000000000000000000000000000000000000000000000000815260040160405180910390fd5b60008473ffffffffffffffffffffffffffffffffffffffff166114246112ce565b73ffffffffffffffffffffffffffffffffffffffff16148061145357506114528561144d6112ce565b61106d565b5b8061149857506114616112ce565b73ffffffffffffffffffffffffffffffffffffffff16611480846107e4565b73ffffffffffffffffffffffffffffffffffffffff16145b9050806114d1576040517f59c896be00000000000000000000000000000000000000000000000000000000815260040160405180910390fd5b600073ffffffffffffffffffffffffffffffffffffffff168473ffffffffffffffffffffffffffffffffffffffff161415611538576040517fea553b3400000000000000000000000000000000000000000000000000000000815260040160405180910390fd5b6115458585856001611eef565b611551600084876112d6565b6001600560008773ffffffffffffffffffffffffffffffffffffffff1673ffffffffffffffffffffffffffffffffffffffff16815260200190815260200160002060000160008282829054906101000a900467ffffffffffffffff160392506101000a81548167ffffffffffffffff021916908367ffffffffffffffff1602179055506001600560008673ffffffffffffffffffffffffffffffffffffffff1673ffffffffffffffffffffffffffffffffffffffff16815260200190815260200160002060000160008282829054906101000a900467ffffffffffffffff160192506101000a81548167ffffffffffffffff021916908367ffffffffffffffff1602179055506000600460008581526020019081526020016000209050848160000160006101000a81548173ffffffffffffffffffffffffffffffffffffffff021916908373ffffffffffffffffffffffffffffffffffffffff160217905550428160000160146101000a81548167ffffffffffffffff021916908367ffffffffffffffff16021790555060006001850190506000600460008381526020019081526020016000209050600073ffffffffffffffffffffffffffffffffffffffff168160000160009054906101000a900473ffffffffffffffffffffffffffffffffffffffff1673ffffffffffffffffffffffffffffffffffffffff1614156117d15760005482146117d057878160000160006101000a81548173ffffffffffffffffffffffffffffffffffffffff021916908373ffffffffffffffffffffffffffffffffffffffff16021790555084602001518160000160146101000a81548167ffffffffffffffff021916908367ffffffffffffffff1602179055505b5b505050828473ffffffffffffffffffffffffffffffffffffffff168673ffffffffffffffffffffffffffffffffffffffff167fddf252ad1be2c89b69c2b068fc378daa952ba7f163c4a11628f55a4df523b3ef60405160405180910390a461183c8585856001611ef5565b5050505050565b61184b612598565b600082905080611859611388565b11158015611868575060005481105b15611a9b576000600460008381526020019081526020016000206040518060600160405290816000820160009054906101000a900473ffffffffffffffffffffffffffffffffffffffff1673ffffffffffffffffffffffffffffffffffffffff1673ffffffffffffffffffffffffffffffffffffffff1681526020016000820160149054906101000a900467ffffffffffffffff1667ffffffffffffffff1667ffffffffffffffff16815260200160008201601c9054906101000a900460ff16151515158152505090508060400151611a9957600073ffffffffffffffffffffffffffffffffffffffff16816000015173ffffffffffffffffffffffffffffffffffffffff161461197d578092505050611acd565b5b600115611a9857818060019003925050600460008381526020019081526020016000206040518060600160405290816000820160009054906101000a900473ffffffffffffffffffffffffffffffffffffffff1673ffffffffffffffffffffffffffffffffffffffff1673ffffffffffffffffffffffffffffffffffffffff1681526020016000820160149054906101000a900467ffffffffffffffff1667ffffffffffffffff1667ffffffffffffffff16815260200160008201601c9054906101000a900460ff1615151515815250509050600073ffffffffffffffffffffffffffffffffffffffff16816000015173ffffffffffffffffffffffffffffffffffffffff1614611a93578092505050611acd565b61197e565b5b505b6040517fdf2d9b4200000000000000000000000000000000000000000000000000000000815260040160405180910390fd5b919050565b6000600860009054906101000a900473ffffffffffffffffffffffffffffffffffffffff16905081600860006101000a81548173ffffffffffffffffffffffffffffffffffffffff021916908373ffffffffffffffffffffffffffffffffffffffff1602179055508173ffffffffffffffffffffffffffffffffffffffff168173ffffffffffffffffffffffffffffffffffffffff167f8be0079c531659141344cd1fd0a4f28419497f9722a3daafe3b4186f6b6457e060405160405180910390a35050565b611bb2828260405180602001604052806000815250611efb565b5050565b6000808273ffffffffffffffffffffffffffffffffffffffff163b119050919050565b60008373ffffffffffffffffffffffffffffffffffffffff1663150b7a02611bff6112ce565b8786866040518563ffffffff1660e01b8152600401611c219493929190612b7b565b602060405180830381600087803b158015611c3b57600080fd5b505af1925050508015611c6c57506040513d601f19601f82011682018060405250810190611c69919061292a565b60015b611ce6573d8060008114611c9c576040519150601f19603f3d011682016040523d82523d6000602084013e611ca1565b606091505b50600081511415611cde576040517fd1a57ed600000000000000000000000000000000000000000000000000000000815260040160405180910390fd5b805181602001fd5b63150b7a0260e01b7bffffffffffffffffffffffffffffffffffffffffffffffffffffffff1916817bffffffffffffffffffffffffffffffffffffffffffffffffffffffff191614915050949350505050565b606060098054611d4890612eef565b80601f0160208091040260200160405190810160405280929190818152602001828054611d7490612eef565b8015611dc15780601f10611d9657610100808354040283529160200191611dc1565b820191906000526020600020905b815481529060010190602001808311611da457829003601f168201915b5050505050905090565b606060006001611dda84611f0d565b01905060008167ffffffffffffffff811115611e1f577f4e487b7100000000000000000000000000000000000000000000000000000000600052604160045260246000fd5b6040519080825280601f01601f191660200182016040528015611e515781602001600182028036833780820191505090505b509050600082602001820190505b600115611ee4578080600190039150507f3031323334353637383961626364656600000000000000000000000000000000600a86061a8153600a8581611ece577f4e487b7100000000000000000000000000000000000000000000000000000000600052601260045260246000fd5b0494506000851415611edf57611ee4565b611e5f565b819350505050919050565b50505050565b50505050565b611f088383836001612144565b505050565b600080600090507a184f03e93ff9f4daa797ed6e38ed64bf6a1f0100000000000000008310611f91577a184f03e93ff9f4daa797ed6e38ed64bf6a1f0100000000000000008381611f87577f4e487b7100000000000000000000000000000000000000000000000000000000600052601260045260246000fd5b0492506040810190505b6d04ee2d6d415b85acef81000000008310611ff4576d04ee2d6d415b85acef81000000008381611fea577f4e487b7100000000000000000000000000000000000000000000000000000000600052601260045260246000fd5b0492506020810190505b662386f26fc10000831061204957662386f26fc10000838161203f577f4e487b7100000000000000000000000000000000000000000000000000000000600052601260045260246000fd5b0492506010810190505b6305f5e1008310612098576305f5e100838161208e577f4e487b7100000000000000000000000000000000000000000000000000000000600052601260045260246000fd5b0492506008810190505b61271083106120e35761271083816120d9577f4e487b7100000000000000000000000000000000000000000000000000000000600052601260045260246000fd5b0492506004810190505b6064831061212c5760648381612122577f4e487b7100000000000000000000000000000000000000000000000000000000600052601260045260246000fd5b0492506002810190505b600a831061213b576001810190505b80915050919050565b600080549050600073ffffffffffffffffffffffffffffffffffffffff168573ffffffffffffffffffffffffffffffffffffffff1614156121b1576040517f2e07630000000000000000000000000000000000000000000000000000000000815260040160405180910390fd5b60008414156121ec576040517fb562e8dd00000000000000000000000000000000000000000000000000000000815260040160405180910390fd5b6121f96000868387611eef565b83600560008773ffffffffffffffffffffffffffffffffffffffff1673ffffffffffffffffffffffffffffffffffffffff16815260200190815260200160002060000160008282829054906101000a900467ffffffffffffffff160192506101000a81548167ffffffffffffffff021916908367ffffffffffffffff16021790555083600560008773ffffffffffffffffffffffffffffffffffffffff1673ffffffffffffffffffffffffffffffffffffffff16815260200190815260200160002060000160088282829054906101000a900467ffffffffffffffff160192506101000a81548167ffffffffffffffff021916908367ffffffffffffffff160217905550846004600083815260200190815260200160002060000160006101000a81548173ffffffffffffffffffffffffffffffffffffffff021916908373ffffffffffffffffffffffffffffffffffffffff160217905550426004600083815260200190815260200160002060000160146101000a81548167ffffffffffffffff021916908367ffffffffffffffff1602179055506000819050600085820190508380156123c357506123c28773ffffffffffffffffffffffffffffffffffffffff16611bb6565b5b15612489575b818773ffffffffffffffffffffffffffffffffffffffff16600073ffffffffffffffffffffffffffffffffffffffff167fddf252ad1be2c89b69c2b068fc378daa952ba7f163c4a11628f55a4df523b3ef60405160405180910390a46124386000888480600101955088611bd9565b61246e576040517fd1a57ed600000000000000000000000000000000000000000000000000000000815260040160405180910390fd5b808214156123c957826000541461248457600080fd5b6124f5565b5b818060010192508773ffffffffffffffffffffffffffffffffffffffff16600073ffffffffffffffffffffffffffffffffffffffff167fddf252ad1be2c89b69c2b068fc378daa952ba7f163c4a11628f55a4df523b3ef60405160405180910390a48082141561248a575b81600081905550505061250b6000868387611ef5565b5050505050565b82805461251e90612eef565b90600052602060002090601f0160209004810192826125405760008555612587565b82601f1061255957805160ff1916838001178555612587565b82800160010185558215612587579182015b8281111561258657825182559160200191906001019061256b565b5b50905061259491906125db565b5090565b6040518060600160405280600073ffffffffffffffffffffffffffffffffffffffff168152602001600067ffffffffffffffff1681526020016000151581525090565b5b808211156125f45760008160009055506001016125dc565b5090565b600061260b61260684612ce4565b612cbf565b90508281526020810184848401111561262357600080fd5b61262e848285612ead565b509392505050565b600061264961264484612d15565b612cbf565b90508281526020810184848401111561266157600080fd5b61266c848285612ead565b509392505050565b60008135905061268381613109565b92915050565b60008135905061269881613120565b92915050565b6000813590506126ad81613137565b92915050565b6000815190506126c281613137565b92915050565b600082601f8301126126d957600080fd5b81356126e98482602086016125f8565b91505092915050565b600082601f83011261270357600080fd5b8135612713848260208601612636565b91505092915050565b60008135905061272b8161314e565b92915050565b60006020828403121561274357600080fd5b600061275184828501612674565b91505092915050565b6000806040838503121561276d57600080fd5b600061277b85828601612674565b925050602061278c85828601612674565b9150509250929050565b6000806000606084860312156127ab57600080fd5b60006127b986828701612674565b93505060206127ca86828701612674565b92505060406127db8682870161271c565b9150509250925092565b600080600080608085870312156127fb57600080fd5b600061280987828801612674565b945050602061281a87828801612674565b935050604061282b8782880161271c565b925050606085013567ffffffffffffffff81111561284857600080fd5b612854878288016126c8565b91505092959194509250565b6000806040838503121561287357600080fd5b600061288185828601612674565b925050602061289285828601612689565b9150509250929050565b600080604083850312156128af57600080fd5b60006128bd85828601612674565b92505060206128ce8582860161271c565b9150509250929050565b6000602082840312156128ea57600080fd5b60006128f884828501612689565b91505092915050565b60006020828403121561291357600080fd5b60006129218482850161269e565b91505092915050565b60006020828403121561293c57600080fd5b600061294a848285016126b3565b91505092915050565b60006020828403121561296557600080fd5b600082013567ffffffffffffffff81111561297f57600080fd5b61298b848285016126f2565b91505092915050565b6000602082840312156129a657600080fd5b60006129b48482850161271c565b91505092915050565b6129c681612e39565b82525050565b6129d581612e4b565b82525050565b60006129e682612d46565b6129f08185612d5c565b9350612a00818560208601612ebc565b612a0981612fdf565b840191505092915050565b6000612a1f82612d51565b612a298185612d6d565b9350612a39818560208601612ebc565b612a4281612fdf565b840191505092915050565b6000612a5882612d51565b612a628185612d7e565b9350612a72818560208601612ebc565b80840191505092915050565b6000612a8b602683612d6d565b9150612a9682612ff0565b604082019050919050565b6000612aae602083612d6d565b9150612ab98261303f565b602082019050919050565b6000612ad1601983612d6d565b9150612adc82613068565b602082019050919050565b6000612af4602083612d6d565b9150612aff82613091565b602082019050919050565b6000612b17602283612d6d565b9150612b22826130ba565b604082019050919050565b612b3681612ea3565b82525050565b6000612b488285612a4d565b9150612b548284612a4d565b91508190509392505050565b6000602082019050612b7560008301846129bd565b92915050565b6000608082019050612b9060008301876129bd565b612b9d60208301866129bd565b612baa6040830185612b2d565b8181036060830152612bbc81846129db565b905095945050505050565b6000602082019050612bdc60008301846129cc565b92915050565b60006020820190508181036000830152612bfc8184612a14565b905092915050565b60006020820190508181036000830152612c1d81612a7e565b9050919050565b60006020820190508181036000830152612c3d81612aa1565b9050919050565b60006020820190508181036000830152612c5d81612ac4565b9050919050565b60006020820190508181036000830152612c7d81612ae7565b9050919050565b60006020820190508181036000830152612c9d81612b0a565b9050919050565b6000602082019050612cb96000830184612b2d565b92915050565b6000612cc9612cda565b9050612cd58282612f21565b919050565b6000604051905090565b600067ffffffffffffffff821115612cff57612cfe612fb0565b5b612d0882612fdf565b9050602081019050919050565b600067ffffffffffffffff821115612d3057612d2f612fb0565b5b612d3982612fdf565b9050602081019050919050565b600081519050919050565b600081519050919050565b600082825260208201905092915050565b600082825260208201905092915050565b600081905092915050565b6000612d9482612ea3565b9150612d9f83612ea3565b9250827fffffffffffffffffffffffffffffffffffffffffffffffffffffffffffffffff03821115612dd457612dd3612f52565b5b828201905092915050565b6000612dea82612ea3565b9150612df583612ea3565b9250817fffffffffffffffffffffffffffffffffffffffffffffffffffffffffffffffff0483118215151615612e2e57612e2d612f52565b5b828202905092915050565b6000612e4482612e83565b9050919050565b60008115159050919050565b60007fffffffff0000000000000000000000000000000000000000000000000000000082169050919050565b600073ffffffffffffffffffffffffffffffffffffffff82169050919050565b6000819050919050565b82818337600083830152505050565b60005b83811015612eda578082015181840152602081019050612ebf565b83811115612ee9576000848401525b50505050565b60006002820490506001821680612f0757607f821691505b60208210811415612f1b57612f1a612f81565b5b50919050565b612f2a82612fdf565b810181811067ffffffffffffffff82111715612f4957612f48612fb0565b5b80604052505050565b7f4e487b7100000000000000000000000000000000000000000000000000000000600052601160045260246000fd5b7f4e487b7100000000000000000000000000000000000000000000000000000000600052602260045260246000fd5b7f4e487b7100000000000000000000000000000000000000000000000000000000600052604160045260246000fd5b6000601f19601f8301169050919050565b7f4f776e61626c653a206e6577206f776e657220697320746865207a65726f206160008201527f6464726573730000000000000000000000000000000000000000000000000000602082015250565b7f507572636861736520776f756c6420657863656564206d617820746f6b656e73600082015250565b7f56616c75652073656e74206973206e6f7420636f727265637400000000000000600082015250565b7f4f776e61626c653a2063616c6c6572206973206e6f7420746865206f776e6572600082015250565b7f53616c65206d7573742062652061637469766520746f206d696e7420746f6b6560008201527f6e73000000000000000000000000000000000000000000000000000000000000602082015250565b61311281612e39565b811461311d57600080fd5b50565b61312981612e4b565b811461313457600080fd5b50565b61314081612e57565b811461314b57600080fd5b50565b61315781612ea3565b811461316257600080fd5b5056fea2646970667358221220c52bab98a058d745be08bea951ca46c136bc9060943675fcabf42413cce0df9f64736f6c63430008040033","opcodes":"PUSH1 0xA0 PUSH1 0x40 MSTORE PUSH1 0x1 PUSH1 0x8 PUSH1 0x14 PUSH2 0x100 EXP DUP2 SLOAD DUP2 PUSH1 0xFF MUL NOT AND SWAP1 DUP4 ISZERO ISZERO MUL OR SWAP1 SSTORE POP PUSH1 0x40 MLOAD PUSH3 0x3715 CODESIZE SUB DUP1 PUSH3 0x3715 DUP4 CODECOPY DUP2 DUP2 ADD PUSH1 0x40 MSTORE DUP2 ADD SWAP1 PUSH3 0x44 SWAP2 SWAP1 PUSH3 0x2EF JUMP JUMPDEST DUP5 DUP5 DUP2 PUSH1 0x2 SWAP1 DUP1 MLOAD SWAP1 PUSH1 0x20 ADD SWAP1 PUSH3 0x5E SWAP3 SWAP2 SWAP1 PUSH3 0x1B6 JUMP JUMPDEST POP DUP1 PUSH1 0x3 SWAP1 DUP1 MLOAD SWAP1 PUSH1 0x20 ADD SWAP1 PUSH3 0x77 SWAP3 SWAP2 SWAP1 PUSH3 0x1B6 JUMP JUMPDEST POP PUSH3 0x88 PUSH3 0xE3 PUSH1 0x20 SHL PUSH1 0x20 SHR JUMP JUMPDEST PUSH1 0x0 DUP2 SWAP1 SSTORE POP POP POP PUSH3 0xB0 PUSH3 0xA4 PUSH3 0xE8 PUSH1 0x20 SHL PUSH1 0x20 SHR JUMP JUMPDEST PUSH3 0xF0 PUSH1 0x20 SHL PUSH1 0x20 SHR JUMP JUMPDEST DUP3 PUSH1 0x9 SWAP1 DUP1 MLOAD SWAP1 PUSH1 0x20 ADD SWAP1 PUSH3 0xC8 SWAP3 SWAP2 SWAP1 PUSH3 0x1B6 JUMP JUMPDEST POP DUP2 PUSH1 0xA DUP2 SWAP1 SSTORE POP DUP1 PUSH1 0x80 DUP2 DUP2 MSTORE POP POP POP POP POP POP POP PUSH3 0x550 JUMP JUMPDEST PUSH1 0x0 SWAP1 JUMP JUMPDEST PUSH1 0x0 CALLER SWAP1 POP SWAP1 JUMP JUMPDEST PUSH1 0x0 PUSH1 0x8 PUSH1 0x0 SWAP1 SLOAD SWAP1 PUSH2 0x100 EXP SWAP1 DIV PUSH20 0xFFFFFFFFFFFFFFFFFFFFFFFFFFFFFFFFFFFFFFFF AND SWAP1 POP DUP2 PUSH1 0x8 PUSH1 0x0 PUSH2 0x100 EXP DUP2 SLOAD DUP2 PUSH20 0xFFFFFFFFFFFFFFFFFFFFFFFFFFFFFFFFFFFFFFFF MUL NOT AND SWAP1 DUP4 PUSH20 0xFFFFFFFFFFFFFFFFFFFFFFFFFFFFFFFFFFFFFFFF AND MUL OR SWAP1 SSTORE POP DUP2 PUSH20 0xFFFFFFFFFFFFFFFFFFFFFFFFFFFFFFFFFFFFFFFF AND DUP2 PUSH20 0xFFFFFFFFFFFFFFFFFFFFFFFFFFFFFFFFFFFFFFFF AND PUSH32 0x8BE0079C531659141344CD1FD0A4F28419497F9722A3DAAFE3B4186F6B6457E0 PUSH1 0x40 MLOAD PUSH1 0x40 MLOAD DUP1 SWAP2 SUB SWAP1 LOG3 POP POP JUMP JUMPDEST DUP3 DUP1 SLOAD PUSH3 0x1C4 SWAP1 PUSH3 0x45B JUMP JUMPDEST SWAP1 PUSH1 0x0 MSTORE PUSH1 0x20 PUSH1 0x0 KECCAK256 SWAP1 PUSH1 0x1F ADD PUSH1 0x20 SWAP1 DIV DUP2 ADD SWAP3 DUP3 PUSH3 0x1E8 JUMPI PUSH1 0x0 DUP6 SSTORE PUSH3 0x234 JUMP JUMPDEST DUP3 PUSH1 0x1F LT PUSH3 0x203 JUMPI DUP1 MLOAD PUSH1 0xFF NOT AND DUP4 DUP1 ADD OR DUP6 SSTORE PUSH3 0x234 JUMP JUMPDEST DUP3 DUP1 ADD PUSH1 0x1 ADD DUP6 SSTORE DUP3 ISZERO PUSH3 0x234 JUMPI SWAP2 DUP3 ADD JUMPDEST DUP3 DUP2 GT ISZERO PUSH3 0x233 JUMPI DUP3 MLOAD DUP3 SSTORE SWAP2 PUSH1 0x20 ADD SWAP2 SWAP1 PUSH1 0x1 ADD SWAP1 PUSH3 0x216 JUMP JUMPDEST JUMPDEST POP SWAP1 POP PUSH3 0x243 SWAP2 SWAP1 PUSH3 0x247 JUMP JUMPDEST POP SWAP1 JUMP JUMPDEST JUMPDEST DUP1 DUP3 GT ISZERO PUSH3 0x262 JUMPI PUSH1 0x0 DUP2 PUSH1 0x0 SWAP1 SSTORE POP PUSH1 0x1 ADD PUSH3 0x248 JUMP JUMPDEST POP SWAP1 JUMP JUMPDEST PUSH1 0x0 PUSH3 0x27D PUSH3 0x277 DUP5 PUSH3 0x3E5 JUMP JUMPDEST PUSH3 0x3BC JUMP JUMPDEST SWAP1 POP DUP3 DUP2 MSTORE PUSH1 0x20 DUP2 ADD DUP5 DUP5 DUP5 ADD GT ISZERO PUSH3 0x296 JUMPI PUSH1 0x0 DUP1 REVERT JUMPDEST PUSH3 0x2A3 DUP5 DUP3 DUP6 PUSH3 0x425 JUMP JUMPDEST POP SWAP4 SWAP3 POP POP POP JUMP JUMPDEST PUSH1 0x0 DUP3 PUSH1 0x1F DUP4 ADD SLT PUSH3 0x2BD JUMPI PUSH1 0x0 DUP1 REVERT JUMPDEST DUP2 MLOAD PUSH3 0x2CF DUP5 DUP3 PUSH1 0x20 DUP7 ADD PUSH3 0x266 JUMP JUMPDEST SWAP2 POP POP SWAP3 SWAP2 POP POP JUMP JUMPDEST PUSH1 0x0 DUP2 MLOAD SWAP1 POP PUSH3 0x2E9 DUP2 PUSH3 0x536 JUMP JUMPDEST SWAP3 SWAP2 POP POP JUMP JUMPDEST PUSH1 0x0 DUP1 PUSH1 0x0 DUP1 PUSH1 0x0 PUSH1 0xA0 DUP7 DUP9 SUB SLT ISZERO PUSH3 0x308 JUMPI PUSH1 0x0 DUP1 REVERT JUMPDEST PUSH1 0x0 DUP7 ADD MLOAD PUSH8 0xFFFFFFFFFFFFFFFF DUP2 GT ISZERO PUSH3 0x323 JUMPI PUSH1 0x0 DUP1 REVERT JUMPDEST PUSH3 0x331 DUP9 DUP3 DUP10 ADD PUSH3 0x2AB JUMP JUMPDEST SWAP6 POP POP PUSH1 0x20 DUP7 ADD MLOAD PUSH8 0xFFFFFFFFFFFFFFFF DUP2 GT ISZERO PUSH3 0x34F JUMPI PUSH1 0x0 DUP1 REVERT JUMPDEST PUSH3 0x35D DUP9 DUP3 DUP10 ADD PUSH3 0x2AB JUMP JUMPDEST SWAP5 POP POP PUSH1 0x40 DUP7 ADD MLOAD PUSH8 0xFFFFFFFFFFFFFFFF DUP2 GT ISZERO PUSH3 0x37B JUMPI PUSH1 0x0 DUP1 REVERT JUMPDEST PUSH3 0x389 DUP9 DUP3 DUP10 ADD PUSH3 0x2AB JUMP JUMPDEST SWAP4 POP POP PUSH1 0x60 PUSH3 0x39C DUP9 DUP3 DUP10 ADD PUSH3 0x2D8 JUMP JUMPDEST SWAP3 POP POP PUSH1 0x80 PUSH3 0x3AF DUP9 DUP3 DUP10 ADD PUSH3 0x2D8 JUMP JUMPDEST SWAP2 POP POP SWAP3 SWAP6 POP SWAP3 SWAP6 SWAP1 SWAP4 POP JUMP JUMPDEST PUSH1 0x0 PUSH3 0x3C8 PUSH3 0x3DB JUMP JUMPDEST SWAP1 POP PUSH3 0x3D6 DUP3 DUP3 PUSH3 0x491 JUMP JUMPDEST SWAP2 SWAP1 POP JUMP JUMPDEST PUSH1 0x0 PUSH1 0x40 MLOAD SWAP1 POP SWAP1 JUMP JUMPDEST PUSH1 0x0 PUSH8 0xFFFFFFFFFFFFFFFF DUP3 GT ISZERO PUSH3 0x403 JUMPI PUSH3 0x402 PUSH3 0x4F6 JUMP JUMPDEST JUMPDEST PUSH3 0x40E DUP3 PUSH3 0x525 JUMP JUMPDEST SWAP1 POP PUSH1 0x20 DUP2 ADD SWAP1 POP SWAP2 SWAP1 POP JUMP JUMPDEST PUSH1 0x0 DUP2 SWAP1 POP SWAP2 SWAP1 POP JUMP JUMPDEST PUSH1 0x0 JUMPDEST DUP4 DUP2 LT ISZERO PUSH3 0x445 JUMPI DUP1 DUP3 ADD MLOAD DUP2 DUP5 ADD MSTORE PUSH1 0x20 DUP2 ADD SWAP1 POP PUSH3 0x428 JUMP JUMPDEST DUP4 DUP2 GT ISZERO PUSH3 0x455 JUMPI PUSH1 0x0 DUP5 DUP5 ADD MSTORE JUMPDEST POP POP POP POP JUMP JUMPDEST PUSH1 0x0 PUSH1 0x2 DUP3 DIV SWAP1 POP PUSH1 0x1 DUP3 AND DUP1 PUSH3 0x474 JUMPI PUSH1 0x7F DUP3 AND SWAP2 POP JUMPDEST PUSH1 0x20 DUP3 LT DUP2 EQ ISZERO PUSH3 0x48B JUMPI PUSH3 0x48A PUSH3 0x4C7 JUMP JUMPDEST JUMPDEST POP SWAP2 SWAP1 POP JUMP JUMPDEST PUSH3 0x49C DUP3 PUSH3 0x525 JUMP JUMPDEST DUP2 ADD DUP2 DUP2 LT PUSH8 0xFFFFFFFFFFFFFFFF DUP3 GT OR ISZERO PUSH3 0x4BE JUMPI PUSH3 0x4BD PUSH3 0x4F6 JUMP JUMPDEST JUMPDEST DUP1 PUSH1 0x40 MSTORE POP POP POP JUMP JUMPDEST PUSH32 0x4E487B7100000000000000000000000000000000000000000000000000000000 PUSH1 0x0 MSTORE PUSH1 0x22 PUSH1 0x4 MSTORE PUSH1 0x24 PUSH1 0x0 REVERT JUMPDEST PUSH32 0x4E487B7100000000000000000000000000000000000000000000000000000000 PUSH1 0x0 MSTORE PUSH1 0x41 PUSH1 0x4 MSTORE PUSH1 0x24 PUSH1 0x0 REVERT JUMPDEST PUSH1 0x0 PUSH1 0x1F NOT PUSH1 0x1F DUP4 ADD AND SWAP1 POP SWAP2 SWAP1 POP JUMP JUMPDEST PUSH3 0x541 DUP2 PUSH3 0x41B JUMP JUMPDEST DUP2 EQ PUSH3 0x54D JUMPI PUSH1 0x0 DUP1 REVERT JUMPDEST POP JUMP JUMPDEST PUSH1 0x80 MLOAD PUSH2 0x319B PUSH3 0x57A PUSH1 0x0 CODECOPY PUSH1 0x0 DUP2 DUP2 PUSH2 0x9A6 ADD MSTORE DUP2 DUP2 PUSH2 0xC80 ADD MSTORE PUSH2 0xFF2 ADD MSTORE PUSH2 0x319B PUSH1 0x0 RETURN INVALID PUSH1 0x80 PUSH1 0x40 MSTORE PUSH1 0x4 CALLDATASIZE LT PUSH2 0x19C JUMPI PUSH1 0x0 CALLDATALOAD PUSH1 0xE0 SHR DUP1 PUSH4 0x6352211E GT PUSH2 0xEC JUMPI DUP1 PUSH4 0xA22CB465 GT PUSH2 0x8A JUMPI DUP1 PUSH4 0xCC47A40B GT PUSH2 0x64 JUMPI DUP1 PUSH4 0xCC47A40B EQ PUSH2 0x591 JUMPI DUP1 PUSH4 0xE985E9C5 EQ PUSH2 0x5BA JUMPI DUP1 PUSH4 0xEB8D2444 EQ PUSH2 0x5F7 JUMPI DUP1 PUSH4 0xF2FDE38B EQ PUSH2 0x622 JUMPI PUSH2 0x19C JUMP JUMPDEST DUP1 PUSH4 0xA22CB465 EQ PUSH2 0x502 JUMPI DUP1 PUSH4 0xB88D4FDE EQ PUSH2 0x52B JUMPI DUP1 PUSH4 0xC87B56DD EQ PUSH2 0x554 JUMPI PUSH2 0x19C JUMP JUMPDEST DUP1 PUSH4 0x8DA5CB5B GT PUSH2 0xC6 JUMPI DUP1 PUSH4 0x8DA5CB5B EQ PUSH2 0x465 JUMPI DUP1 PUSH4 0x95D89B41 EQ PUSH2 0x490 JUMPI DUP1 PUSH4 0x9D1B464A EQ PUSH2 0x4BB JUMPI DUP1 PUSH4 0xA0712D68 EQ PUSH2 0x4E6 JUMPI PUSH2 0x19C JUMP JUMPDEST DUP1 PUSH4 0x6352211E EQ PUSH2 0x3D4 JUMPI DUP1 PUSH4 0x70A08231 EQ PUSH2 0x411 JUMPI DUP1 PUSH4 0x715018A6 EQ PUSH2 0x44E JUMPI PUSH2 0x19C JUMP JUMPDEST DUP1 PUSH4 0x18B20071 GT PUSH2 0x159 JUMPI DUP1 PUSH4 0x3C8463A1 GT PUSH2 0x133 JUMPI DUP1 PUSH4 0x3C8463A1 EQ PUSH2 0x340 JUMPI DUP1 PUSH4 0x3CCFD60B EQ PUSH2 0x36B JUMPI DUP1 PUSH4 0x42842E0E EQ PUSH2 0x382 JUMPI DUP1 PUSH4 0x55F804B3 EQ PUSH2 0x3AB JUMPI PUSH2 0x19C JUMP JUMPDEST DUP1 PUSH4 0x18B20071 EQ PUSH2 0x2C3 JUMPI DUP1 PUSH4 0x23B872DD EQ PUSH2 0x2EC JUMPI DUP1 PUSH4 0x32CB6B0C EQ PUSH2 0x315 JUMPI PUSH2 0x19C JUMP JUMPDEST DUP1 PUSH4 0x1FFC9A7 EQ PUSH2 0x1A1 JUMPI DUP1 PUSH4 0x2C88989 EQ PUSH2 0x1DE JUMPI DUP1 PUSH4 0x6FDDE03 EQ PUSH2 0x207 JUMPI DUP1 PUSH4 0x81812FC EQ PUSH2 0x232 JUMPI DUP1 PUSH4 0x95EA7B3 EQ PUSH2 0x26F JUMPI DUP1 PUSH4 0x18160DDD EQ PUSH2 0x298 JUMPI JUMPDEST PUSH1 0x0 DUP1 REVERT JUMPDEST CALLVALUE DUP1 ISZERO PUSH2 0x1AD JUMPI PUSH1 0x0 DUP1 REVERT JUMPDEST POP PUSH2 0x1C8 PUSH1 0x4 DUP1 CALLDATASIZE SUB DUP2 ADD SWAP1 PUSH2 0x1C3 SWAP2 SWAP1 PUSH2 0x2901 JUMP JUMPDEST PUSH2 0x64B JUMP JUMPDEST PUSH1 0x40 MLOAD PUSH2 0x1D5 SWAP2 SWAP1 PUSH2 0x2BC7 JUMP JUMPDEST PUSH1 0x40 MLOAD DUP1 SWAP2 SUB SWAP1 RETURN JUMPDEST CALLVALUE DUP1 ISZERO PUSH2 0x1EA JUMPI PUSH1 0x0 DUP1 REVERT JUMPDEST POP PUSH2 0x205 PUSH1 0x4 DUP1 CALLDATASIZE SUB DUP2 ADD SWAP1 PUSH2 0x200 SWAP2 SWAP1 PUSH2 0x28D8 JUMP JUMPDEST PUSH2 0x72D JUMP JUMPDEST STOP JUMPDEST CALLVALUE DUP1 ISZERO PUSH2 0x213 JUMPI PUSH1 0x0 DUP1 REVERT JUMPDEST POP PUSH2 0x21C PUSH2 0x752 JUMP JUMPDEST PUSH1 0x40 MLOAD PUSH2 0x229 SWAP2 SWAP1 PUSH2 0x2BE2 JUMP JUMPDEST PUSH1 0x40 MLOAD DUP1 SWAP2 SUB SWAP1 RETURN JUMPDEST CALLVALUE DUP1 ISZERO PUSH2 0x23E JUMPI PUSH1 0x0 DUP1 REVERT JUMPDEST POP PUSH2 0x259 PUSH1 0x4 DUP1 CALLDATASIZE SUB DUP2 ADD SWAP1 PUSH2 0x254 SWAP2 SWAP1 PUSH2 0x2994 JUMP JUMPDEST PUSH2 0x7E4 JUMP JUMPDEST PUSH1 0x40 MLOAD PUSH2 0x266 SWAP2 SWAP1 PUSH2 0x2B60 JUMP JUMPDEST PUSH1 0x40 MLOAD DUP1 SWAP2 SUB SWAP1 RETURN JUMPDEST CALLVALUE DUP1 ISZERO PUSH2 0x27B JUMPI PUSH1 0x0 DUP1 REVERT JUMPDEST POP PUSH2 0x296 PUSH1 0x4 DUP1 CALLDATASIZE SUB DUP2 ADD SWAP1 PUSH2 0x291 SWAP2 SWAP1 PUSH2 0x289C JUMP JUMPDEST PUSH2 0x860 JUMP JUMPDEST STOP JUMPDEST CALLVALUE DUP1 ISZERO PUSH2 0x2A4 JUMPI PUSH1 0x0 DUP1 REVERT JUMPDEST POP PUSH2 0x2AD PUSH2 0x96B JUMP JUMPDEST PUSH1 0x40 MLOAD PUSH2 0x2BA SWAP2 SWAP1 PUSH2 0x2CA4 JUMP JUMPDEST PUSH1 0x40 MLOAD DUP1 SWAP2 SUB SWAP1 RETURN JUMPDEST CALLVALUE DUP1 ISZERO PUSH2 0x2CF JUMPI PUSH1 0x0 DUP1 REVERT JUMPDEST POP PUSH2 0x2EA PUSH1 0x4 DUP1 CALLDATASIZE SUB DUP2 ADD SWAP1 PUSH2 0x2E5 SWAP2 SWAP1 PUSH2 0x2994 JUMP JUMPDEST PUSH2 0x982 JUMP JUMPDEST STOP JUMPDEST CALLVALUE DUP1 ISZERO PUSH2 0x2F8 JUMPI PUSH1 0x0 DUP1 REVERT JUMPDEST POP PUSH2 0x313 PUSH1 0x4 DUP1 CALLDATASIZE SUB DUP2 ADD SWAP1 PUSH2 0x30E SWAP2 SWAP1 PUSH2 0x2796 JUMP JUMPDEST PUSH2 0x994 JUMP JUMPDEST STOP JUMPDEST CALLVALUE DUP1 ISZERO PUSH2 0x321 JUMPI PUSH1 0x0 DUP1 REVERT JUMPDEST POP PUSH2 0x32A PUSH2 0x9A4 JUMP JUMPDEST PUSH1 0x40 MLOAD PUSH2 0x337 SWAP2 SWAP1 PUSH2 0x2CA4 JUMP JUMPDEST PUSH1 0x40 MLOAD DUP1 SWAP2 SUB SWAP1 RETURN JUMPDEST CALLVALUE DUP1 ISZERO PUSH2 0x34C JUMPI PUSH1 0x0 DUP1 REVERT JUMPDEST POP PUSH2 0x355 PUSH2 0x9C8 JUMP JUMPDEST PUSH1 0x40 MLOAD PUSH2 0x362 SWAP2 SWAP1 PUSH2 0x2CA4 JUMP JUMPDEST PUSH1 0x40 MLOAD DUP1 SWAP2 SUB SWAP1 RETURN JUMPDEST CALLVALUE DUP1 ISZERO PUSH2 0x377 JUMPI PUSH1 0x0 DUP1 REVERT JUMPDEST POP PUSH2 0x380 PUSH2 0x9CE JUMP JUMPDEST STOP JUMPDEST CALLVALUE DUP1 ISZERO PUSH2 0x38E JUMPI PUSH1 0x0 DUP1 REVERT JUMPDEST POP PUSH2 0x3A9 PUSH1 0x4 DUP1 CALLDATASIZE SUB DUP2 ADD SWAP1 PUSH2 0x3A4 SWAP2 SWAP1 PUSH2 0x2796 JUMP JUMPDEST PUSH2 0xA25 JUMP JUMPDEST STOP JUMPDEST CALLVALUE DUP1 ISZERO PUSH2 0x3B7 JUMPI PUSH1 0x0 DUP1 REVERT JUMPDEST POP PUSH2 0x3D2 PUSH1 0x4 DUP1 CALLDATASIZE SUB DUP2 ADD SWAP1 PUSH2 0x3CD SWAP2 SWAP1 PUSH2 0x2953 JUMP JUMPDEST PUSH2 0xA45 JUMP JUMPDEST STOP JUMPDEST CALLVALUE DUP1 ISZERO PUSH2 0x3E0 JUMPI PUSH1 0x0 DUP1 REVERT JUMPDEST POP PUSH2 0x3FB PUSH1 0x4 DUP1 CALLDATASIZE SUB DUP2 ADD SWAP1 PUSH2 0x3F6 SWAP2 SWAP1 PUSH2 0x2994 JUMP JUMPDEST PUSH2 0xA67 JUMP JUMPDEST PUSH1 0x40 MLOAD PUSH2 0x408 SWAP2 SWAP1 PUSH2 0x2B60 JUMP JUMPDEST PUSH1 0x40 MLOAD DUP1 SWAP2 SUB SWAP1 RETURN JUMPDEST CALLVALUE DUP1 ISZERO PUSH2 0x41D JUMPI PUSH1 0x0 DUP1 REVERT JUMPDEST POP PUSH2 0x438 PUSH1 0x4 DUP1 CALLDATASIZE SUB DUP2 ADD SWAP1 PUSH2 0x433 SWAP2 SWAP1 PUSH2 0x2731 JUMP JUMPDEST PUSH2 0xA7D JUMP JUMPDEST PUSH1 0x40 MLOAD PUSH2 0x445 SWAP2 SWAP1 PUSH2 0x2CA4 JUMP JUMPDEST PUSH1 0x40 MLOAD DUP1 SWAP2 SUB SWAP1 RETURN JUMPDEST CALLVALUE DUP1 ISZERO PUSH2 0x45A JUMPI PUSH1 0x0 DUP1 REVERT JUMPDEST POP PUSH2 0x463 PUSH2 0xB4D JUMP JUMPDEST STOP JUMPDEST CALLVALUE DUP1 ISZERO PUSH2 0x471 JUMPI PUSH1 0x0 DUP1 REVERT JUMPDEST POP PUSH2 0x47A PUSH2 0xB61 JUMP JUMPDEST PUSH1 0x40 MLOAD PUSH2 0x487 SWAP2 SWAP1 PUSH2 0x2B60 JUMP JUMPDEST PUSH1 0x40 MLOAD DUP1 SWAP2 SUB SWAP1 RETURN JUMPDEST CALLVALUE DUP1 ISZERO PUSH2 0x49C JUMPI PUSH1 0x0 DUP1 REVERT JUMPDEST POP PUSH2 0x4A5 PUSH2 0xB8B JUMP JUMPDEST PUSH1 0x40 MLOAD PUSH2 0x4B2 SWAP2 SWAP1 PUSH2 0x2BE2 JUMP JUMPDEST PUSH1 0x40 MLOAD DUP1 SWAP2 SUB SWAP1 RETURN JUMPDEST CALLVALUE DUP1 ISZERO PUSH2 0x4C7 JUMPI PUSH1 0x0 DUP1 REVERT JUMPDEST POP PUSH2 0x4D0 PUSH2 0xC1D JUMP JUMPDEST PUSH1 0x40 MLOAD PUSH2 0x4DD SWAP2 SWAP1 PUSH2 0x2CA4 JUMP JUMPDEST PUSH1 0x40 MLOAD DUP1 SWAP2 SUB SWAP1 RETURN JUMPDEST PUSH2 0x500 PUSH1 0x4 DUP1 CALLDATASIZE SUB DUP2 ADD SWAP1 PUSH2 0x4FB SWAP2 SWAP1 PUSH2 0x2994 JUMP JUMPDEST PUSH2 0xC23 JUMP JUMPDEST STOP JUMPDEST CALLVALUE DUP1 ISZERO PUSH2 0x50E JUMPI PUSH1 0x0 DUP1 REVERT JUMPDEST POP PUSH2 0x529 PUSH1 0x4 DUP1 CALLDATASIZE SUB DUP2 ADD SWAP1 PUSH2 0x524 SWAP2 SWAP1 PUSH2 0x2860 JUMP JUMPDEST PUSH2 0xD49 JUMP JUMPDEST STOP JUMPDEST CALLVALUE DUP1 ISZERO PUSH2 0x537 JUMPI PUSH1 0x0 DUP1 REVERT JUMPDEST POP PUSH2 0x552 PUSH1 0x4 DUP1 CALLDATASIZE SUB DUP2 ADD SWAP1 PUSH2 0x54D SWAP2 SWAP1 PUSH2 0x27E5 JUMP JUMPDEST PUSH2 0xEC1 JUMP JUMPDEST STOP JUMPDEST CALLVALUE DUP1 ISZERO PUSH2 0x560 JUMPI PUSH1 0x0 DUP1 REVERT JUMPDEST POP PUSH2 0x57B PUSH1 0x4 DUP1 CALLDATASIZE SUB DUP2 ADD SWAP1 PUSH2 0x576 SWAP2 SWAP1 PUSH2 0x2994 JUMP JUMPDEST PUSH2 0xF3D JUMP JUMPDEST PUSH1 0x40 MLOAD PUSH2 0x588 SWAP2 SWAP1 PUSH2 0x2BE2 JUMP JUMPDEST PUSH1 0x40 MLOAD DUP1 SWAP2 SUB SWAP1 RETURN JUMPDEST CALLVALUE DUP1 ISZERO PUSH2 0x59D JUMPI PUSH1 0x0 DUP1 REVERT JUMPDEST POP PUSH2 0x5B8 PUSH1 0x4 DUP1 CALLDATASIZE SUB DUP2 ADD SWAP1 PUSH2 0x5B3 SWAP2 SWAP1 PUSH2 0x289C JUMP JUMPDEST PUSH2 0xFDC JUMP JUMPDEST STOP JUMPDEST CALLVALUE DUP1 ISZERO PUSH2 0x5C6 JUMPI PUSH1 0x0 DUP1 REVERT JUMPDEST POP PUSH2 0x5E1 PUSH1 0x4 DUP1 CALLDATASIZE SUB DUP2 ADD SWAP1 PUSH2 0x5DC SWAP2 SWAP1 PUSH2 0x275A JUMP JUMPDEST PUSH2 0x106D JUMP JUMPDEST PUSH1 0x40 MLOAD PUSH2 0x5EE SWAP2 SWAP1 PUSH2 0x2BC7 JUMP JUMPDEST PUSH1 0x40 MLOAD DUP1 SWAP2 SUB SWAP1 RETURN JUMPDEST CALLVALUE DUP1 ISZERO PUSH2 0x603 JUMPI PUSH1 0x0 DUP1 REVERT JUMPDEST POP PUSH2 0x60C PUSH2 0x1101 JUMP JUMPDEST PUSH1 0x40 MLOAD PUSH2 0x619 SWAP2 SWAP1 PUSH2 0x2BC7 JUMP JUMPDEST PUSH1 0x40 MLOAD DUP1 SWAP2 SUB SWAP1 RETURN JUMPDEST CALLVALUE DUP1 ISZERO PUSH2 0x62E JUMPI PUSH1 0x0 DUP1 REVERT JUMPDEST POP PUSH2 0x649 PUSH1 0x4 DUP1 CALLDATASIZE SUB DUP2 ADD SWAP1 PUSH2 0x644 SWAP2 SWAP1 PUSH2 0x2731 JUMP JUMPDEST PUSH2 0x1114 JUMP JUMPDEST STOP JUMPDEST PUSH1 0x0 PUSH32 0x80AC58CD00000000000000000000000000000000000000000000000000000000 PUSH28 0xFFFFFFFFFFFFFFFFFFFFFFFFFFFFFFFFFFFFFFFFFFFFFFFFFFFFFFFF NOT AND DUP3 PUSH28 0xFFFFFFFFFFFFFFFFFFFFFFFFFFFFFFFFFFFFFFFFFFFFFFFFFFFFFFFF NOT AND EQ DUP1 PUSH2 0x716 JUMPI POP PUSH32 0x5B5E139F00000000000000000000000000000000000000000000000000000000 PUSH28 0xFFFFFFFFFFFFFFFFFFFFFFFFFFFFFFFFFFFFFFFFFFFFFFFFFFFFFFFF NOT AND DUP3 PUSH28 0xFFFFFFFFFFFFFFFFFFFFFFFFFFFFFFFFFFFFFFFFFFFFFFFFFFFFFFFF NOT AND EQ JUMPDEST DUP1 PUSH2 0x726 JUMPI POP PUSH2 0x725 DUP3 PUSH2 0x1198 JUMP JUMPDEST JUMPDEST SWAP1 POP SWAP2 SWAP1 POP JUMP JUMPDEST PUSH2 0x735 PUSH2 0x1202 JUMP JUMPDEST DUP1 PUSH1 0x8 PUSH1 0x14 PUSH2 0x100 EXP DUP2 SLOAD DUP2 PUSH1 0xFF MUL NOT AND SWAP1 DUP4 ISZERO ISZERO MUL OR SWAP1 SSTORE POP POP JUMP JUMPDEST PUSH1 0x60 PUSH1 0x2 DUP1 SLOAD PUSH2 0x761 SWAP1 PUSH2 0x2EEF JUMP JUMPDEST DUP1 PUSH1 0x1F ADD PUSH1 0x20 DUP1 SWAP2 DIV MUL PUSH1 0x20 ADD PUSH1 0x40 MLOAD SWAP1 DUP2 ADD PUSH1 0x40 MSTORE DUP1 SWAP3 SWAP2 SWAP1 DUP2 DUP2 MSTORE PUSH1 0x20 ADD DUP3 DUP1 SLOAD PUSH2 0x78D SWAP1 PUSH2 0x2EEF JUMP JUMPDEST DUP1 ISZERO PUSH2 0x7DA JUMPI DUP1 PUSH1 0x1F LT PUSH2 0x7AF JUMPI PUSH2 0x100 DUP1 DUP4 SLOAD DIV MUL DUP4 MSTORE SWAP2 PUSH1 0x20 ADD SWAP2 PUSH2 0x7DA JUMP JUMPDEST DUP3 ADD SWAP2 SWAP1 PUSH1 0x0 MSTORE PUSH1 0x20 PUSH1 0x0 KECCAK256 SWAP1 JUMPDEST DUP2 SLOAD DUP2 MSTORE SWAP1 PUSH1 0x1 ADD SWAP1 PUSH1 0x20 ADD DUP1 DUP4 GT PUSH2 0x7BD JUMPI DUP3 SWAP1 SUB PUSH1 0x1F AND DUP3 ADD SWAP2 JUMPDEST POP POP POP POP POP SWAP1 POP SWAP1 JUMP JUMPDEST PUSH1 0x0 PUSH2 0x7EF DUP3 PUSH2 0x1280 JUMP JUMPDEST PUSH2 0x825 JUMPI PUSH1 0x40 MLOAD PUSH32 0xCF4700E400000000000000000000000000000000000000000000000000000000 DUP2 MSTORE PUSH1 0x4 ADD PUSH1 0x40 MLOAD DUP1 SWAP2 SUB SWAP1 REVERT JUMPDEST PUSH1 0x6 PUSH1 0x0 DUP4 DUP2 MSTORE PUSH1 0x20 ADD SWAP1 DUP2 MSTORE PUSH1 0x20 ADD PUSH1 0x0 KECCAK256 PUSH1 0x0 SWAP1 SLOAD SWAP1 PUSH2 0x100 EXP SWAP1 DIV PUSH20 0xFFFFFFFFFFFFFFFFFFFFFFFFFFFFFFFFFFFFFFFF AND SWAP1 POP SWAP2 SWAP1 POP JUMP JUMPDEST PUSH1 0x0 PUSH2 0x86B DUP3 PUSH2 0xA67 JUMP JUMPDEST SWAP1 POP DUP1 PUSH20 0xFFFFFFFFFFFFFFFFFFFFFFFFFFFFFFFFFFFFFFFF AND DUP4 PUSH20 0xFFFFFFFFFFFFFFFFFFFFFFFFFFFFFFFFFFFFFFFF AND EQ ISZERO PUSH2 0x8D3 JUMPI PUSH1 0x40 MLOAD PUSH32 0x943F7B8C00000000000000000000000000000000000000000000000000000000 DUP2 MSTORE PUSH1 0x4 ADD PUSH1 0x40 MLOAD DUP1 SWAP2 SUB SWAP1 REVERT JUMPDEST DUP1 PUSH20 0xFFFFFFFFFFFFFFFFFFFFFFFFFFFFFFFFFFFFFFFF AND PUSH2 0x8F2 PUSH2 0x12CE JUMP JUMPDEST PUSH20 0xFFFFFFFFFFFFFFFFFFFFFFFFFFFFFFFFFFFFFFFF AND EQ ISZERO DUP1 ISZERO PUSH2 0x924 JUMPI POP PUSH2 0x922 DUP2 PUSH2 0x91D PUSH2 0x12CE JUMP JUMPDEST PUSH2 0x106D JUMP JUMPDEST ISZERO JUMPDEST ISZERO PUSH2 0x95B JUMPI PUSH1 0x40 MLOAD PUSH32 0xCFB3B94200000000000000000000000000000000000000000000000000000000 DUP2 MSTORE PUSH1 0x4 ADD PUSH1 0x40 MLOAD DUP1 SWAP2 SUB SWAP1 REVERT JUMPDEST PUSH2 0x966 DUP4 DUP4 DUP4 PUSH2 0x12D6 JUMP JUMPDEST POP POP POP JUMP JUMPDEST PUSH1 0x0 PUSH2 0x975 PUSH2 0x1388 JUMP JUMPDEST PUSH1 0x1 SLOAD PUSH1 0x0 SLOAD SUB SUB SWAP1 POP SWAP1 JUMP JUMPDEST PUSH2 0x98A PUSH2 0x1202 JUMP JUMPDEST DUP1 PUSH1 0xA DUP2 SWAP1 SSTORE POP POP JUMP JUMPDEST PUSH2 0x99F DUP4 DUP4 DUP4 PUSH2 0x138D JUMP JUMPDEST POP POP POP JUMP JUMPDEST PUSH32 0x0 DUP2 JUMP JUMPDEST PUSH1 0xB SLOAD DUP2 JUMP JUMPDEST PUSH2 0x9D6 PUSH2 0x1202 JUMP JUMPDEST PUSH1 0x0 SELFBALANCE SWAP1 POP CALLER PUSH20 0xFFFFFFFFFFFFFFFFFFFFFFFFFFFFFFFFFFFFFFFF AND PUSH2 0x8FC DUP3 SWAP1 DUP2 ISZERO MUL SWAP1 PUSH1 0x40 MLOAD PUSH1 0x0 PUSH1 0x40 MLOAD DUP1 DUP4 SUB DUP2 DUP6 DUP9 DUP9 CALL SWAP4 POP POP POP POP ISZERO DUP1 ISZERO PUSH2 0xA21 JUMPI RETURNDATASIZE PUSH1 0x0 DUP1 RETURNDATACOPY RETURNDATASIZE PUSH1 0x0 REVERT JUMPDEST POP POP JUMP JUMPDEST PUSH2 0xA40 DUP4 DUP4 DUP4 PUSH1 0x40 MLOAD DUP1 PUSH1 0x20 ADD PUSH1 0x40 MSTORE DUP1 PUSH1 0x0 DUP2 MSTORE POP PUSH2 0xEC1 JUMP JUMPDEST POP POP POP JUMP JUMPDEST PUSH2 0xA4D PUSH2 0x1202 JUMP JUMPDEST DUP1 PUSH1 0x9 SWAP1 DUP1 MLOAD SWAP1 PUSH1 0x20 ADD SWAP1 PUSH2 0xA63 SWAP3 SWAP2 SWAP1 PUSH2 0x2512 JUMP JUMPDEST POP POP JUMP JUMPDEST PUSH1 0x0 PUSH2 0xA72 DUP3 PUSH2 0x1843 JUMP JUMPDEST PUSH1 0x0 ADD MLOAD SWAP1 POP SWAP2 SWAP1 POP JUMP JUMPDEST PUSH1 0x0 DUP1 PUSH20 0xFFFFFFFFFFFFFFFFFFFFFFFFFFFFFFFFFFFFFFFF AND DUP3 PUSH20 0xFFFFFFFFFFFFFFFFFFFFFFFFFFFFFFFFFFFFFFFF AND EQ ISZERO PUSH2 0xAE5 JUMPI PUSH1 0x40 MLOAD PUSH32 0x8F4EB60400000000000000000000000000000000000000000000000000000000 DUP2 MSTORE PUSH1 0x4 ADD PUSH1 0x40 MLOAD DUP1 SWAP2 SUB SWAP1 REVERT JUMPDEST PUSH1 0x5 PUSH1 0x0 DUP4 PUSH20 0xFFFFFFFFFFFFFFFFFFFFFFFFFFFFFFFFFFFFFFFF AND PUSH20 0xFFFFFFFFFFFFFFFFFFFFFFFFFFFFFFFFFFFFFFFF AND DUP2 MSTORE PUSH1 0x20 ADD SWAP1 DUP2 MSTORE PUSH1 0x20 ADD PUSH1 0x0 KECCAK256 PUSH1 0x0 ADD PUSH1 0x0 SWAP1 SLOAD SWAP1 PUSH2 0x100 EXP SWAP1 DIV PUSH8 0xFFFFFFFFFFFFFFFF AND PUSH8 0xFFFFFFFFFFFFFFFF AND SWAP1 POP SWAP2 SWAP1 POP JUMP JUMPDEST PUSH2 0xB55 PUSH2 0x1202 JUMP JUMPDEST PUSH2 0xB5F PUSH1 0x0 PUSH2 0x1AD2 JUMP JUMPDEST JUMP JUMPDEST PUSH1 0x0 PUSH1 0x8 PUSH1 0x0 SWAP1 SLOAD SWAP1 PUSH2 0x100 EXP SWAP1 DIV PUSH20 0xFFFFFFFFFFFFFFFFFFFFFFFFFFFFFFFFFFFFFFFF AND SWAP1 POP SWAP1 JUMP JUMPDEST PUSH1 0x60 PUSH1 0x3 DUP1 SLOAD PUSH2 0xB9A SWAP1 PUSH2 0x2EEF JUMP JUMPDEST DUP1 PUSH1 0x1F ADD PUSH1 0x20 DUP1 SWAP2 DIV MUL PUSH1 0x20 ADD PUSH1 0x40 MLOAD SWAP1 DUP2 ADD PUSH1 0x40 MSTORE DUP1 SWAP3 SWAP2 SWAP1 DUP2 DUP2 MSTORE PUSH1 0x20 ADD DUP3 DUP1 SLOAD PUSH2 0xBC6 SWAP1 PUSH2 0x2EEF JUMP JUMPDEST DUP1 ISZERO PUSH2 0xC13 JUMPI DUP1 PUSH1 0x1F LT PUSH2 0xBE8 JUMPI PUSH2 0x100 DUP1 DUP4 SLOAD DIV MUL DUP4 MSTORE SWAP2 PUSH1 0x20 ADD SWAP2 PUSH2 0xC13 JUMP JUMPDEST DUP3 ADD SWAP2 SWAP1 PUSH1 0x0 MSTORE PUSH1 0x20 PUSH1 0x0 KECCAK256 SWAP1 JUMPDEST DUP2 SLOAD DUP2 MSTORE SWAP1 PUSH1 0x1 ADD SWAP1 PUSH1 0x20 ADD DUP1 DUP4 GT PUSH2 0xBF6 JUMPI DUP3 SWAP1 SUB PUSH1 0x1F AND DUP3 ADD SWAP2 JUMPDEST POP POP POP POP POP SWAP1 POP SWAP1 JUMP JUMPDEST PUSH1 0xA SLOAD DUP2 JUMP JUMPDEST PUSH1 0x0 PUSH2 0xC2D PUSH2 0x96B JUMP JUMPDEST SWAP1 POP PUSH1 0x8 PUSH1 0x14 SWAP1 SLOAD SWAP1 PUSH2 0x100 EXP SWAP1 DIV PUSH1 0xFF AND PUSH2 0xC7E JUMPI PUSH1 0x40 MLOAD PUSH32 0x8C379A000000000000000000000000000000000000000000000000000000000 DUP2 MSTORE PUSH1 0x4 ADD PUSH2 0xC75 SWAP1 PUSH2 0x2C84 JUMP JUMPDEST PUSH1 0x40 MLOAD DUP1 SWAP2 SUB SWAP1 REVERT JUMPDEST PUSH32 0x0 DUP3 DUP3 PUSH2 0xCAB SWAP2 SWAP1 PUSH2 0x2D89 JUMP JUMPDEST GT ISZERO PUSH2 0xCEC JUMPI PUSH1 0x40 MLOAD PUSH32 0x8C379A000000000000000000000000000000000000000000000000000000000 DUP2 MSTORE PUSH1 0x4 ADD PUSH2 0xCE3 SWAP1 PUSH2 0x2C24 JUMP JUMPDEST PUSH1 0x40 MLOAD DUP1 SWAP2 SUB SWAP1 REVERT JUMPDEST CALLVALUE DUP3 PUSH1 0xA SLOAD PUSH2 0xCFB SWAP2 SWAP1 PUSH2 0x2DDF JUMP JUMPDEST EQ PUSH2 0xD3B JUMPI PUSH1 0x40 MLOAD PUSH32 0x8C379A000000000000000000000000000000000000000000000000000000000 DUP2 MSTORE PUSH1 0x4 ADD PUSH2 0xD32 SWAP1 PUSH2 0x2C44 JUMP JUMPDEST PUSH1 0x40 MLOAD DUP1 SWAP2 SUB SWAP1 REVERT JUMPDEST PUSH2 0xD45 CALLER DUP4 PUSH2 0x1B98 JUMP JUMPDEST POP POP JUMP JUMPDEST PUSH2 0xD51 PUSH2 0x12CE JUMP JUMPDEST PUSH20 0xFFFFFFFFFFFFFFFFFFFFFFFFFFFFFFFFFFFFFFFF AND DUP3 PUSH20 0xFFFFFFFFFFFFFFFFFFFFFFFFFFFFFFFFFFFFFFFF AND EQ ISZERO PUSH2 0xDB6 JUMPI PUSH1 0x40 MLOAD PUSH32 0xB06307DB00000000000000000000000000000000000000000000000000000000 DUP2 MSTORE PUSH1 0x4 ADD PUSH1 0x40 MLOAD DUP1 SWAP2 SUB SWAP1 REVERT JUMPDEST DUP1 PUSH1 0x7 PUSH1 0x0 PUSH2 0xDC3 PUSH2 0x12CE JUMP JUMPDEST PUSH20 0xFFFFFFFFFFFFFFFFFFFFFFFFFFFFFFFFFFFFFFFF AND PUSH20 0xFFFFFFFFFFFFFFFFFFFFFFFFFFFFFFFFFFFFFFFF AND DUP2 MSTORE PUSH1 0x20 ADD SWAP1 DUP2 MSTORE PUSH1 0x20 ADD PUSH1 0x0 KECCAK256 PUSH1 0x0 DUP5 PUSH20 0xFFFFFFFFFFFFFFFFFFFFFFFFFFFFFFFFFFFFFFFF AND PUSH20 0xFFFFFFFFFFFFFFFFFFFFFFFFFFFFFFFFFFFFFFFF AND DUP2 MSTORE PUSH1 0x20 ADD SWAP1 DUP2 MSTORE PUSH1 0x20 ADD PUSH1 0x0 KECCAK256 PUSH1 0x0 PUSH2 0x100 EXP DUP2 SLOAD DUP2 PUSH1 0xFF MUL NOT AND SWAP1 DUP4 ISZERO ISZERO MUL OR SWAP1 SSTORE POP DUP2 PUSH20 0xFFFFFFFFFFFFFFFFFFFFFFFFFFFFFFFFFFFFFFFF AND PUSH2 0xE70 PUSH2 0x12CE JUMP JUMPDEST PUSH20 0xFFFFFFFFFFFFFFFFFFFFFFFFFFFFFFFFFFFFFFFF AND PUSH32 0x17307EAB39AB6107E8899845AD3D59BD9653F200F220920489CA2B5937696C31 DUP4 PUSH1 0x40 MLOAD PUSH2 0xEB5 SWAP2 SWAP1 PUSH2 0x2BC7 JUMP JUMPDEST PUSH1 0x40 MLOAD DUP1 SWAP2 SUB SWAP1 LOG3 POP POP JUMP JUMPDEST PUSH2 0xECC DUP5 DUP5 DUP5 PUSH2 0x138D JUMP JUMPDEST PUSH2 0xEEB DUP4 PUSH20 0xFFFFFFFFFFFFFFFFFFFFFFFFFFFFFFFFFFFFFFFF AND PUSH2 0x1BB6 JUMP JUMPDEST DUP1 ISZERO PUSH2 0xF00 JUMPI POP PUSH2 0xEFE DUP5 DUP5 DUP5 DUP5 PUSH2 0x1BD9 JUMP JUMPDEST ISZERO JUMPDEST ISZERO PUSH2 0xF37 JUMPI PUSH1 0x40 MLOAD PUSH32 0xD1A57ED600000000000000000000000000000000000000000000000000000000 DUP2 MSTORE PUSH1 0x4 ADD PUSH1 0x40 MLOAD DUP1 SWAP2 SUB SWAP1 REVERT JUMPDEST POP POP POP POP JUMP JUMPDEST PUSH1 0x60 PUSH2 0xF48 DUP3 PUSH2 0x1280 JUMP JUMPDEST PUSH2 0xF7E JUMPI PUSH1 0x40 MLOAD PUSH32 0xA14C4B5000000000000000000000000000000000000000000000000000000000 DUP2 MSTORE PUSH1 0x4 ADD PUSH1 0x40 MLOAD DUP1 SWAP2 SUB SWAP1 REVERT JUMPDEST PUSH1 0x0 PUSH2 0xF88 PUSH2 0x1D39 JUMP JUMPDEST SWAP1 POP PUSH1 0x0 DUP2 MLOAD EQ ISZERO PUSH2 0xFA9 JUMPI PUSH1 0x40 MLOAD DUP1 PUSH1 0x20 ADD PUSH1 0x40 MSTORE DUP1 PUSH1 0x0 DUP2 MSTORE POP PUSH2 0xFD4 JUMP JUMPDEST DUP1 PUSH2 0xFB3 DUP5 PUSH2 0x1DCB JUMP JUMPDEST PUSH1 0x40 MLOAD PUSH1 0x20 ADD PUSH2 0xFC4 SWAP3 SWAP2 SWAP1 PUSH2 0x2B3C JUMP JUMPDEST PUSH1 0x40 MLOAD PUSH1 0x20 DUP2 DUP4 SUB SUB DUP2 MSTORE SWAP1 PUSH1 0x40 MSTORE JUMPDEST SWAP2 POP POP SWAP2 SWAP1 POP JUMP JUMPDEST PUSH2 0xFE4 PUSH2 0x1202 JUMP JUMPDEST PUSH1 0x0 PUSH2 0xFEE PUSH2 0x96B JUMP JUMPDEST SWAP1 POP PUSH32 0x0 DUP3 DUP3 PUSH2 0x101D SWAP2 SWAP1 PUSH2 0x2D89 JUMP JUMPDEST GT ISZERO PUSH2 0x105E JUMPI PUSH1 0x40 MLOAD PUSH32 0x8C379A000000000000000000000000000000000000000000000000000000000 DUP2 MSTORE PUSH1 0x4 ADD PUSH2 0x1055 SWAP1 PUSH2 0x2C24 JUMP JUMPDEST PUSH1 0x40 MLOAD DUP1 SWAP2 SUB SWAP1 REVERT JUMPDEST PUSH2 0x1068 DUP4 DUP4 PUSH2 0x1B98 JUMP JUMPDEST POP POP POP JUMP JUMPDEST PUSH1 0x0 PUSH1 0x7 PUSH1 0x0 DUP5 PUSH20 0xFFFFFFFFFFFFFFFFFFFFFFFFFFFFFFFFFFFFFFFF AND PUSH20 0xFFFFFFFFFFFFFFFFFFFFFFFFFFFFFFFFFFFFFFFF AND DUP2 MSTORE PUSH1 0x20 ADD SWAP1 DUP2 MSTORE PUSH1 0x20 ADD PUSH1 0x0 KECCAK256 PUSH1 0x0 DUP4 PUSH20 0xFFFFFFFFFFFFFFFFFFFFFFFFFFFFFFFFFFFFFFFF AND PUSH20 0xFFFFFFFFFFFFFFFFFFFFFFFFFFFFFFFFFFFFFFFF AND DUP2 MSTORE PUSH1 0x20 ADD SWAP1 DUP2 MSTORE PUSH1 0x20 ADD PUSH1 0x0 KECCAK256 PUSH1 0x0 SWAP1 SLOAD SWAP1 PUSH2 0x100 EXP SWAP1 DIV PUSH1 0xFF AND SWAP1 POP SWAP3 SWAP2 POP POP JUMP JUMPDEST PUSH1 0x8 PUSH1 0x14 SWAP1 SLOAD SWAP1 PUSH2 0x100 EXP SWAP1 DIV PUSH1 0xFF AND DUP2 JUMP JUMPDEST PUSH2 0x111C PUSH2 0x1202 JUMP JUMPDEST PUSH1 0x0 PUSH20 0xFFFFFFFFFFFFFFFFFFFFFFFFFFFFFFFFFFFFFFFF AND DUP2 PUSH20 0xFFFFFFFFFFFFFFFFFFFFFFFFFFFFFFFFFFFFFFFF AND EQ ISZERO PUSH2 0x118C JUMPI PUSH1 0x40 MLOAD PUSH32 0x8C379A000000000000000000000000000000000000000000000000000000000 DUP2 MSTORE PUSH1 0x4 ADD PUSH2 0x1183 SWAP1 PUSH2 0x2C04 JUMP JUMPDEST PUSH1 0x40 MLOAD DUP1 SWAP2 SUB SWAP1 REVERT JUMPDEST PUSH2 0x1195 DUP2 PUSH2 0x1AD2 JUMP JUMPDEST POP JUMP JUMPDEST PUSH1 0x0 PUSH32 0x1FFC9A700000000000000000000000000000000000000000000000000000000 PUSH28 0xFFFFFFFFFFFFFFFFFFFFFFFFFFFFFFFFFFFFFFFFFFFFFFFFFFFFFFFF NOT AND DUP3 PUSH28 0xFFFFFFFFFFFFFFFFFFFFFFFFFFFFFFFFFFFFFFFFFFFFFFFFFFFFFFFF NOT AND EQ SWAP1 POP SWAP2 SWAP1 POP JUMP JUMPDEST PUSH2 0x120A PUSH2 0x12CE JUMP JUMPDEST PUSH20 0xFFFFFFFFFFFFFFFFFFFFFFFFFFFFFFFFFFFFFFFF AND PUSH2 0x1228 PUSH2 0xB61 JUMP JUMPDEST PUSH20 0xFFFFFFFFFFFFFFFFFFFFFFFFFFFFFFFFFFFFFFFF AND EQ PUSH2 0x127E JUMPI PUSH1 0x40 MLOAD PUSH32 0x8C379A000000000000000000000000000000000000000000000000000000000 DUP2 MSTORE PUSH1 0x4 ADD PUSH2 0x1275 SWAP1 PUSH2 0x2C64 JUMP JUMPDEST PUSH1 0x40 MLOAD DUP1 SWAP2 SUB SWAP1 REVERT JUMPDEST JUMP JUMPDEST PUSH1 0x0 DUP2 PUSH2 0x128B PUSH2 0x1388 JUMP JUMPDEST GT ISZERO DUP1 ISZERO PUSH2 0x129A JUMPI POP PUSH1 0x0 SLOAD DUP3 LT JUMPDEST DUP1 ISZERO PUSH2 0x12C7 JUMPI POP PUSH1 0x4 PUSH1 0x0 DUP4 DUP2 MSTORE PUSH1 0x20 ADD SWAP1 DUP2 MSTORE PUSH1 0x20 ADD PUSH1 0x0 KECCAK256 PUSH1 0x0 ADD PUSH1 0x1C SWAP1 SLOAD SWAP1 PUSH2 0x100 EXP SWAP1 DIV PUSH1 0xFF AND ISZERO JUMPDEST SWAP1 POP SWAP2 SWAP1 POP JUMP JUMPDEST PUSH1 0x0 CALLER SWAP1 POP SWAP1 JUMP JUMPDEST DUP3 PUSH1 0x6 PUSH1 0x0 DUP5 DUP2 MSTORE PUSH1 0x20 ADD SWAP1 DUP2 MSTORE PUSH1 0x20 ADD PUSH1 0x0 KECCAK256 PUSH1 0x0 PUSH2 0x100 EXP DUP2 SLOAD DUP2 PUSH20 0xFFFFFFFFFFFFFFFFFFFFFFFFFFFFFFFFFFFFFFFF MUL NOT AND SWAP1 DUP4 PUSH20 0xFFFFFFFFFFFFFFFFFFFFFFFFFFFFFFFFFFFFFFFF AND MUL OR SWAP1 SSTORE POP DUP2 DUP4 PUSH20 0xFFFFFFFFFFFFFFFFFFFFFFFFFFFFFFFFFFFFFFFF AND DUP3 PUSH20 0xFFFFFFFFFFFFFFFFFFFFFFFFFFFFFFFFFFFFFFFF AND PUSH32 0x8C5BE1E5EBEC7D5BD14F71427D1E84F3DD0314C0F7B2291E5B200AC8C7C3B925 PUSH1 0x40 MLOAD PUSH1 0x40 MLOAD DUP1 SWAP2 SUB SWAP1 LOG4 POP POP POP JUMP JUMPDEST PUSH1 0x0 SWAP1 JUMP JUMPDEST PUSH1 0x0 PUSH2 0x1398 DUP3 PUSH2 0x1843 JUMP JUMPDEST SWAP1 POP DUP4 PUSH20 0xFFFFFFFFFFFFFFFFFFFFFFFFFFFFFFFFFFFFFFFF AND DUP2 PUSH1 0x0 ADD MLOAD PUSH20 0xFFFFFFFFFFFFFFFFFFFFFFFFFFFFFFFFFFFFFFFF AND EQ PUSH2 0x1403 JUMPI PUSH1 0x40 MLOAD PUSH32 0xA114810000000000000000000000000000000000000000000000000000000000 DUP2 MSTORE PUSH1 0x4 ADD PUSH1 0x40 MLOAD DUP1 SWAP2 SUB SWAP1 REVERT JUMPDEST PUSH1 0x0 DUP5 PUSH20 0xFFFFFFFFFFFFFFFFFFFFFFFFFFFFFFFFFFFFFFFF AND PUSH2 0x1424 PUSH2 0x12CE JUMP JUMPDEST PUSH20 0xFFFFFFFFFFFFFFFFFFFFFFFFFFFFFFFFFFFFFFFF AND EQ DUP1 PUSH2 0x1453 JUMPI POP PUSH2 0x1452 DUP6 PUSH2 0x144D PUSH2 0x12CE JUMP JUMPDEST PUSH2 0x106D JUMP JUMPDEST JUMPDEST DUP1 PUSH2 0x1498 JUMPI POP PUSH2 0x1461 PUSH2 0x12CE JUMP JUMPDEST PUSH20 0xFFFFFFFFFFFFFFFFFFFFFFFFFFFFFFFFFFFFFFFF AND PUSH2 0x1480 DUP5 PUSH2 0x7E4 JUMP JUMPDEST PUSH20 0xFFFFFFFFFFFFFFFFFFFFFFFFFFFFFFFFFFFFFFFF AND EQ JUMPDEST SWAP1 POP DUP1 PUSH2 0x14D1 JUMPI PUSH1 0x40 MLOAD PUSH32 0x59C896BE00000000000000000000000000000000000000000000000000000000 DUP2 MSTORE PUSH1 0x4 ADD PUSH1 0x40 MLOAD DUP1 SWAP2 SUB SWAP1 REVERT JUMPDEST PUSH1 0x0 PUSH20 0xFFFFFFFFFFFFFFFFFFFFFFFFFFFFFFFFFFFFFFFF AND DUP5 PUSH20 0xFFFFFFFFFFFFFFFFFFFFFFFFFFFFFFFFFFFFFFFF AND EQ ISZERO PUSH2 0x1538 JUMPI PUSH1 0x40 MLOAD PUSH32 0xEA553B3400000000000000000000000000000000000000000000000000000000 DUP2 MSTORE PUSH1 0x4 ADD PUSH1 0x40 MLOAD DUP1 SWAP2 SUB SWAP1 REVERT JUMPDEST PUSH2 0x1545 DUP6 DUP6 DUP6 PUSH1 0x1 PUSH2 0x1EEF JUMP JUMPDEST PUSH2 0x1551 PUSH1 0x0 DUP5 DUP8 PUSH2 0x12D6 JUMP JUMPDEST PUSH1 0x1 PUSH1 0x5 PUSH1 0x0 DUP8 PUSH20 0xFFFFFFFFFFFFFFFFFFFFFFFFFFFFFFFFFFFFFFFF AND PUSH20 0xFFFFFFFFFFFFFFFFFFFFFFFFFFFFFFFFFFFFFFFF AND DUP2 MSTORE PUSH1 0x20 ADD SWAP1 DUP2 MSTORE PUSH1 0x20 ADD PUSH1 0x0 KECCAK256 PUSH1 0x0 ADD PUSH1 0x0 DUP3 DUP3 DUP3 SWAP1 SLOAD SWAP1 PUSH2 0x100 EXP SWAP1 DIV PUSH8 0xFFFFFFFFFFFFFFFF AND SUB SWAP3 POP PUSH2 0x100 EXP DUP2 SLOAD DUP2 PUSH8 0xFFFFFFFFFFFFFFFF MUL NOT AND SWAP1 DUP4 PUSH8 0xFFFFFFFFFFFFFFFF AND MUL OR SWAP1 SSTORE POP PUSH1 0x1 PUSH1 0x5 PUSH1 0x0 DUP7 PUSH20 0xFFFFFFFFFFFFFFFFFFFFFFFFFFFFFFFFFFFFFFFF AND PUSH20 0xFFFFFFFFFFFFFFFFFFFFFFFFFFFFFFFFFFFFFFFF AND DUP2 MSTORE PUSH1 0x20 ADD SWAP1 DUP2 MSTORE PUSH1 0x20 ADD PUSH1 0x0 KECCAK256 PUSH1 0x0 ADD PUSH1 0x0 DUP3 DUP3 DUP3 SWAP1 SLOAD SWAP1 PUSH2 0x100 EXP SWAP1 DIV PUSH8 0xFFFFFFFFFFFFFFFF AND ADD SWAP3 POP PUSH2 0x100 EXP DUP2 SLOAD DUP2 PUSH8 0xFFFFFFFFFFFFFFFF MUL NOT AND SWAP1 DUP4 PUSH8 0xFFFFFFFFFFFFFFFF AND MUL OR SWAP1 SSTORE POP PUSH1 0x0 PUSH1 0x4 PUSH1 0x0 DUP6 DUP2 MSTORE PUSH1 0x20 ADD SWAP1 DUP2 MSTORE PUSH1 0x20 ADD PUSH1 0x0 KECCAK256 SWAP1 POP DUP5 DUP2 PUSH1 0x0 ADD PUSH1 0x0 PUSH2 0x100 EXP DUP2 SLOAD DUP2 PUSH20 0xFFFFFFFFFFFFFFFFFFFFFFFFFFFFFFFFFFFFFFFF MUL NOT AND SWAP1 DUP4 PUSH20 0xFFFFFFFFFFFFFFFFFFFFFFFFFFFFFFFFFFFFFFFF AND MUL OR SWAP1 SSTORE POP TIMESTAMP DUP2 PUSH1 0x0 ADD PUSH1 0x14 PUSH2 0x100 EXP DUP2 SLOAD DUP2 PUSH8 0xFFFFFFFFFFFFFFFF MUL NOT AND SWAP1 DUP4 PUSH8 0xFFFFFFFFFFFFFFFF AND MUL OR SWAP1 SSTORE POP PUSH1 0x0 PUSH1 0x1 DUP6 ADD SWAP1 POP PUSH1 0x0 PUSH1 0x4 PUSH1 0x0 DUP4 DUP2 MSTORE PUSH1 0x20 ADD SWAP1 DUP2 MSTORE PUSH1 0x20 ADD PUSH1 0x0 KECCAK256 SWAP1 POP PUSH1 0x0 PUSH20 0xFFFFFFFFFFFFFFFFFFFFFFFFFFFFFFFFFFFFFFFF AND DUP2 PUSH1 0x0 ADD PUSH1 0x0 SWAP1 SLOAD SWAP1 PUSH2 0x100 EXP SWAP1 DIV PUSH20 0xFFFFFFFFFFFFFFFFFFFFFFFFFFFFFFFFFFFFFFFF AND PUSH20 0xFFFFFFFFFFFFFFFFFFFFFFFFFFFFFFFFFFFFFFFF AND EQ ISZERO PUSH2 0x17D1 JUMPI PUSH1 0x0 SLOAD DUP3 EQ PUSH2 0x17D0 JUMPI DUP8 DUP2 PUSH1 0x0 ADD PUSH1 0x0 PUSH2 0x100 EXP DUP2 SLOAD DUP2 PUSH20 0xFFFFFFFFFFFFFFFFFFFFFFFFFFFFFFFFFFFFFFFF MUL NOT AND SWAP1 DUP4 PUSH20 0xFFFFFFFFFFFFFFFFFFFFFFFFFFFFFFFFFFFFFFFF AND MUL OR SWAP1 SSTORE POP DUP5 PUSH1 0x20 ADD MLOAD DUP2 PUSH1 0x0 ADD PUSH1 0x14 PUSH2 0x100 EXP DUP2 SLOAD DUP2 PUSH8 0xFFFFFFFFFFFFFFFF MUL NOT AND SWAP1 DUP4 PUSH8 0xFFFFFFFFFFFFFFFF AND MUL OR SWAP1 SSTORE POP JUMPDEST JUMPDEST POP POP POP DUP3 DUP5 PUSH20 0xFFFFFFFFFFFFFFFFFFFFFFFFFFFFFFFFFFFFFFFF AND DUP7 PUSH20 0xFFFFFFFFFFFFFFFFFFFFFFFFFFFFFFFFFFFFFFFF AND PUSH32 0xDDF252AD1BE2C89B69C2B068FC378DAA952BA7F163C4A11628F55A4DF523B3EF PUSH1 0x40 MLOAD PUSH1 0x40 MLOAD DUP1 SWAP2 SUB SWAP1 LOG4 PUSH2 0x183C DUP6 DUP6 DUP6 PUSH1 0x1 PUSH2 0x1EF5 JUMP JUMPDEST POP POP POP POP POP JUMP JUMPDEST PUSH2 0x184B PUSH2 0x2598 JUMP JUMPDEST PUSH1 0x0 DUP3 SWAP1 POP DUP1 PUSH2 0x1859 PUSH2 0x1388 JUMP JUMPDEST GT ISZERO DUP1 ISZERO PUSH2 0x1868 JUMPI POP PUSH1 0x0 SLOAD DUP2 LT JUMPDEST ISZERO PUSH2 0x1A9B JUMPI PUSH1 0x0 PUSH1 0x4 PUSH1 0x0 DUP4 DUP2 MSTORE PUSH1 0x20 ADD SWAP1 DUP2 MSTORE PUSH1 0x20 ADD PUSH1 0x0 KECCAK256 PUSH1 0x40 MLOAD DUP1 PUSH1 0x60 ADD PUSH1 0x40 MSTORE SWAP1 DUP2 PUSH1 0x0 DUP3 ADD PUSH1 0x0 SWAP1 SLOAD SWAP1 PUSH2 0x100 EXP SWAP1 DIV PUSH20 0xFFFFFFFFFFFFFFFFFFFFFFFFFFFFFFFFFFFFFFFF AND PUSH20 0xFFFFFFFFFFFFFFFFFFFFFFFFFFFFFFFFFFFFFFFF AND PUSH20 0xFFFFFFFFFFFFFFFFFFFFFFFFFFFFFFFFFFFFFFFF AND DUP2 MSTORE PUSH1 0x20 ADD PUSH1 0x0 DUP3 ADD PUSH1 0x14 SWAP1 SLOAD SWAP1 PUSH2 0x100 EXP SWAP1 DIV PUSH8 0xFFFFFFFFFFFFFFFF AND PUSH8 0xFFFFFFFFFFFFFFFF AND PUSH8 0xFFFFFFFFFFFFFFFF AND DUP2 MSTORE PUSH1 0x20 ADD PUSH1 0x0 DUP3 ADD PUSH1 0x1C SWAP1 SLOAD SWAP1 PUSH2 0x100 EXP SWAP1 DIV PUSH1 0xFF AND ISZERO ISZERO ISZERO ISZERO DUP2 MSTORE POP POP SWAP1 POP DUP1 PUSH1 0x40 ADD MLOAD PUSH2 0x1A99 JUMPI PUSH1 0x0 PUSH20 0xFFFFFFFFFFFFFFFFFFFFFFFFFFFFFFFFFFFFFFFF AND DUP2 PUSH1 0x0 ADD MLOAD PUSH20 0xFFFFFFFFFFFFFFFFFFFFFFFFFFFFFFFFFFFFFFFF AND EQ PUSH2 0x197D JUMPI DUP1 SWAP3 POP POP POP PUSH2 0x1ACD JUMP JUMPDEST JUMPDEST PUSH1 0x1 ISZERO PUSH2 0x1A98 JUMPI DUP2 DUP1 PUSH1 0x1 SWAP1 SUB SWAP3 POP POP PUSH1 0x4 PUSH1 0x0 DUP4 DUP2 MSTORE PUSH1 0x20 ADD SWAP1 DUP2 MSTORE PUSH1 0x20 ADD PUSH1 0x0 KECCAK256 PUSH1 0x40 MLOAD DUP1 PUSH1 0x60 ADD PUSH1 0x40 MSTORE SWAP1 DUP2 PUSH1 0x0 DUP3 ADD PUSH1 0x0 SWAP1 SLOAD SWAP1 PUSH2 0x100 EXP SWAP1 DIV PUSH20 0xFFFFFFFFFFFFFFFFFFFFFFFFFFFFFFFFFFFFFFFF AND PUSH20 0xFFFFFFFFFFFFFFFFFFFFFFFFFFFFFFFFFFFFFFFF AND PUSH20 0xFFFFFFFFFFFFFFFFFFFFFFFFFFFFFFFFFFFFFFFF AND DUP2 MSTORE PUSH1 0x20 ADD PUSH1 0x0 DUP3 ADD PUSH1 0x14 SWAP1 SLOAD SWAP1 PUSH2 0x100 EXP SWAP1 DIV PUSH8 0xFFFFFFFFFFFFFFFF AND PUSH8 0xFFFFFFFFFFFFFFFF AND PUSH8 0xFFFFFFFFFFFFFFFF AND DUP2 MSTORE PUSH1 0x20 ADD PUSH1 0x0 DUP3 ADD PUSH1 0x1C SWAP1 SLOAD SWAP1 PUSH2 0x100 EXP SWAP1 DIV PUSH1 0xFF AND ISZERO ISZERO ISZERO ISZERO DUP2 MSTORE POP POP SWAP1 POP PUSH1 0x0 PUSH20 0xFFFFFFFFFFFFFFFFFFFFFFFFFFFFFFFFFFFFFFFF AND DUP2 PUSH1 0x0 ADD MLOAD PUSH20 0xFFFFFFFFFFFFFFFFFFFFFFFFFFFFFFFFFFFFFFFF AND EQ PUSH2 0x1A93 JUMPI DUP1 SWAP3 POP POP POP PUSH2 0x1ACD JUMP JUMPDEST PUSH2 0x197E JUMP JUMPDEST JUMPDEST POP JUMPDEST PUSH1 0x40 MLOAD PUSH32 0xDF2D9B4200000000000000000000000000000000000000000000000000000000 DUP2 MSTORE PUSH1 0x4 ADD PUSH1 0x40 MLOAD DUP1 SWAP2 SUB SWAP1 REVERT JUMPDEST SWAP2 SWAP1 POP JUMP JUMPDEST PUSH1 0x0 PUSH1 0x8 PUSH1 0x0 SWAP1 SLOAD SWAP1 PUSH2 0x100 EXP SWAP1 DIV PUSH20 0xFFFFFFFFFFFFFFFFFFFFFFFFFFFFFFFFFFFFFFFF AND SWAP1 POP DUP2 PUSH1 0x8 PUSH1 0x0 PUSH2 0x100 EXP DUP2 SLOAD DUP2 PUSH20 0xFFFFFFFFFFFFFFFFFFFFFFFFFFFFFFFFFFFFFFFF MUL NOT AND SWAP1 DUP4 PUSH20 0xFFFFFFFFFFFFFFFFFFFFFFFFFFFFFFFFFFFFFFFF AND MUL OR SWAP1 SSTORE POP DUP2 PUSH20 0xFFFFFFFFFFFFFFFFFFFFFFFFFFFFFFFFFFFFFFFF AND DUP2 PUSH20 0xFFFFFFFFFFFFFFFFFFFFFFFFFFFFFFFFFFFFFFFF AND PUSH32 0x8BE0079C531659141344CD1FD0A4F28419497F9722A3DAAFE3B4186F6B6457E0 PUSH1 0x40 MLOAD PUSH1 0x40 MLOAD DUP1 SWAP2 SUB SWAP1 LOG3 POP POP JUMP JUMPDEST PUSH2 0x1BB2 DUP3 DUP3 PUSH1 0x40 MLOAD DUP1 PUSH1 0x20 ADD PUSH1 0x40 MSTORE DUP1 PUSH1 0x0 DUP2 MSTORE POP PUSH2 0x1EFB JUMP JUMPDEST POP POP JUMP JUMPDEST PUSH1 0x0 DUP1 DUP3 PUSH20 0xFFFFFFFFFFFFFFFFFFFFFFFFFFFFFFFFFFFFFFFF AND EXTCODESIZE GT SWAP1 POP SWAP2 SWAP1 POP JUMP JUMPDEST PUSH1 0x0 DUP4 PUSH20 0xFFFFFFFFFFFFFFFFFFFFFFFFFFFFFFFFFFFFFFFF AND PUSH4 0x150B7A02 PUSH2 0x1BFF PUSH2 0x12CE JUMP JUMPDEST DUP8 DUP7 DUP7 PUSH1 0x40 MLOAD DUP6 PUSH4 0xFFFFFFFF AND PUSH1 0xE0 SHL DUP2 MSTORE PUSH1 0x4 ADD PUSH2 0x1C21 SWAP5 SWAP4 SWAP3 SWAP2 SWAP1 PUSH2 0x2B7B JUMP JUMPDEST PUSH1 0x20 PUSH1 0x40 MLOAD DUP1 DUP4 SUB DUP2 PUSH1 0x0 DUP8 DUP1 EXTCODESIZE ISZERO DUP1 ISZERO PUSH2 0x1C3B JUMPI PUSH1 0x0 DUP1 REVERT JUMPDEST POP GAS CALL SWAP3 POP POP POP DUP1 ISZERO PUSH2 0x1C6C JUMPI POP PUSH1 0x40 MLOAD RETURNDATASIZE PUSH1 0x1F NOT PUSH1 0x1F DUP3 ADD AND DUP3 ADD DUP1 PUSH1 0x40 MSTORE POP DUP2 ADD SWAP1 PUSH2 0x1C69 SWAP2 SWAP1 PUSH2 0x292A JUMP JUMPDEST PUSH1 0x1 JUMPDEST PUSH2 0x1CE6 JUMPI RETURNDATASIZE DUP1 PUSH1 0x0 DUP2 EQ PUSH2 0x1C9C JUMPI PUSH1 0x40 MLOAD SWAP2 POP PUSH1 0x1F NOT PUSH1 0x3F RETURNDATASIZE ADD AND DUP3 ADD PUSH1 0x40 MSTORE RETURNDATASIZE DUP3 MSTORE RETURNDATASIZE PUSH1 0x0 PUSH1 0x20 DUP5 ADD RETURNDATACOPY PUSH2 0x1CA1 JUMP JUMPDEST PUSH1 0x60 SWAP2 POP JUMPDEST POP PUSH1 0x0 DUP2 MLOAD EQ ISZERO PUSH2 0x1CDE JUMPI PUSH1 0x40 MLOAD PUSH32 0xD1A57ED600000000000000000000000000000000000000000000000000000000 DUP2 MSTORE PUSH1 0x4 ADD PUSH1 0x40 MLOAD DUP1 SWAP2 SUB SWAP1 REVERT JUMPDEST DUP1 MLOAD DUP2 PUSH1 0x20 ADD REVERT JUMPDEST PUSH4 0x150B7A02 PUSH1 0xE0 SHL PUSH28 0xFFFFFFFFFFFFFFFFFFFFFFFFFFFFFFFFFFFFFFFFFFFFFFFFFFFFFFFF NOT AND DUP2 PUSH28 0xFFFFFFFFFFFFFFFFFFFFFFFFFFFFFFFFFFFFFFFFFFFFFFFFFFFFFFFF NOT AND EQ SWAP2 POP POP SWAP5 SWAP4 POP POP POP POP JUMP JUMPDEST PUSH1 0x60 PUSH1 0x9 DUP1 SLOAD PUSH2 0x1D48 SWAP1 PUSH2 0x2EEF JUMP JUMPDEST DUP1 PUSH1 0x1F ADD PUSH1 0x20 DUP1 SWAP2 DIV MUL PUSH1 0x20 ADD PUSH1 0x40 MLOAD SWAP1 DUP2 ADD PUSH1 0x40 MSTORE DUP1 SWAP3 SWAP2 SWAP1 DUP2 DUP2 MSTORE PUSH1 0x20 ADD DUP3 DUP1 SLOAD PUSH2 0x1D74 SWAP1 PUSH2 0x2EEF JUMP JUMPDEST DUP1 ISZERO PUSH2 0x1DC1 JUMPI DUP1 PUSH1 0x1F LT PUSH2 0x1D96 JUMPI PUSH2 0x100 DUP1 DUP4 SLOAD DIV MUL DUP4 MSTORE SWAP2 PUSH1 0x20 ADD SWAP2 PUSH2 0x1DC1 JUMP JUMPDEST DUP3 ADD SWAP2 SWAP1 PUSH1 0x0 MSTORE PUSH1 0x20 PUSH1 0x0 KECCAK256 SWAP1 JUMPDEST DUP2 SLOAD DUP2 MSTORE SWAP1 PUSH1 0x1 ADD SWAP1 PUSH1 0x20 ADD DUP1 DUP4 GT PUSH2 0x1DA4 JUMPI DUP3 SWAP1 SUB PUSH1 0x1F AND DUP3 ADD SWAP2 JUMPDEST POP POP POP POP POP SWAP1 POP SWAP1 JUMP JUMPDEST PUSH1 0x60 PUSH1 0x0 PUSH1 0x1 PUSH2 0x1DDA DUP5 PUSH2 0x1F0D JUMP JUMPDEST ADD SWAP1 POP PUSH1 0x0 DUP2 PUSH8 0xFFFFFFFFFFFFFFFF DUP2 GT ISZERO PUSH2 0x1E1F JUMPI PUSH32 0x4E487B7100000000000000000000000000000000000000000000000000000000 PUSH1 0x0 MSTORE PUSH1 0x41 PUSH1 0x4 MSTORE PUSH1 0x24 PUSH1 0x0 REVERT JUMPDEST PUSH1 0x40 MLOAD SWAP1 DUP1 DUP3 MSTORE DUP1 PUSH1 0x1F ADD PUSH1 0x1F NOT AND PUSH1 0x20 ADD DUP3 ADD PUSH1 0x40 MSTORE DUP1 ISZERO PUSH2 0x1E51 JUMPI DUP2 PUSH1 0x20 ADD PUSH1 0x1 DUP3 MUL DUP1 CALLDATASIZE DUP4 CALLDATACOPY DUP1 DUP3 ADD SWAP2 POP POP SWAP1 POP JUMPDEST POP SWAP1 POP PUSH1 0x0 DUP3 PUSH1 0x20 ADD DUP3 ADD SWAP1 POP JUMPDEST PUSH1 0x1 ISZERO PUSH2 0x1EE4 JUMPI DUP1 DUP1 PUSH1 0x1 SWAP1 SUB SWAP2 POP POP PUSH32 0x3031323334353637383961626364656600000000000000000000000000000000 PUSH1 0xA DUP7 MOD BYTE DUP2 MSTORE8 PUSH1 0xA DUP6 DUP2 PUSH2 0x1ECE JUMPI PUSH32 0x4E487B7100000000000000000000000000000000000000000000000000000000 PUSH1 0x0 MSTORE PUSH1 0x12 PUSH1 0x4 MSTORE PUSH1 0x24 PUSH1 0x0 REVERT JUMPDEST DIV SWAP5 POP PUSH1 0x0 DUP6 EQ ISZERO PUSH2 0x1EDF JUMPI PUSH2 0x1EE4 JUMP JUMPDEST PUSH2 0x1E5F JUMP JUMPDEST DUP2 SWAP4 POP POP POP POP SWAP2 SWAP1 POP JUMP JUMPDEST POP POP POP POP JUMP JUMPDEST POP POP POP POP JUMP JUMPDEST PUSH2 0x1F08 DUP4 DUP4 DUP4 PUSH1 0x1 PUSH2 0x2144 JUMP JUMPDEST POP POP POP JUMP JUMPDEST PUSH1 0x0 DUP1 PUSH1 0x0 SWAP1 POP PUSH27 0x184F03E93FF9F4DAA797ED6E38ED64BF6A1F010000000000000000 DUP4 LT PUSH2 0x1F91 JUMPI PUSH27 0x184F03E93FF9F4DAA797ED6E38ED64BF6A1F010000000000000000 DUP4 DUP2 PUSH2 0x1F87 JUMPI PUSH32 0x4E487B7100000000000000000000000000000000000000000000000000000000 PUSH1 0x0 MSTORE PUSH1 0x12 PUSH1 0x4 MSTORE PUSH1 0x24 PUSH1 0x0 REVERT JUMPDEST DIV SWAP3 POP PUSH1 0x40 DUP2 ADD SWAP1 POP JUMPDEST PUSH14 0x4EE2D6D415B85ACEF8100000000 DUP4 LT PUSH2 0x1FF4 JUMPI PUSH14 0x4EE2D6D415B85ACEF8100000000 DUP4 DUP2 PUSH2 0x1FEA JUMPI PUSH32 0x4E487B7100000000000000000000000000000000000000000000000000000000 PUSH1 0x0 MSTORE PUSH1 0x12 PUSH1 0x4 MSTORE PUSH1 0x24 PUSH1 0x0 REVERT JUMPDEST DIV SWAP3 POP PUSH1 0x20 DUP2 ADD SWAP1 POP JUMPDEST PUSH7 0x2386F26FC10000 DUP4 LT PUSH2 0x2049 JUMPI PUSH7 0x2386F26FC10000 DUP4 DUP2 PUSH2 0x203F JUMPI PUSH32 0x4E487B7100000000000000000000000000000000000000000000000000000000 PUSH1 0x0 MSTORE PUSH1 0x12 PUSH1 0x4 MSTORE PUSH1 0x24 PUSH1 0x0 REVERT JUMPDEST DIV SWAP3 POP PUSH1 0x10 DUP2 ADD SWAP1 POP JUMPDEST PUSH4 0x5F5E100 DUP4 LT PUSH2 0x2098 JUMPI PUSH4 0x5F5E100 DUP4 DUP2 PUSH2 0x208E JUMPI PUSH32 0x4E487B7100000000000000000000000000000000000000000000000000000000 PUSH1 0x0 MSTORE PUSH1 0x12 PUSH1 0x4 MSTORE PUSH1 0x24 PUSH1 0x0 REVERT JUMPDEST DIV SWAP3 POP PUSH1 0x8 DUP2 ADD SWAP1 POP JUMPDEST PUSH2 0x2710 DUP4 LT PUSH2 0x20E3 JUMPI PUSH2 0x2710 DUP4 DUP2 PUSH2 0x20D9 JUMPI PUSH32 0x4E487B7100000000000000000000000000000000000000000000000000000000 PUSH1 0x0 MSTORE PUSH1 0x12 PUSH1 0x4 MSTORE PUSH1 0x24 PUSH1 0x0 REVERT JUMPDEST DIV SWAP3 POP PUSH1 0x4 DUP2 ADD SWAP1 POP JUMPDEST PUSH1 0x64 DUP4 LT PUSH2 0x212C JUMPI PUSH1 0x64 DUP4 DUP2 PUSH2 0x2122 JUMPI PUSH32 0x4E487B7100000000000000000000000000000000000000000000000000000000 PUSH1 0x0 MSTORE PUSH1 0x12 PUSH1 0x4 MSTORE PUSH1 0x24 PUSH1 0x0 REVERT JUMPDEST DIV SWAP3 POP PUSH1 0x2 DUP2 ADD SWAP1 POP JUMPDEST PUSH1 0xA DUP4 LT PUSH2 0x213B JUMPI PUSH1 0x1 DUP2 ADD SWAP1 POP JUMPDEST DUP1 SWAP2 POP POP SWAP2 SWAP1 POP JUMP JUMPDEST PUSH1 0x0 DUP1 SLOAD SWAP1 POP PUSH1 0x0 PUSH20 0xFFFFFFFFFFFFFFFFFFFFFFFFFFFFFFFFFFFFFFFF AND DUP6 PUSH20 0xFFFFFFFFFFFFFFFFFFFFFFFFFFFFFFFFFFFFFFFF AND EQ ISZERO PUSH2 0x21B1 JUMPI PUSH1 0x40 MLOAD PUSH32 0x2E07630000000000000000000000000000000000000000000000000000000000 DUP2 MSTORE PUSH1 0x4 ADD PUSH1 0x40 MLOAD DUP1 SWAP2 SUB SWAP1 REVERT JUMPDEST PUSH1 0x0 DUP5 EQ ISZERO PUSH2 0x21EC JUMPI PUSH1 0x40 MLOAD PUSH32 0xB562E8DD00000000000000000000000000000000000000000000000000000000 DUP2 MSTORE PUSH1 0x4 ADD PUSH1 0x40 MLOAD DUP1 SWAP2 SUB SWAP1 REVERT JUMPDEST PUSH2 0x21F9 PUSH1 0x0 DUP7 DUP4 DUP8 PUSH2 0x1EEF JUMP JUMPDEST DUP4 PUSH1 0x5 PUSH1 0x0 DUP8 PUSH20 0xFFFFFFFFFFFFFFFFFFFFFFFFFFFFFFFFFFFFFFFF AND PUSH20 0xFFFFFFFFFFFFFFFFFFFFFFFFFFFFFFFFFFFFFFFF AND DUP2 MSTORE PUSH1 0x20 ADD SWAP1 DUP2 MSTORE PUSH1 0x20 ADD PUSH1 0x0 KECCAK256 PUSH1 0x0 ADD PUSH1 0x0 DUP3 DUP3 DUP3 SWAP1 SLOAD SWAP1 PUSH2 0x100 EXP SWAP1 DIV PUSH8 0xFFFFFFFFFFFFFFFF AND ADD SWAP3 POP PUSH2 0x100 EXP DUP2 SLOAD DUP2 PUSH8 0xFFFFFFFFFFFFFFFF MUL NOT AND SWAP1 DUP4 PUSH8 0xFFFFFFFFFFFFFFFF AND MUL OR SWAP1 SSTORE POP DUP4 PUSH1 0x5 PUSH1 0x0 DUP8 PUSH20 0xFFFFFFFFFFFFFFFFFFFFFFFFFFFFFFFFFFFFFFFF AND PUSH20 0xFFFFFFFFFFFFFFFFFFFFFFFFFFFFFFFFFFFFFFFF AND DUP2 MSTORE PUSH1 0x20 ADD SWAP1 DUP2 MSTORE PUSH1 0x20 ADD PUSH1 0x0 KECCAK256 PUSH1 0x0 ADD PUSH1 0x8 DUP3 DUP3 DUP3 SWAP1 SLOAD SWAP1 PUSH2 0x100 EXP SWAP1 DIV PUSH8 0xFFFFFFFFFFFFFFFF AND ADD SWAP3 POP PUSH2 0x100 EXP DUP2 SLOAD DUP2 PUSH8 0xFFFFFFFFFFFFFFFF MUL NOT AND SWAP1 DUP4 PUSH8 0xFFFFFFFFFFFFFFFF AND MUL OR SWAP1 SSTORE POP DUP5 PUSH1 0x4 PUSH1 0x0 DUP4 DUP2 MSTORE PUSH1 0x20 ADD SWAP1 DUP2 MSTORE PUSH1 0x20 ADD PUSH1 0x0 KECCAK256 PUSH1 0x0 ADD PUSH1 0x0 PUSH2 0x100 EXP DUP2 SLOAD DUP2 PUSH20 0xFFFFFFFFFFFFFFFFFFFFFFFFFFFFFFFFFFFFFFFF MUL NOT AND SWAP1 DUP4 PUSH20 0xFFFFFFFFFFFFFFFFFFFFFFFFFFFFFFFFFFFFFFFF AND MUL OR SWAP1 SSTORE POP TIMESTAMP PUSH1 0x4 PUSH1 0x0 DUP4 DUP2 MSTORE PUSH1 0x20 ADD SWAP1 DUP2 MSTORE PUSH1 0x20 ADD PUSH1 0x0 KECCAK256 PUSH1 0x0 ADD PUSH1 0x14 PUSH2 0x100 EXP DUP2 SLOAD DUP2 PUSH8 0xFFFFFFFFFFFFFFFF MUL NOT AND SWAP1 DUP4 PUSH8 0xFFFFFFFFFFFFFFFF AND MUL OR SWAP1 SSTORE POP PUSH1 0x0 DUP2 SWAP1 POP PUSH1 0x0 DUP6 DUP3 ADD SWAP1 POP DUP4 DUP1 ISZERO PUSH2 0x23C3 JUMPI POP PUSH2 0x23C2 DUP8 PUSH20 0xFFFFFFFFFFFFFFFFFFFFFFFFFFFFFFFFFFFFFFFF AND PUSH2 0x1BB6 JUMP JUMPDEST JUMPDEST ISZERO PUSH2 0x2489 JUMPI JUMPDEST DUP2 DUP8 PUSH20 0xFFFFFFFFFFFFFFFFFFFFFFFFFFFFFFFFFFFFFFFF AND PUSH1 0x0 PUSH20 0xFFFFFFFFFFFFFFFFFFFFFFFFFFFFFFFFFFFFFFFF AND PUSH32 0xDDF252AD1BE2C89B69C2B068FC378DAA952BA7F163C4A11628F55A4DF523B3EF PUSH1 0x40 MLOAD PUSH1 0x40 MLOAD DUP1 SWAP2 SUB SWAP1 LOG4 PUSH2 0x2438 PUSH1 0x0 DUP9 DUP5 DUP1 PUSH1 0x1 ADD SWAP6 POP DUP9 PUSH2 0x1BD9 JUMP JUMPDEST PUSH2 0x246E JUMPI PUSH1 0x40 MLOAD PUSH32 0xD1A57ED600000000000000000000000000000000000000000000000000000000 DUP2 MSTORE PUSH1 0x4 ADD PUSH1 0x40 MLOAD DUP1 SWAP2 SUB SWAP1 REVERT JUMPDEST DUP1 DUP3 EQ ISZERO PUSH2 0x23C9 JUMPI DUP3 PUSH1 0x0 SLOAD EQ PUSH2 0x2484 JUMPI PUSH1 0x0 DUP1 REVERT JUMPDEST PUSH2 0x24F5 JUMP JUMPDEST JUMPDEST DUP2 DUP1 PUSH1 0x1 ADD SWAP3 POP DUP8 PUSH20 0xFFFFFFFFFFFFFFFFFFFFFFFFFFFFFFFFFFFFFFFF AND PUSH1 0x0 PUSH20 0xFFFFFFFFFFFFFFFFFFFFFFFFFFFFFFFFFFFFFFFF AND PUSH32 0xDDF252AD1BE2C89B69C2B068FC378DAA952BA7F163C4A11628F55A4DF523B3EF PUSH1 0x40 MLOAD PUSH1 0x40 MLOAD DUP1 SWAP2 SUB SWAP1 LOG4 DUP1 DUP3 EQ ISZERO PUSH2 0x248A JUMPI JUMPDEST DUP2 PUSH1 0x0 DUP2 SWAP1 SSTORE POP POP POP PUSH2 0x250B PUSH1 0x0 DUP7 DUP4 DUP8 PUSH2 0x1EF5 JUMP JUMPDEST POP POP POP POP POP JUMP JUMPDEST DUP3 DUP1 SLOAD PUSH2 0x251E SWAP1 PUSH2 0x2EEF JUMP JUMPDEST SWAP1 PUSH1 0x0 MSTORE PUSH1 0x20 PUSH1 0x0 KECCAK256 SWAP1 PUSH1 0x1F ADD PUSH1 0x20 SWAP1 DIV DUP2 ADD SWAP3 DUP3 PUSH2 0x2540 JUMPI PUSH1 0x0 DUP6 SSTORE PUSH2 0x2587 JUMP JUMPDEST DUP3 PUSH1 0x1F LT PUSH2 0x2559 JUMPI DUP1 MLOAD PUSH1 0xFF NOT AND DUP4 DUP1 ADD OR DUP6 SSTORE PUSH2 0x2587 JUMP JUMPDEST DUP3 DUP1 ADD PUSH1 0x1 ADD DUP6 SSTORE DUP3 ISZERO PUSH2 0x2587 JUMPI SWAP2 DUP3 ADD JUMPDEST DUP3 DUP2 GT ISZERO PUSH2 0x2586 JUMPI DUP3 MLOAD DUP3 SSTORE SWAP2 PUSH1 0x20 ADD SWAP2 SWAP1 PUSH1 0x1 ADD SWAP1 PUSH2 0x256B JUMP JUMPDEST JUMPDEST POP SWAP1 POP PUSH2 0x2594 SWAP2 SWAP1 PUSH2 0x25DB JUMP JUMPDEST POP SWAP1 JUMP JUMPDEST PUSH1 0x40 MLOAD DUP1 PUSH1 0x60 ADD PUSH1 0x40 MSTORE DUP1 PUSH1 0x0 PUSH20 0xFFFFFFFFFFFFFFFFFFFFFFFFFFFFFFFFFFFFFFFF AND DUP2 MSTORE PUSH1 0x20 ADD PUSH1 0x0 PUSH8 0xFFFFFFFFFFFFFFFF AND DUP2 MSTORE PUSH1 0x20 ADD PUSH1 0x0 ISZERO ISZERO DUP2 MSTORE POP SWAP1 JUMP JUMPDEST JUMPDEST DUP1 DUP3 GT ISZERO PUSH2 0x25F4 JUMPI PUSH1 0x0 DUP2 PUSH1 0x0 SWAP1 SSTORE POP PUSH1 0x1 ADD PUSH2 0x25DC JUMP JUMPDEST POP SWAP1 JUMP JUMPDEST PUSH1 0x0 PUSH2 0x260B PUSH2 0x2606 DUP5 PUSH2 0x2CE4 JUMP JUMPDEST PUSH2 0x2CBF JUMP JUMPDEST SWAP1 POP DUP3 DUP2 MSTORE PUSH1 0x20 DUP2 ADD DUP5 DUP5 DUP5 ADD GT ISZERO PUSH2 0x2623 JUMPI PUSH1 0x0 DUP1 REVERT JUMPDEST PUSH2 0x262E DUP5 DUP3 DUP6 PUSH2 0x2EAD JUMP JUMPDEST POP SWAP4 SWAP3 POP POP POP JUMP JUMPDEST PUSH1 0x0 PUSH2 0x2649 PUSH2 0x2644 DUP5 PUSH2 0x2D15 JUMP JUMPDEST PUSH2 0x2CBF JUMP JUMPDEST SWAP1 POP DUP3 DUP2 MSTORE PUSH1 0x20 DUP2 ADD DUP5 DUP5 DUP5 ADD GT ISZERO PUSH2 0x2661 JUMPI PUSH1 0x0 DUP1 REVERT JUMPDEST PUSH2 0x266C DUP5 DUP3 DUP6 PUSH2 0x2EAD JUMP JUMPDEST POP SWAP4 SWAP3 POP POP POP JUMP JUMPDEST PUSH1 0x0 DUP2 CALLDATALOAD SWAP1 POP PUSH2 0x2683 DUP2 PUSH2 0x3109 JUMP JUMPDEST SWAP3 SWAP2 POP POP JUMP JUMPDEST PUSH1 0x0 DUP2 CALLDATALOAD SWAP1 POP PUSH2 0x2698 DUP2 PUSH2 0x3120 JUMP JUMPDEST SWAP3 SWAP2 POP POP JUMP JUMPDEST PUSH1 0x0 DUP2 CALLDATALOAD SWAP1 POP PUSH2 0x26AD DUP2 PUSH2 0x3137 JUMP JUMPDEST SWAP3 SWAP2 POP POP JUMP JUMPDEST PUSH1 0x0 DUP2 MLOAD SWAP1 POP PUSH2 0x26C2 DUP2 PUSH2 0x3137 JUMP JUMPDEST SWAP3 SWAP2 POP POP JUMP JUMPDEST PUSH1 0x0 DUP3 PUSH1 0x1F DUP4 ADD SLT PUSH2 0x26D9 JUMPI PUSH1 0x0 DUP1 REVERT JUMPDEST DUP2 CALLDATALOAD PUSH2 0x26E9 DUP5 DUP3 PUSH1 0x20 DUP7 ADD PUSH2 0x25F8 JUMP JUMPDEST SWAP2 POP POP SWAP3 SWAP2 POP POP JUMP JUMPDEST PUSH1 0x0 DUP3 PUSH1 0x1F DUP4 ADD SLT PUSH2 0x2703 JUMPI PUSH1 0x0 DUP1 REVERT JUMPDEST DUP2 CALLDATALOAD PUSH2 0x2713 DUP5 DUP3 PUSH1 0x20 DUP7 ADD PUSH2 0x2636 JUMP JUMPDEST SWAP2 POP POP SWAP3 SWAP2 POP POP JUMP JUMPDEST PUSH1 0x0 DUP2 CALLDATALOAD SWAP1 POP PUSH2 0x272B DUP2 PUSH2 0x314E JUMP JUMPDEST SWAP3 SWAP2 POP POP JUMP JUMPDEST PUSH1 0x0 PUSH1 0x20 DUP3 DUP5 SUB SLT ISZERO PUSH2 0x2743 JUMPI PUSH1 0x0 DUP1 REVERT JUMPDEST PUSH1 0x0 PUSH2 0x2751 DUP5 DUP3 DUP6 ADD PUSH2 0x2674 JUMP JUMPDEST SWAP2 POP POP SWAP3 SWAP2 POP POP JUMP JUMPDEST PUSH1 0x0 DUP1 PUSH1 0x40 DUP4 DUP6 SUB SLT ISZERO PUSH2 0x276D JUMPI PUSH1 0x0 DUP1 REVERT JUMPDEST PUSH1 0x0 PUSH2 0x277B DUP6 DUP3 DUP7 ADD PUSH2 0x2674 JUMP JUMPDEST SWAP3 POP POP PUSH1 0x20 PUSH2 0x278C DUP6 DUP3 DUP7 ADD PUSH2 0x2674 JUMP JUMPDEST SWAP2 POP POP SWAP3 POP SWAP3 SWAP1 POP JUMP JUMPDEST PUSH1 0x0 DUP1 PUSH1 0x0 PUSH1 0x60 DUP5 DUP7 SUB SLT ISZERO PUSH2 0x27AB JUMPI PUSH1 0x0 DUP1 REVERT JUMPDEST PUSH1 0x0 PUSH2 0x27B9 DUP7 DUP3 DUP8 ADD PUSH2 0x2674 JUMP JUMPDEST SWAP4 POP POP PUSH1 0x20 PUSH2 0x27CA DUP7 DUP3 DUP8 ADD PUSH2 0x2674 JUMP JUMPDEST SWAP3 POP POP PUSH1 0x40 PUSH2 0x27DB DUP7 DUP3 DUP8 ADD PUSH2 0x271C JUMP JUMPDEST SWAP2 POP POP SWAP3 POP SWAP3 POP SWAP3 JUMP JUMPDEST PUSH1 0x0 DUP1 PUSH1 0x0 DUP1 PUSH1 0x80 DUP6 DUP8 SUB SLT ISZERO PUSH2 0x27FB JUMPI PUSH1 0x0 DUP1 REVERT JUMPDEST PUSH1 0x0 PUSH2 0x2809 DUP8 DUP3 DUP9 ADD PUSH2 0x2674 JUMP JUMPDEST SWAP5 POP POP PUSH1 0x20 PUSH2 0x281A DUP8 DUP3 DUP9 ADD PUSH2 0x2674 JUMP JUMPDEST SWAP4 POP POP PUSH1 0x40 PUSH2 0x282B DUP8 DUP3 DUP9 ADD PUSH2 0x271C JUMP JUMPDEST SWAP3 POP POP PUSH1 0x60 DUP6 ADD CALLDATALOAD PUSH8 0xFFFFFFFFFFFFFFFF DUP2 GT ISZERO PUSH2 0x2848 JUMPI PUSH1 0x0 DUP1 REVERT JUMPDEST PUSH2 0x2854 DUP8 DUP3 DUP9 ADD PUSH2 0x26C8 JUMP JUMPDEST SWAP2 POP POP SWAP3 SWAP6 SWAP2 SWAP5 POP SWAP3 POP JUMP JUMPDEST PUSH1 0x0 DUP1 PUSH1 0x40 DUP4 DUP6 SUB SLT ISZERO PUSH2 0x2873 JUMPI PUSH1 0x0 DUP1 REVERT JUMPDEST PUSH1 0x0 PUSH2 0x2881 DUP6 DUP3 DUP7 ADD PUSH2 0x2674 JUMP JUMPDEST SWAP3 POP POP PUSH1 0x20 PUSH2 0x2892 DUP6 DUP3 DUP7 ADD PUSH2 0x2689 JUMP JUMPDEST SWAP2 POP POP SWAP3 POP SWAP3 SWAP1 POP JUMP JUMPDEST PUSH1 0x0 DUP1 PUSH1 0x40 DUP4 DUP6 SUB SLT ISZERO PUSH2 0x28AF JUMPI PUSH1 0x0 DUP1 REVERT JUMPDEST PUSH1 0x0 PUSH2 0x28BD DUP6 DUP3 DUP7 ADD PUSH2 0x2674 JUMP JUMPDEST SWAP3 POP POP PUSH1 0x20 PUSH2 0x28CE DUP6 DUP3 DUP7 ADD PUSH2 0x271C JUMP JUMPDEST SWAP2 POP POP SWAP3 POP SWAP3 SWAP1 POP JUMP JUMPDEST PUSH1 0x0 PUSH1 0x20 DUP3 DUP5 SUB SLT ISZERO PUSH2 0x28EA JUMPI PUSH1 0x0 DUP1 REVERT JUMPDEST PUSH1 0x0 PUSH2 0x28F8 DUP5 DUP3 DUP6 ADD PUSH2 0x2689 JUMP JUMPDEST SWAP2 POP POP SWAP3 SWAP2 POP POP JUMP JUMPDEST PUSH1 0x0 PUSH1 0x20 DUP3 DUP5 SUB SLT ISZERO PUSH2 0x2913 JUMPI PUSH1 0x0 DUP1 REVERT JUMPDEST PUSH1 0x0 PUSH2 0x2921 DUP5 DUP3 DUP6 ADD PUSH2 0x269E JUMP JUMPDEST SWAP2 POP POP SWAP3 SWAP2 POP POP JUMP JUMPDEST PUSH1 0x0 PUSH1 0x20 DUP3 DUP5 SUB SLT ISZERO PUSH2 0x293C JUMPI PUSH1 0x0 DUP1 REVERT JUMPDEST PUSH1 0x0 PUSH2 0x294A DUP5 DUP3 DUP6 ADD PUSH2 0x26B3 JUMP JUMPDEST SWAP2 POP POP SWAP3 SWAP2 POP POP JUMP JUMPDEST PUSH1 0x0 PUSH1 0x20 DUP3 DUP5 SUB SLT ISZERO PUSH2 0x2965 JUMPI PUSH1 0x0 DUP1 REVERT JUMPDEST PUSH1 0x0 DUP3 ADD CALLDATALOAD PUSH8 0xFFFFFFFFFFFFFFFF DUP2 GT ISZERO PUSH2 0x297F JUMPI PUSH1 0x0 DUP1 REVERT JUMPDEST PUSH2 0x298B DUP5 DUP3 DUP6 ADD PUSH2 0x26F2 JUMP JUMPDEST SWAP2 POP POP SWAP3 SWAP2 POP POP JUMP JUMPDEST PUSH1 0x0 PUSH1 0x20 DUP3 DUP5 SUB SLT ISZERO PUSH2 0x29A6 JUMPI PUSH1 0x0 DUP1 REVERT JUMPDEST PUSH1 0x0 PUSH2 0x29B4 DUP5 DUP3 DUP6 ADD PUSH2 0x271C JUMP JUMPDEST SWAP2 POP POP SWAP3 SWAP2 POP POP JUMP JUMPDEST PUSH2 0x29C6 DUP2 PUSH2 0x2E39 JUMP JUMPDEST DUP3 MSTORE POP POP JUMP JUMPDEST PUSH2 0x29D5 DUP2 PUSH2 0x2E4B JUMP JUMPDEST DUP3 MSTORE POP POP JUMP JUMPDEST PUSH1 0x0 PUSH2 0x29E6 DUP3 PUSH2 0x2D46 JUMP JUMPDEST PUSH2 0x29F0 DUP2 DUP6 PUSH2 0x2D5C JUMP JUMPDEST SWAP4 POP PUSH2 0x2A00 DUP2 DUP6 PUSH1 0x20 DUP7 ADD PUSH2 0x2EBC JUMP JUMPDEST PUSH2 0x2A09 DUP2 PUSH2 0x2FDF JUMP JUMPDEST DUP5 ADD SWAP2 POP POP SWAP3 SWAP2 POP POP JUMP JUMPDEST PUSH1 0x0 PUSH2 0x2A1F DUP3 PUSH2 0x2D51 JUMP JUMPDEST PUSH2 0x2A29 DUP2 DUP6 PUSH2 0x2D6D JUMP JUMPDEST SWAP4 POP PUSH2 0x2A39 DUP2 DUP6 PUSH1 0x20 DUP7 ADD PUSH2 0x2EBC JUMP JUMPDEST PUSH2 0x2A42 DUP2 PUSH2 0x2FDF JUMP JUMPDEST DUP5 ADD SWAP2 POP POP SWAP3 SWAP2 POP POP JUMP JUMPDEST PUSH1 0x0 PUSH2 0x2A58 DUP3 PUSH2 0x2D51 JUMP JUMPDEST PUSH2 0x2A62 DUP2 DUP6 PUSH2 0x2D7E JUMP JUMPDEST SWAP4 POP PUSH2 0x2A72 DUP2 DUP6 PUSH1 0x20 DUP7 ADD PUSH2 0x2EBC JUMP JUMPDEST DUP1 DUP5 ADD SWAP2 POP POP SWAP3 SWAP2 POP POP JUMP JUMPDEST PUSH1 0x0 PUSH2 0x2A8B PUSH1 0x26 DUP4 PUSH2 0x2D6D JUMP JUMPDEST SWAP2 POP PUSH2 0x2A96 DUP3 PUSH2 0x2FF0 JUMP JUMPDEST PUSH1 0x40 DUP3 ADD SWAP1 POP SWAP2 SWAP1 POP JUMP JUMPDEST PUSH1 0x0 PUSH2 0x2AAE PUSH1 0x20 DUP4 PUSH2 0x2D6D JUMP JUMPDEST SWAP2 POP PUSH2 0x2AB9 DUP3 PUSH2 0x303F JUMP JUMPDEST PUSH1 0x20 DUP3 ADD SWAP1 POP SWAP2 SWAP1 POP JUMP JUMPDEST PUSH1 0x0 PUSH2 0x2AD1 PUSH1 0x19 DUP4 PUSH2 0x2D6D JUMP JUMPDEST SWAP2 POP PUSH2 0x2ADC DUP3 PUSH2 0x3068 JUMP JUMPDEST PUSH1 0x20 DUP3 ADD SWAP1 POP SWAP2 SWAP1 POP JUMP JUMPDEST PUSH1 0x0 PUSH2 0x2AF4 PUSH1 0x20 DUP4 PUSH2 0x2D6D JUMP JUMPDEST SWAP2 POP PUSH2 0x2AFF DUP3 PUSH2 0x3091 JUMP JUMPDEST PUSH1 0x20 DUP3 ADD SWAP1 POP SWAP2 SWAP1 POP JUMP JUMPDEST PUSH1 0x0 PUSH2 0x2B17 PUSH1 0x22 DUP4 PUSH2 0x2D6D JUMP JUMPDEST SWAP2 POP PUSH2 0x2B22 DUP3 PUSH2 0x30BA JUMP JUMPDEST PUSH1 0x40 DUP3 ADD SWAP1 POP SWAP2 SWAP1 POP JUMP JUMPDEST PUSH2 0x2B36 DUP2 PUSH2 0x2EA3 JUMP JUMPDEST DUP3 MSTORE POP POP JUMP JUMPDEST PUSH1 0x0 PUSH2 0x2B48 DUP3 DUP6 PUSH2 0x2A4D JUMP JUMPDEST SWAP2 POP PUSH2 0x2B54 DUP3 DUP5 PUSH2 0x2A4D JUMP JUMPDEST SWAP2 POP DUP2 SWAP1 POP SWAP4 SWAP3 POP POP POP JUMP JUMPDEST PUSH1 0x0 PUSH1 0x20 DUP3 ADD SWAP1 POP PUSH2 0x2B75 PUSH1 0x0 DUP4 ADD DUP5 PUSH2 0x29BD JUMP JUMPDEST SWAP3 SWAP2 POP POP JUMP JUMPDEST PUSH1 0x0 PUSH1 0x80 DUP3 ADD SWAP1 POP PUSH2 0x2B90 PUSH1 0x0 DUP4 ADD DUP8 PUSH2 0x29BD JUMP JUMPDEST PUSH2 0x2B9D PUSH1 0x20 DUP4 ADD DUP7 PUSH2 0x29BD JUMP JUMPDEST PUSH2 0x2BAA PUSH1 0x40 DUP4 ADD DUP6 PUSH2 0x2B2D JUMP JUMPDEST DUP2 DUP2 SUB PUSH1 0x60 DUP4 ADD MSTORE PUSH2 0x2BBC DUP2 DUP5 PUSH2 0x29DB JUMP JUMPDEST SWAP1 POP SWAP6 SWAP5 POP POP POP POP POP JUMP JUMPDEST PUSH1 0x0 PUSH1 0x20 DUP3 ADD SWAP1 POP PUSH2 0x2BDC PUSH1 0x0 DUP4 ADD DUP5 PUSH2 0x29CC JUMP JUMPDEST SWAP3 SWAP2 POP POP JUMP JUMPDEST PUSH1 0x0 PUSH1 0x20 DUP3 ADD SWAP1 POP DUP2 DUP2 SUB PUSH1 0x0 DUP4 ADD MSTORE PUSH2 0x2BFC DUP2 DUP5 PUSH2 0x2A14 JUMP JUMPDEST SWAP1 POP SWAP3 SWAP2 POP POP JUMP JUMPDEST PUSH1 0x0 PUSH1 0x20 DUP3 ADD SWAP1 POP DUP2 DUP2 SUB PUSH1 0x0 DUP4 ADD MSTORE PUSH2 0x2C1D DUP2 PUSH2 0x2A7E JUMP JUMPDEST SWAP1 POP SWAP2 SWAP1 POP JUMP JUMPDEST PUSH1 0x0 PUSH1 0x20 DUP3 ADD SWAP1 POP DUP2 DUP2 SUB PUSH1 0x0 DUP4 ADD MSTORE PUSH2 0x2C3D DUP2 PUSH2 0x2AA1 JUMP JUMPDEST SWAP1 POP SWAP2 SWAP1 POP JUMP JUMPDEST PUSH1 0x0 PUSH1 0x20 DUP3 ADD SWAP1 POP DUP2 DUP2 SUB PUSH1 0x0 DUP4 ADD MSTORE PUSH2 0x2C5D DUP2 PUSH2 0x2AC4 JUMP JUMPDEST SWAP1 POP SWAP2 SWAP1 POP JUMP JUMPDEST PUSH1 0x0 PUSH1 0x20 DUP3 ADD SWAP1 POP DUP2 DUP2 SUB PUSH1 0x0 DUP4 ADD MSTORE PUSH2 0x2C7D DUP2 PUSH2 0x2AE7 JUMP JUMPDEST SWAP1 POP SWAP2 SWAP1 POP JUMP JUMPDEST PUSH1 0x0 PUSH1 0x20 DUP3 ADD SWAP1 POP DUP2 DUP2 SUB PUSH1 0x0 DUP4 ADD MSTORE PUSH2 0x2C9D DUP2 PUSH2 0x2B0A JUMP JUMPDEST SWAP1 POP SWAP2 SWAP1 POP JUMP JUMPDEST PUSH1 0x0 PUSH1 0x20 DUP3 ADD SWAP1 POP PUSH2 0x2CB9 PUSH1 0x0 DUP4 ADD DUP5 PUSH2 0x2B2D JUMP JUMPDEST SWAP3 SWAP2 POP POP JUMP JUMPDEST PUSH1 0x0 PUSH2 0x2CC9 PUSH2 0x2CDA JUMP JUMPDEST SWAP1 POP PUSH2 0x2CD5 DUP3 DUP3 PUSH2 0x2F21 JUMP JUMPDEST SWAP2 SWAP1 POP JUMP JUMPDEST PUSH1 0x0 PUSH1 0x40 MLOAD SWAP1 POP SWAP1 JUMP JUMPDEST PUSH1 0x0 PUSH8 0xFFFFFFFFFFFFFFFF DUP3 GT ISZERO PUSH2 0x2CFF JUMPI PUSH2 0x2CFE PUSH2 0x2FB0 JUMP JUMPDEST JUMPDEST PUSH2 0x2D08 DUP3 PUSH2 0x2FDF JUMP JUMPDEST SWAP1 POP PUSH1 0x20 DUP2 ADD SWAP1 POP SWAP2 SWAP1 POP JUMP JUMPDEST PUSH1 0x0 PUSH8 0xFFFFFFFFFFFFFFFF DUP3 GT ISZERO PUSH2 0x2D30 JUMPI PUSH2 0x2D2F PUSH2 0x2FB0 JUMP JUMPDEST JUMPDEST PUSH2 0x2D39 DUP3 PUSH2 0x2FDF JUMP JUMPDEST SWAP1 POP PUSH1 0x20 DUP2 ADD SWAP1 POP SWAP2 SWAP1 POP JUMP JUMPDEST PUSH1 0x0 DUP2 MLOAD SWAP1 POP SWAP2 SWAP1 POP JUMP JUMPDEST PUSH1 0x0 DUP2 MLOAD SWAP1 POP SWAP2 SWAP1 POP JUMP JUMPDEST PUSH1 0x0 DUP3 DUP3 MSTORE PUSH1 0x20 DUP3 ADD SWAP1 POP SWAP3 SWAP2 POP POP JUMP JUMPDEST PUSH1 0x0 DUP3 DUP3 MSTORE PUSH1 0x20 DUP3 ADD SWAP1 POP SWAP3 SWAP2 POP POP JUMP JUMPDEST PUSH1 0x0 DUP2 SWAP1 POP SWAP3 SWAP2 POP POP JUMP JUMPDEST PUSH1 0x0 PUSH2 0x2D94 DUP3 PUSH2 0x2EA3 JUMP JUMPDEST SWAP2 POP PUSH2 0x2D9F DUP4 PUSH2 0x2EA3 JUMP JUMPDEST SWAP3 POP DUP3 PUSH32 0xFFFFFFFFFFFFFFFFFFFFFFFFFFFFFFFFFFFFFFFFFFFFFFFFFFFFFFFFFFFFFFFF SUB DUP3 GT ISZERO PUSH2 0x2DD4 JUMPI PUSH2 0x2DD3 PUSH2 0x2F52 JUMP JUMPDEST JUMPDEST DUP3 DUP3 ADD SWAP1 POP SWAP3 SWAP2 POP POP JUMP JUMPDEST PUSH1 0x0 PUSH2 0x2DEA DUP3 PUSH2 0x2EA3 JUMP JUMPDEST SWAP2 POP PUSH2 0x2DF5 DUP4 PUSH2 0x2EA3 JUMP JUMPDEST SWAP3 POP DUP2 PUSH32 0xFFFFFFFFFFFFFFFFFFFFFFFFFFFFFFFFFFFFFFFFFFFFFFFFFFFFFFFFFFFFFFFF DIV DUP4 GT DUP3 ISZERO ISZERO AND ISZERO PUSH2 0x2E2E JUMPI PUSH2 0x2E2D PUSH2 0x2F52 JUMP JUMPDEST JUMPDEST DUP3 DUP3 MUL SWAP1 POP SWAP3 SWAP2 POP POP JUMP JUMPDEST PUSH1 0x0 PUSH2 0x2E44 DUP3 PUSH2 0x2E83 JUMP JUMPDEST SWAP1 POP SWAP2 SWAP1 POP JUMP JUMPDEST PUSH1 0x0 DUP2 ISZERO ISZERO SWAP1 POP SWAP2 SWAP1 POP JUMP JUMPDEST PUSH1 0x0 PUSH32 0xFFFFFFFF00000000000000000000000000000000000000000000000000000000 DUP3 AND SWAP1 POP SWAP2 SWAP1 POP JUMP JUMPDEST PUSH1 0x0 PUSH20 0xFFFFFFFFFFFFFFFFFFFFFFFFFFFFFFFFFFFFFFFF DUP3 AND SWAP1 POP SWAP2 SWAP1 POP JUMP JUMPDEST PUSH1 0x0 DUP2 SWAP1 POP SWAP2 SWAP1 POP JUMP JUMPDEST DUP3 DUP2 DUP4 CALLDATACOPY PUSH1 0x0 DUP4 DUP4 ADD MSTORE POP POP POP JUMP JUMPDEST PUSH1 0x0 JUMPDEST DUP4 DUP2 LT ISZERO PUSH2 0x2EDA JUMPI DUP1 DUP3 ADD MLOAD DUP2 DUP5 ADD MSTORE PUSH1 0x20 DUP2 ADD SWAP1 POP PUSH2 0x2EBF JUMP JUMPDEST DUP4 DUP2 GT ISZERO PUSH2 0x2EE9 JUMPI PUSH1 0x0 DUP5 DUP5 ADD MSTORE JUMPDEST POP POP POP POP JUMP JUMPDEST PUSH1 0x0 PUSH1 0x2 DUP3 DIV SWAP1 POP PUSH1 0x1 DUP3 AND DUP1 PUSH2 0x2F07 JUMPI PUSH1 0x7F DUP3 AND SWAP2 POP JUMPDEST PUSH1 0x20 DUP3 LT DUP2 EQ ISZERO PUSH2 0x2F1B JUMPI PUSH2 0x2F1A PUSH2 0x2F81 JUMP JUMPDEST JUMPDEST POP SWAP2 SWAP1 POP JUMP JUMPDEST PUSH2 0x2F2A DUP3 PUSH2 0x2FDF JUMP JUMPDEST DUP2 ADD DUP2 DUP2 LT PUSH8 0xFFFFFFFFFFFFFFFF DUP3 GT OR ISZERO PUSH2 0x2F49 JUMPI PUSH2 0x2F48 PUSH2 0x2FB0 JUMP JUMPDEST JUMPDEST DUP1 PUSH1 0x40 MSTORE POP POP POP JUMP JUMPDEST PUSH32 0x4E487B7100000000000000000000000000000000000000000000000000000000 PUSH1 0x0 MSTORE PUSH1 0x11 PUSH1 0x4 MSTORE PUSH1 0x24 PUSH1 0x0 REVERT JUMPDEST PUSH32 0x4E487B7100000000000000000000000000000000000000000000000000000000 PUSH1 0x0 MSTORE PUSH1 0x22 PUSH1 0x4 MSTORE PUSH1 0x24 PUSH1 0x0 REVERT JUMPDEST PUSH32 0x4E487B7100000000000000000000000000000000000000000000000000000000 PUSH1 0x0 MSTORE PUSH1 0x41 PUSH1 0x4 MSTORE PUSH1 0x24 PUSH1 0x0 REVERT JUMPDEST PUSH1 0x0 PUSH1 0x1F NOT PUSH1 0x1F DUP4 ADD AND SWAP1 POP SWAP2 SWAP1 POP JUMP JUMPDEST PUSH32 0x4F776E61626C653A206E6577206F776E657220697320746865207A65726F2061 PUSH1 0x0 DUP3 ADD MSTORE PUSH32 0x6464726573730000000000000000000000000000000000000000000000000000 PUSH1 0x20 DUP3 ADD MSTORE POP JUMP JUMPDEST PUSH32 0x507572636861736520776F756C6420657863656564206D617820746F6B656E73 PUSH1 0x0 DUP3 ADD MSTORE POP JUMP JUMPDEST PUSH32 0x56616C75652073656E74206973206E6F7420636F727265637400000000000000 PUSH1 0x0 DUP3 ADD MSTORE POP JUMP JUMPDEST PUSH32 0x4F776E61626C653A2063616C6C6572206973206E6F7420746865206F776E6572 PUSH1 0x0 DUP3 ADD MSTORE POP JUMP JUMPDEST PUSH32 0x53616C65206D7573742062652061637469766520746F206D696E7420746F6B65 PUSH1 0x0 DUP3 ADD MSTORE PUSH32 0x6E73000000000000000000000000000000000000000000000000000000000000 PUSH1 0x20 DUP3 ADD MSTORE POP JUMP JUMPDEST PUSH2 0x3112 DUP2 PUSH2 0x2E39 JUMP JUMPDEST DUP2 EQ PUSH2 0x311D JUMPI PUSH1 0x0 DUP1 REVERT JUMPDEST POP JUMP JUMPDEST PUSH2 0x3129 DUP2 PUSH2 0x2E4B JUMP JUMPDEST DUP2 EQ PUSH2 0x3134 JUMPI PUSH1 0x0 DUP1 REVERT JUMPDEST POP JUMP JUMPDEST PUSH2 0x3140 DUP2 PUSH2 0x2E57 JUMP JUMPDEST DUP2 EQ PUSH2 0x314B JUMPI PUSH1 0x0 DUP1 REVERT JUMPDEST POP JUMP JUMPDEST PUSH2 0x3157 DUP2 PUSH2 0x2EA3 JUMP JUMPDEST DUP2 EQ PUSH2 0x3162 JUMPI PUSH1 0x0 DUP1 REVERT JUMPDEST POP JUMP INVALID LOG2 PUSH5 0x6970667358 0x22 SLT KECCAK256 0xC5 0x2B 0xAB SWAP9 LOG0 PC 0xD7 GASLIMIT 0xBE ADDMOD 0xBE 0xA9 MLOAD 0xCA CHAINID 0xC1 CALLDATASIZE 0xBC SWAP1 PUSH1 0x94 CALLDATASIZE PUSH22 0xFCABF42413CCE0DF9F64736F6C634300080400330000 "},"methodIdentifiers":{"MAX_SUPPLY()":"32cb6b0c","approve(address,uint256)":"095ea7b3","balanceOf(address)":"70a08231","currentPrice()":"9d1b464a","getApproved(uint256)":"081812fc","isApprovedForAll(address,address)":"e985e9c5","mint(uint256)":"a0712d68","name()":"06fdde03","owner()":"8da5cb5b","ownerOf(uint256)":"6352211e","renounceOwnership()":"715018a6","reserve(address,uint256)":"cc47a40b","safeTransferFrom(address,address,uint256)":"42842e0e","safeTransferFrom(address,address,uint256,bytes)":"b88d4fde","saleIsActive()":"eb8d2444","setApprovalForAll(address,bool)":"a22cb465","setBaseURI(string)":"55f804b3","setCurrentPrice(uint256)":"18b20071","setSaleIsActive(bool)":"02c88989","supportsInterface(bytes4)":"01ffc9a7","symbol()":"95d89b41","tokenURI(uint256)":"c87b56dd","totalSupply()":"18160ddd","transferFrom(address,address,uint256)":"23b872dd","transferOwnership(address)":"f2fde38b","walletLimit()":"3c8463a1","withdraw()":"3ccfd60b"}}}}}