{
  "_format": "hh-sol-artifact-1",
  "contractName": "ExampleERC404",
  "sourceName": "contracts/contracts/examples/ExampleERC404.sol",
  "abi": [
    {
      "inputs": [
        {
          "internalType": "string",
          "name": "name_",
          "type": "string"
        },
        {
          "internalType": "string",
          "name": "symbol_",
          "type": "string"
        },
        {
          "internalType": "uint8",
          "name": "decimals_",
          "type": "uint8"
        },
        {
          "internalType": "uint256",
          "name": "maxTotalSupplyERC721_",
          "type": "uint256"
        },
        {
          "internalType": "address",
          "name": "initialOwner_",
          "type": "address"
        },
        {
          "internalType": "address",
          "name": "initialMintRecipient_",
          "type": "address"
        }
      ],
      "stateMutability": "nonpayable",
      "type": "constructor"
    },
    {
      "inputs": [],
      "name": "AirdropAlreadyClaimed",
      "type": "error"
    },
    {
      "inputs": [],
      "name": "AirdropIsClosed",
      "type": "error"
    },
    {
      "inputs": [],
      "name": "AlreadyExists",
      "type": "error"
    },
    {
      "inputs": [],
      "name": "CannotRemoveFromERC721TransferExempt",
      "type": "error"
    },
    {
      "inputs": [],
      "name": "DecimalsTooLow",
      "type": "error"
    },
    {
      "inputs": [],
      "name": "InsufficientAllowance",
      "type": "error"
    },
    {
      "inputs": [],
      "name": "InvalidApproval",
      "type": "error"
    },
    {
      "inputs": [],
      "name": "InvalidId",
      "type": "error"
    },
    {
      "inputs": [],
      "name": "InvalidOperator",
      "type": "error"
    },
    {
      "inputs": [],
      "name": "InvalidRecipient",
      "type": "error"
    },
    {
      "inputs": [],
      "name": "InvalidSender",
      "type": "error"
    },
    {
      "inputs": [],
      "name": "InvalidSigner",
      "type": "error"
    },
    {
      "inputs": [],
      "name": "InvalidSpender",
      "type": "error"
    },
    {
      "inputs": [],
      "name": "NotEligibleForAirdrop",
      "type": "error"
    },
    {
      "inputs": [],
      "name": "NotFound",
      "type": "error"
    },
    {
      "inputs": [
        {
          "internalType": "address",
          "name": "owner",
          "type": "address"
        }
      ],
      "name": "OwnableInvalidOwner",
      "type": "error"
    },
    {
      "inputs": [
        {
          "internalType": "address",
          "name": "account",
          "type": "address"
        }
      ],
      "name": "OwnableUnauthorizedAccount",
      "type": "error"
    },
    {
      "inputs": [],
      "name": "OwnedIndexOverflow",
      "type": "error"
    },
    {
      "inputs": [],
      "name": "PermitDeadlineExpired",
      "type": "error"
    },
    {
      "inputs": [],
      "name": "QueueEmpty",
      "type": "error"
    },
    {
      "inputs": [],
      "name": "QueueFull",
      "type": "error"
    },
    {
      "inputs": [],
      "name": "RecipientIsERC721TransferExempt",
      "type": "error"
    },
    {
      "inputs": [],
      "name": "SenderIsERC721TransferExempt",
      "type": "error"
    },
    {
      "inputs": [],
      "name": "Unauthorized",
      "type": "error"
    },
    {
      "inputs": [],
      "name": "UnsafeRecipient",
      "type": "error"
    },
    {
      "anonymous": false,
      "inputs": [
        {
          "indexed": true,
          "internalType": "address",
          "name": "owner",
          "type": "address"
        },
        {
          "indexed": true,
          "internalType": "address",
          "name": "operator",
          "type": "address"
        },
        {
          "indexed": false,
          "internalType": "bool",
          "name": "approved",
          "type": "bool"
        }
      ],
      "name": "ApprovalForAll",
      "type": "event"
    },
    {
      "anonymous": false,
      "inputs": [
        {
          "indexed": false,
          "internalType": "address",
          "name": "owner",
          "type": "address"
        },
        {
          "indexed": false,
          "internalType": "address",
          "name": "spender",
          "type": "address"
        },
        {
          "indexed": false,
          "internalType": "uint256",
          "name": "value",
          "type": "uint256"
        }
      ],
      "name": "ERC20Approval",
      "type": "event"
    },
    {
      "anonymous": false,
      "inputs": [
        {
          "indexed": true,
          "internalType": "address",
          "name": "from",
          "type": "address"
        },
        {
          "indexed": true,
          "internalType": "address",
          "name": "to",
          "type": "address"
        },
        {
          "indexed": false,
          "internalType": "uint256",
          "name": "amount",
          "type": "uint256"
        }
      ],
      "name": "ERC20Transfer",
      "type": "event"
    },
    {
      "anonymous": false,
      "inputs": [
        {
          "indexed": true,
          "internalType": "address",
          "name": "owner",
          "type": "address"
        },
        {
          "indexed": true,
          "internalType": "address",
          "name": "spender",
          "type": "address"
        },
        {
          "indexed": true,
          "internalType": "uint256",
          "name": "id",
          "type": "uint256"
        }
      ],
      "name": "ERC721Approval",
      "type": "event"
    },
    {
      "anonymous": false,
      "inputs": [
        {
          "indexed": true,
          "internalType": "address",
          "name": "from",
          "type": "address"
        },
        {
          "indexed": true,
          "internalType": "address",
          "name": "to",
          "type": "address"
        },
        {
          "indexed": true,
          "internalType": "uint256",
          "name": "id",
          "type": "uint256"
        }
      ],
      "name": "ERC721Transfer",
      "type": "event"
    },
    {
      "anonymous": false,
      "inputs": [
        {
          "indexed": true,
          "internalType": "address",
          "name": "previousOwner",
          "type": "address"
        },
        {
          "indexed": true,
          "internalType": "address",
          "name": "newOwner",
          "type": "address"
        }
      ],
      "name": "OwnershipTransferred",
      "type": "event"
    },
    {
      "inputs": [],
      "name": "DOMAIN_SEPARATOR",
      "outputs": [
        {
          "internalType": "bytes32",
          "name": "",
          "type": "bytes32"
        }
      ],
      "stateMutability": "view",
      "type": "function"
    },
    {
      "inputs": [],
      "name": "airdropIsOpen",
      "outputs": [
        {
          "internalType": "bool",
          "name": "",
          "type": "bool"
        }
      ],
      "stateMutability": "view",
      "type": "function"
    },
    {
      "inputs": [],
      "name": "airdropMerkleRoot",
      "outputs": [
        {
          "internalType": "bytes32",
          "name": "",
          "type": "bytes32"
        }
      ],
      "stateMutability": "view",
      "type": "function"
    },
    {
      "inputs": [
        {
          "internalType": "bytes32[]",
          "name": "proof_",
          "type": "bytes32[]"
        },
        {
          "internalType": "uint256",
          "name": "value_",
          "type": "uint256"
        }
      ],
      "name": "airdropMint",
      "outputs": [],
      "stateMutability": "nonpayable",
      "type": "function"
    },
    {
      "inputs": [
        {
          "internalType": "address",
          "name": "",
          "type": "address"
        },
        {
          "internalType": "address",
          "name": "",
          "type": "address"
        }
      ],
      "name": "allowance",
      "outputs": [
        {
          "internalType": "uint256",
          "name": "",
          "type": "uint256"
        }
      ],
      "stateMutability": "view",
      "type": "function"
    },
    {
      "inputs": [
        {
          "internalType": "address",
          "name": "spender_",
          "type": "address"
        },
        {
          "internalType": "uint256",
          "name": "valueOrId_",
          "type": "uint256"
        }
      ],
      "name": "approve",
      "outputs": [
        {
          "internalType": "bool",
          "name": "",
          "type": "bool"
        }
      ],
      "stateMutability": "nonpayable",
      "type": "function"
    },
    {
      "inputs": [
        {
          "internalType": "address",
          "name": "",
          "type": "address"
        }
      ],
      "name": "balanceOf",
      "outputs": [
        {
          "internalType": "uint256",
          "name": "",
          "type": "uint256"
        }
      ],
      "stateMutability": "view",
      "type": "function"
    },
    {
      "inputs": [],
      "name": "decimals",
      "outputs": [
        {
          "internalType": "uint8",
          "name": "",
          "type": "uint8"
        }
      ],
      "stateMutability": "view",
      "type": "function"
    },
    {
      "inputs": [
        {
          "internalType": "address",
          "name": "owner_",
          "type": "address"
        }
      ],
      "name": "erc20BalanceOf",
      "outputs": [
        {
          "internalType": "uint256",
          "name": "",
          "type": "uint256"
        }
      ],
      "stateMutability": "view",
      "type": "function"
    },
    {
      "inputs": [],
      "name": "erc20TotalSupply",
      "outputs": [
        {
          "internalType": "uint256",
          "name": "",
          "type": "uint256"
        }
      ],
      "stateMutability": "view",
      "type": "function"
    },
    {
      "inputs": [
        {
          "internalType": "address",
          "name": "owner_",
          "type": "address"
        }
      ],
      "name": "erc721BalanceOf",
      "outputs": [
        {
          "internalType": "uint256",
          "name": "",
          "type": "uint256"
        }
      ],
      "stateMutability": "view",
      "type": "function"
    },
    {
      "inputs": [],
      "name": "erc721TokensBankedInQueue",
      "outputs": [
        {
          "internalType": "uint256",
          "name": "",
          "type": "uint256"
        }
      ],
      "stateMutability": "view",
      "type": "function"
    },
    {
      "inputs": [],
      "name": "erc721TotalSupply",
      "outputs": [
        {
          "internalType": "uint256",
          "name": "",
          "type": "uint256"
        }
      ],
      "stateMutability": "view",
      "type": "function"
    },
    {
      "inputs": [
        {
          "internalType": "address",
          "name": "",
          "type": "address"
        }
      ],
      "name": "erc721TransferExempt",
      "outputs": [
        {
          "internalType": "bool",
          "name": "",
          "type": "bool"
        }
      ],
      "stateMutability": "view",
      "type": "function"
    },
    {
      "inputs": [
        {
          "internalType": "uint256",
          "name": "",
          "type": "uint256"
        }
      ],
      "name": "getApproved",
      "outputs": [
        {
          "internalType": "address",
          "name": "",
          "type": "address"
        }
      ],
      "stateMutability": "view",
      "type": "function"
    },
    {
      "inputs": [
        {
          "internalType": "address",
          "name": "",
          "type": "address"
        }
      ],
      "name": "hasClaimedAirdrop",
      "outputs": [
        {
          "internalType": "bool",
          "name": "",
          "type": "bool"
        }
      ],
      "stateMutability": "view",
      "type": "function"
    },
    {
      "inputs": [
        {
          "internalType": "address",
          "name": "",
          "type": "address"
        },
        {
          "internalType": "address",
          "name": "",
          "type": "address"
        }
      ],
      "name": "isApprovedForAll",
      "outputs": [
        {
          "internalType": "bool",
          "name": "",
          "type": "bool"
        }
      ],
      "stateMutability": "view",
      "type": "function"
    },
    {
      "inputs": [],
      "name": "name",
      "outputs": [
        {
          "internalType": "string",
          "name": "",
          "type": "string"
        }
      ],
      "stateMutability": "view",
      "type": "function"
    },
    {
      "inputs": [
        {
          "internalType": "address",
          "name": "",
          "type": "address"
        }
      ],
      "name": "nonces",
      "outputs": [
        {
          "internalType": "uint256",
          "name": "",
          "type": "uint256"
        }
      ],
      "stateMutability": "view",
      "type": "function"
    },
    {
      "inputs": [
        {
          "internalType": "address",
          "name": "owner_",
          "type": "address"
        }
      ],
      "name": "owned",
      "outputs": [
        {
          "internalType": "uint256[]",
          "name": "",
          "type": "uint256[]"
        }
      ],
      "stateMutability": "view",
      "type": "function"
    },
    {
      "inputs": [],
      "name": "owner",
      "outputs": [
        {
          "internalType": "address",
          "name": "",
          "type": "address"
        }
      ],
      "stateMutability": "view",
      "type": "function"
    },
    {
      "inputs": [
        {
          "internalType": "uint256",
          "name": "id_",
          "type": "uint256"
        }
      ],
      "name": "ownerOf",
      "outputs": [
        {
          "internalType": "address",
          "name": "erc721Owner",
          "type": "address"
        }
      ],
      "stateMutability": "view",
      "type": "function"
    },
    {
      "inputs": [
        {
          "internalType": "address",
          "name": "owner_",
          "type": "address"
        },
        {
          "internalType": "address",
          "name": "spender_",
          "type": "address"
        },
        {
          "internalType": "uint256",
          "name": "value_",
          "type": "uint256"
        },
        {
          "internalType": "uint256",
          "name": "deadline_",
          "type": "uint256"
        },
        {
          "internalType": "uint8",
          "name": "v_",
          "type": "uint8"
        },
        {
          "internalType": "bytes32",
          "name": "r_",
          "type": "bytes32"
        },
        {
          "internalType": "bytes32",
          "name": "s_",
          "type": "bytes32"
        }
      ],
      "name": "permit",
      "outputs": [],
      "stateMutability": "nonpayable",
      "type": "function"
    },
    {
      "inputs": [],
      "name": "renounceOwnership",
      "outputs": [],
      "stateMutability": "nonpayable",
      "type": "function"
    },
    {
      "inputs": [
        {
          "internalType": "address",
          "name": "from_",
          "type": "address"
        },
        {
          "internalType": "address",
          "name": "to_",
          "type": "address"
        },
        {
          "internalType": "uint256",
          "name": "id_",
          "type": "uint256"
        }
      ],
      "name": "safeTransferFrom",
      "outputs": [],
      "stateMutability": "nonpayable",
      "type": "function"
    },
    {
      "inputs": [
        {
          "internalType": "address",
          "name": "from_",
          "type": "address"
        },
        {
          "internalType": "address",
          "name": "to_",
          "type": "address"
        },
        {
          "internalType": "uint256",
          "name": "id_",
          "type": "uint256"
        },
        {
          "internalType": "bytes",
          "name": "data_",
          "type": "bytes"
        }
      ],
      "name": "safeTransferFrom",
      "outputs": [],
      "stateMutability": "nonpayable",
      "type": "function"
    },
    {
      "inputs": [
        {
          "internalType": "bytes32",
          "name": "airdropMerkleRoot_",
          "type": "bytes32"
        }
      ],
      "name": "setAirdropMerkleRoot",
      "outputs": [],
      "stateMutability": "nonpayable",
      "type": "function"
    },
    {
      "inputs": [
        {
          "internalType": "address",
          "name": "operator_",
          "type": "address"
        },
        {
          "internalType": "bool",
          "name": "approved_",
          "type": "bool"
        }
      ],
      "name": "setApprovalForAll",
      "outputs": [],
      "stateMutability": "nonpayable",
      "type": "function"
    },
    {
      "inputs": [
        {
          "internalType": "address",
          "name": "account_",
          "type": "address"
        },
        {
          "internalType": "bool",
          "name": "value_",
          "type": "bool"
        }
      ],
      "name": "setERC721TransferExempt",
      "outputs": [],
      "stateMutability": "nonpayable",
      "type": "function"
    },
    {
      "inputs": [
        {
          "internalType": "bytes4",
          "name": "interfaceId",
          "type": "bytes4"
        }
      ],
      "name": "supportsInterface",
      "outputs": [
        {
          "internalType": "bool",
          "name": "",
          "type": "bool"
        }
      ],
      "stateMutability": "view",
      "type": "function"
    },
    {
      "inputs": [],
      "name": "symbol",
      "outputs": [
        {
          "internalType": "string",
          "name": "",
          "type": "string"
        }
      ],
      "stateMutability": "view",
      "type": "function"
    },
    {
      "inputs": [],
      "name": "toggleAirdropIsOpen",
      "outputs": [],
      "stateMutability": "nonpayable",
      "type": "function"
    },
    {
      "inputs": [
        {
          "internalType": "uint256",
          "name": "id_",
          "type": "uint256"
        }
      ],
      "name": "tokenURI",
      "outputs": [
        {
          "internalType": "string",
          "name": "",
          "type": "string"
        }
      ],
      "stateMutability": "pure",
      "type": "function"
    },
    {
      "inputs": [],
      "name": "totalSupply",
      "outputs": [
        {
          "internalType": "uint256",
          "name": "",
          "type": "uint256"
        }
      ],
      "stateMutability": "view",
      "type": "function"
    },
    {
      "inputs": [
        {
          "internalType": "address",
          "name": "to_",
          "type": "address"
        },
        {
          "internalType": "uint256",
          "name": "value_",
          "type": "uint256"
        }
      ],
      "name": "transfer",
      "outputs": [
        {
          "internalType": "bool",
          "name": "",
          "type": "bool"
        }
      ],
      "stateMutability": "nonpayable",
      "type": "function"
    },
    {
      "inputs": [
        {
          "internalType": "address",
          "name": "from_",
          "type": "address"
        },
        {
          "internalType": "address",
          "name": "to_",
          "type": "address"
        },
        {
          "internalType": "uint256",
          "name": "valueOrId_",
          "type": "uint256"
        }
      ],
      "name": "transferFrom",
      "outputs": [
        {
          "internalType": "bool",
          "name": "",
          "type": "bool"
        }
      ],
      "stateMutability": "nonpayable",
      "type": "function"
    },
    {
      "inputs": [
        {
          "internalType": "address",
          "name": "newOwner",
          "type": "address"
        }
      ],
      "name": "transferOwnership",
      "outputs": [],
      "stateMutability": "nonpayable",
      "type": "function"
    },
    {
      "inputs": [],
      "name": "units",
      "outputs": [
        {
          "internalType": "uint256",
          "name": "",
          "type": "uint256"
        }
      ],
      "stateMutability": "view",
      "type": "function"
    },
    {
      "inputs": [
        {
          "internalType": "bytes32[]",
          "name": "proof_",
          "type": "bytes32[]"
        },
        {
          "internalType": "address",
          "name": "claimer_",
          "type": "address"
        },
        {
          "internalType": "uint256",
          "name": "value_",
          "type": "uint256"
        }
      ],
      "name": "verifyProof",
      "outputs": [
        {
          "internalType": "bool",
          "name": "",
          "type": "bool"
        }
      ],
      "stateMutability": "view",
      "type": "function"
    }
  ],
  "bytecode": "0x6101006040523480156200001257600080fd5b506040516200638b3803806200638b833981810160405281019062000038919062001169565b85858584600073ffffffffffffffffffffffffffffffffffffffff168173ffffffffffffffffffffffffffffffffffffffff1603620000b15760006040517f1e4fbdf7000000000000000000000000000000000000000000000000000000008152600401620000a8919062001254565b60405180910390fd5b620000c281620001b060201b60201c565b508260039081620000d49190620014b2565b508160049081620000e69190620014b2565b5060128160ff16101562000126576040517f98790fd500000000000000000000000000000000000000000000000000000000815260040160405180910390fd5b8060ff1660808160ff1681525050608051600a6200014591906200171c565b60a081815250504660c08181525050620001646200027460201b60201c565b60e08181525050505050620001818160016200030460201b60201c565b620001a48160a051856200019691906200176d565b6000620003b860201b60201c565b50505050505062001aae565b60008060009054906101000a900473ffffffffffffffffffffffffffffffffffffffff169050816000806101000a81548173ffffffffffffffffffffffffffffffffffffffff021916908373ffffffffffffffffffffffffffffffffffffffff1602179055508173ffffffffffffffffffffffffffffffffffffffff168173ffffffffffffffffffffffffffffffffffffffff167f8be0079c531659141344cd1fd0a4f28419497f9722a3daafe3b4186f6b6457e060405160405180910390a35050565b60007f8b73c3c69bb8fe3d512ecc4cf759cc79239f7b179b0ffacaa9a75d522b39400f6003604051620002a8919062001867565b60405180910390207fc89efdaa54c0f20c7adf612882df0950f5a951637e0307cdcb4c672f298b8bc64630604051602001620002e9959493929190620018ac565b60405160208183030381529060405280519060200120905090565b60a0516200031883620004d860201b60201c565b1015801562000325575080155b156200035d576040517f3908ab3c00000000000000000000000000000000000000000000000000000000815260040160405180910390fd5b80600d60008473ffffffffffffffffffffffffffffffffffffffff1673ffffffffffffffffffffffffffffffffffffffff16815260200190815260200160002060006101000a81548160ff0219169083151502179055505050565b600073ffffffffffffffffffffffffffffffffffffffff168373ffffffffffffffffffffffffffffffffffffffff16036200041f576040517f9c8d2cd200000000000000000000000000000000000000000000000000000000815260040160405180910390fd5b62000433600084846200052160201b60201c565b8080156200048b5750600d60008473ffffffffffffffffffffffffffffffffffffffff1673ffffffffffffffffffffffffffffffffffffffff16815260200190815260200160002060009054906101000a900460ff16155b15620004d357600060a05183620004a3919062001938565b905060005b81811015620004d057620004c2856200068960201b60201c565b8080600101915050620004a8565b50505b505050565b6000600760008373ffffffffffffffffffffffffffffffffffffffff1673ffffffffffffffffffffffffffffffffffffffff168152602001908152602001600020549050919050565b600073ffffffffffffffffffffffffffffffffffffffff168373ffffffffffffffffffffffffffffffffffffffff1603620005775780600560008282546200056a919062001970565b92505081905550620005d0565b80600760008573ffffffffffffffffffffffffffffffffffffffff1673ffffffffffffffffffffffffffffffffffffffff1681526020019081526020016000206000828254620005c89190620019ab565b925050819055505b80600760008473ffffffffffffffffffffffffffffffffffffffff1673ffffffffffffffffffffffffffffffffffffffff168152602001908152602001600020600082825401925050819055508173ffffffffffffffffffffffffffffffffffffffff168373ffffffffffffffffffffffffffffffffffffffff167fe59fdd36d0d223c0c7d996db7ad796880f45e1936cb0bb7ac102e7082e031487836040516200067c9190620019e6565b60405180910390a3505050565b600073ffffffffffffffffffffffffffffffffffffffff168173ffffffffffffffffffffffffffffffffffffffff1603620006f0576040517f9c8d2cd200000000000000000000000000000000000000000000000000000000815260040160405180910390fd5b6000620007046001620007d760201b60201c565b62000723576200071b60016200084760201b60201c565b905062000743565b60066000815480929190620007389062001a03565b919050555060065490505b60006200075682620009ac60201b60201c565b9050600073ffffffffffffffffffffffffffffffffffffffff168173ffffffffffffffffffffffffffffffffffffffff1614620007bf576040517f23369fa600000000000000000000000000000000000000000000000000000000815260040160405180910390fd5b620007d2818484620009e460201b60201c565b505050565b60008160000160009054906101000a90046fffffffffffffffffffffffffffffffff166fffffffffffffffffffffffffffffffff168260000160109054906101000a90046fffffffffffffffffffffffffffffffff166fffffffffffffffffffffffffffffffff16149050919050565b6000808260000160109054906101000a90046fffffffffffffffffffffffffffffffff1690508260000160009054906101000a90046fffffffffffffffffffffffffffffffff166fffffffffffffffffffffffffffffffff16816fffffffffffffffffffffffffffffffff1603620008eb576040517f75e52f4f00000000000000000000000000000000000000000000000000000000815260040160405180910390fd5b80600190039050826001016000826fffffffffffffffffffffffffffffffff166fffffffffffffffffffffffffffffffff168152602001908152602001600020549150826001016000826fffffffffffffffffffffffffffffffff166fffffffffffffffffffffffffffffffff16815260200190815260200160002060009055808360000160106101000a8154816fffffffffffffffffffffffffffffffff02191690836fffffffffffffffffffffffffffffffff16021790555050919050565b600080600b600084815260200190815260200160002054905073ffffffffffffffffffffffffffffffffffffffff8116915050919050565b600073ffffffffffffffffffffffffffffffffffffffff168373ffffffffffffffffffffffffffffffffffffffff161462000c00576009600082815260200190815260200160002060006101000a81549073ffffffffffffffffffffffffffffffffffffffff02191690556000600c60008573ffffffffffffffffffffffffffffffffffffffff1673ffffffffffffffffffffffffffffffffffffffff1681526020019081526020016000206001600c60008773ffffffffffffffffffffffffffffffffffffffff1673ffffffffffffffffffffffffffffffffffffffff1681526020019081526020016000208054905062000ae19190620019ab565b8154811062000af55762000af462001a50565b5b9060005260206000200154905081811462000b9657600062000b1d8362000d8d60201b60201c565b905081600c60008773ffffffffffffffffffffffffffffffffffffffff1673ffffffffffffffffffffffffffffffffffffffff168152602001908152602001600020828154811062000b745762000b7362001a50565b5b906000526020600020018190555062000b94828262000db260201b60201c565b505b600c60008573ffffffffffffffffffffffffffffffffffffffff1673ffffffffffffffffffffffffffffffffffffffff16815260200190815260200160002080548062000be85762000be762001a7f565b5b60019003818190600052602060002001600090559055505b600073ffffffffffffffffffffffffffffffffffffffff168273ffffffffffffffffffffffffffffffffffffffff161462000d155762000c47818362000e8660201b60201c565b600c60008373ffffffffffffffffffffffffffffffffffffffff1673ffffffffffffffffffffffffffffffffffffffff16815260200190815260200160002081908060018154018082558091505060019003906000526020600020016000909190919091505562000d0f816001600c60008673ffffffffffffffffffffffffffffffffffffffff1673ffffffffffffffffffffffffffffffffffffffff1681526020019081526020016000208054905062000d039190620019ab565b62000db260201b60201c565b62000d2d565b600b6000828152602001908152602001600020600090555b808273ffffffffffffffffffffffffffffffffffffffff168473ffffffffffffffffffffffffffffffffffffffff167fe5f815dc84b8cecdfd4beedfc3f91ab5be7af100eca4e8fb11552b867995394f60405160405180910390a4505050565b600080600b60008481526020019081526020016000205490508060a01c915050919050565b6000600b600084815260200190815260200160002054905060a07fffffffffffffffffffffffff0000000000000000000000000000000000000000901c82111562000e29576040517ffcb3438c00000000000000000000000000000000000000000000000000000000815260040160405180910390fd5b7fffffffffffffffffffffffff00000000000000000000000000000000000000008260a01b1673ffffffffffffffffffffffffffffffffffffffff821601905080600b600085815260200190815260200160002081905550505050565b6000600b600084815260200190815260200160002054905073ffffffffffffffffffffffffffffffffffffffff82167fffffffffffffffffffffffff0000000000000000000000000000000000000000821601905080600b600085815260200190815260200160002081905550505050565b6000604051905090565b600080fd5b600080fd5b600080fd5b600080fd5b6000601f19601f8301169050919050565b7f4e487b7100000000000000000000000000000000000000000000000000000000600052604160045260246000fd5b62000f618262000f16565b810181811067ffffffffffffffff8211171562000f835762000f8262000f27565b5b80604052505050565b600062000f9862000ef8565b905062000fa6828262000f56565b919050565b600067ffffffffffffffff82111562000fc95762000fc862000f27565b5b62000fd48262000f16565b9050602081019050919050565b60005b838110156200100157808201518184015260208101905062000fe4565b60008484015250505050565b6000620010246200101e8462000fab565b62000f8c565b90508281526020810184848401111562001043576200104262000f11565b5b6200105084828562000fe1565b509392505050565b600082601f83011262001070576200106f62000f0c565b5b8151620010828482602086016200100d565b91505092915050565b600060ff82169050919050565b620010a3816200108b565b8114620010af57600080fd5b50565b600081519050620010c38162001098565b92915050565b6000819050919050565b620010de81620010c9565b8114620010ea57600080fd5b50565b600081519050620010fe81620010d3565b92915050565b600073ffffffffffffffffffffffffffffffffffffffff82169050919050565b6000620011318262001104565b9050919050565b620011438162001124565b81146200114f57600080fd5b50565b600081519050620011638162001138565b92915050565b60008060008060008060c0878903121562001189576200118862000f02565b5b600087015167ffffffffffffffff811115620011aa57620011a962000f07565b5b620011b889828a0162001058565b965050602087015167ffffffffffffffff811115620011dc57620011db62000f07565b5b620011ea89828a0162001058565b9550506040620011fd89828a01620010b2565b94505060606200121089828a01620010ed565b93505060806200122389828a0162001152565b92505060a06200123689828a0162001152565b9150509295509295509295565b6200124e8162001124565b82525050565b60006020820190506200126b600083018462001243565b92915050565b600081519050919050565b7f4e487b7100000000000000000000000000000000000000000000000000000000600052602260045260246000fd5b60006002820490506001821680620012c457607f821691505b602082108103620012da57620012d96200127c565b5b50919050565b60008190508160005260206000209050919050565b60006020601f8301049050919050565b600082821b905092915050565b600060088302620013447fffffffffffffffffffffffffffffffffffffffffffffffffffffffffffffffff8262001305565b62001350868362001305565b95508019841693508086168417925050509392505050565b6000819050919050565b6000620013936200138d6200138784620010c9565b62001368565b620010c9565b9050919050565b6000819050919050565b620013af8362001372565b620013c7620013be826200139a565b84845462001312565b825550505050565b600090565b620013de620013cf565b620013eb818484620013a4565b505050565b5b81811015620014135762001407600082620013d4565b600181019050620013f1565b5050565b601f82111562001462576200142c81620012e0565b6200143784620012f5565b8101602085101562001447578190505b6200145f6200145685620012f5565b830182620013f0565b50505b505050565b600082821c905092915050565b6000620014876000198460080262001467565b1980831691505092915050565b6000620014a2838362001474565b9150826002028217905092915050565b620014bd8262001271565b67ffffffffffffffff811115620014d957620014d862000f27565b5b620014e58254620012ab565b620014f282828562001417565b600060209050601f8311600181146200152a576000841562001515578287015190505b62001521858262001494565b86555062001591565b601f1984166200153a86620012e0565b60005b8281101562001564578489015182556001820191506020850194506020810190506200153d565b8683101562001584578489015162001580601f89168262001474565b8355505b6001600288020188555050505b505050505050565b7f4e487b7100000000000000000000000000000000000000000000000000000000600052601160045260246000fd5b60008160011c9050919050565b6000808291508390505b60018511156200162757808604811115620015ff57620015fe62001599565b5b60018516156200160f5780820291505b80810290506200161f85620015c8565b9450620015df565b94509492505050565b60008262001642576001905062001715565b8162001652576000905062001715565b81600181146200166b57600281146200167657620016ac565b600191505062001715565b60ff8411156200168b576200168a62001599565b5b8360020a915084821115620016a557620016a462001599565b5b5062001715565b5060208310610133831016604e8410600b8410161715620016e65782820a905083811115620016e057620016df62001599565b5b62001715565b620016f58484846001620015d5565b925090508184048111156200170f576200170e62001599565b5b81810290505b9392505050565b60006200172982620010c9565b915062001736836200108b565b9250620017657fffffffffffffffffffffffffffffffffffffffffffffffffffffffffffffffff848462001630565b905092915050565b60006200177a82620010c9565b91506200178783620010c9565b92508282026200179781620010c9565b91508282048414831517620017b157620017b062001599565b5b5092915050565b600081905092915050565b60008190508160005260206000209050919050565b60008154620017e781620012ab565b620017f38186620017b8565b9450600182166000811462001811576001811462001827576200185e565b60ff19831686528115158202860193506200185e565b6200183285620017c3565b60005b83811015620018565781548189015260018201915060208101905062001835565b838801955050505b50505092915050565b6000620018758284620017d8565b915081905092915050565b6000819050919050565b620018958162001880565b82525050565b620018a681620010c9565b82525050565b600060a082019050620018c360008301886200188a565b620018d260208301876200188a565b620018e160408301866200188a565b620018f060608301856200189b565b620018ff608083018462001243565b9695505050505050565b7f4e487b7100000000000000000000000000000000000000000000000000000000600052601260045260246000fd5b60006200194582620010c9565b91506200195283620010c9565b92508262001965576200196462001909565b5b828204905092915050565b60006200197d82620010c9565b91506200198a83620010c9565b9250828201905080821115620019a557620019a462001599565b5b92915050565b6000620019b882620010c9565b9150620019c583620010c9565b9250828203905081811115620019e057620019df62001599565b5b92915050565b6000602082019050620019fd60008301846200189b565b92915050565b600062001a1082620010c9565b91507fffffffffffffffffffffffffffffffffffffffffffffffffffffffffffffffff820362001a455762001a4462001599565b5b600182019050919050565b7f4e487b7100000000000000000000000000000000000000000000000000000000600052603260045260246000fd5b7f4e487b7100000000000000000000000000000000000000000000000000000000600052603160045260246000fd5b60805160a05160c05160e05161484862001b43600039600061128e0152600061125a0152600081816110a90152818161156b015281816124fc01528181612528015281816125cf0152818161263a0152818161269c015281816127a5015281816127d3015281816127ff015281816128460152818161287201528181612bf10152612c480152600061123401526148486000f3fe608060405234801561001057600080fd5b506004361061023d5760003560e01c80638b2d8dec1161013b578063c5ab3ba6116100b8578063dd62ed3e1161007c578063dd62ed3e14610706578063e985e9c514610736578063f2fde38b14610766578063f4cdda3614610782578063fb4bcd4f146107b25761023d565b8063c5ab3ba614610676578063c6e672b914610694578063c87b56dd146106b0578063d505accf146106e0578063dc1a9273146106fc5761023d565b8063a5ce30d2116100ff578063a5ce30d2146105ac578063a9059cbb146105ca578063b1ab9317146105fa578063b3f9ea341461062a578063b88d4fde1461065a5761023d565b80638b2d8dec1461051a5780638da5cb5b1461053657806395d89b4114610554578063976a843514610572578063a22cb465146105905761023d565b8063313ce567116101c9578063715018a61161018d578063715018a614610474578063726d20fe1461047e5780637ecebe00146104ae57806383443c52146104de57806389fb4c66146104fc5761023d565b8063313ce567146103bc5780633644e515146103da57806342842e0e146103f85780636352211e1461041457806370a08231146104445761023d565b8063095ea7b311610210578063095ea7b3146102f057806309d890d51461032057806309f0ef651461033e57806318160ddd1461036e57806323b872dd1461038c5761023d565b806301ffc9a71461024257806302519da31461027257806306fdde03146102a2578063081812fc146102c0575b600080fd5b61025c60048036038101906102579190613854565b6107ce565b604051610269919061389c565b60405180910390f35b61028c60048036038101906102879190613915565b6108a0565b604051610299919061395b565b60405180910390f35b6102aa6108e9565b6040516102b79190613a06565b60405180910390f35b6102da60048036038101906102d59190613a54565b610977565b6040516102e79190613a90565b60405180910390f35b61030a60048036038101906103059190613aab565b6109aa565b604051610317919061389c565b60405180910390f35b610328610cb6565b604051610335919061395b565b60405180910390f35b61035860048036038101906103539190613915565b610cc7565b604051610365919061389c565b60405180910390f35b610376610ce7565b604051610383919061395b565b60405180910390f35b6103a660048036038101906103a19190613aeb565b610ced565b6040516103b3919061389c565b60405180910390f35b6103c4611232565b6040516103d19190613b5a565b60405180910390f35b6103e2611256565b6040516103ef9190613b8e565b60405180910390f35b610412600480360381019061040d9190613aeb565b6112b3565b005b61042e60048036038101906104299190613a54565b6112d3565b60405161043b9190613a90565b60405180910390f35b61045e60048036038101906104599190613915565b611363565b60405161046b919061395b565b60405180910390f35b61047c61137b565b005b61049860048036038101906104939190613d1d565b61138f565b6040516104a5919061389c565b60405180910390f35b6104c860048036038101906104c39190613915565b61140c565b6040516104d5919061395b565b60405180910390f35b6104e6611424565b6040516104f3919061389c565b60405180910390f35b610504611437565b604051610511919061395b565b60405180910390f35b610534600480360381019061052f9190613d8c565b611441565b005b61053e6114b2565b60405161054b9190613a90565b60405180910390f35b61055c6114db565b6040516105699190613a06565b60405180910390f35b61057a611569565b604051610587919061395b565b60405180910390f35b6105aa60048036038101906105a59190613e14565b61158d565b005b6105b46116f0565b6040516105c19190613b8e565b60405180910390f35b6105e460048036038101906105df9190613aab565b6116f6565b6040516105f1919061389c565b60405180910390f35b610614600480360381019061060f9190613915565b611770565b6040516106219190613f12565b60405180910390f35b610644600480360381019061063f9190613915565b611807565b604051610651919061395b565b60405180910390f35b610674600480360381019061066f9190613fe9565b611853565b005b61067e6119d1565b60405161068b919061395b565b60405180910390f35b6106ae60048036038101906106a99190613e14565b6119db565b005b6106ca60048036038101906106c59190613a54565b6119f1565b6040516106d79190613a06565b60405180910390f35b6106fa60048036038101906106f59190614098565b611a22565b005b610704611d8e565b005b610720600480360381019061071b919061413a565b611da0565b60405161072d919061395b565b60405180910390f35b610750600480360381019061074b919061413a565b611dc5565b60405161075d919061389c565b60405180910390f35b610780600480360381019061077b9190613915565b611df4565b005b61079c60048036038101906107979190613915565b611e7a565b6040516107a9919061389c565b60405180910390f35b6107cc60048036038101906107c7919061417a565b611e9a565b005b60007f219d65bb000000000000000000000000000000000000000000000000000000007bffffffffffffffffffffffffffffffffffffffffffffffffffffffff1916827bffffffffffffffffffffffffffffffffffffffffffffffffffffffff1916148061089957507f01ffc9a7000000000000000000000000000000000000000000000000000000007bffffffffffffffffffffffffffffffffffffffffffffffffffffffff1916827bffffffffffffffffffffffffffffffffffffffffffffffffffffffff1916145b9050919050565b6000600760008373ffffffffffffffffffffffffffffffffffffffff1673ffffffffffffffffffffffffffffffffffffffff168152602001908152602001600020549050919050565b600380546108f6906141d6565b80601f0160208091040260200160405190810160405280929190818152602001828054610922906141d6565b801561096f5780601f106109445761010080835404028352916020019161096f565b820191906000526020600020905b81548152906001019060200180831161095257829003601f168201915b505050505081565b60096020528060005260406000206000915054906101000a900473ffffffffffffffffffffffffffffffffffffffff1681565b600060065482111580156109be5750600082115b15610b8357600082905060006109d382611eae565b90508073ffffffffffffffffffffffffffffffffffffffff163373ffffffffffffffffffffffffffffffffffffffff1614158015610a985750600a60008273ffffffffffffffffffffffffffffffffffffffff1673ffffffffffffffffffffffffffffffffffffffff16815260200190815260200160002060003373ffffffffffffffffffffffffffffffffffffffff1673ffffffffffffffffffffffffffffffffffffffff16815260200190815260200160002060009054906101000a900460ff16155b15610acf576040517f82b4290000000000000000000000000000000000000000000000000000000000815260040160405180910390fd5b846009600084815260200190815260200160002060006101000a81548173ffffffffffffffffffffffffffffffffffffffff021916908373ffffffffffffffffffffffffffffffffffffffff160217905550818573ffffffffffffffffffffffffffffffffffffffff168273ffffffffffffffffffffffffffffffffffffffff167f797365dabb18fa726ccbccbe18c6f24c34e3b0653f2e99ea873bd7b84763dde660405160405180910390a45050610cac565b600073ffffffffffffffffffffffffffffffffffffffff168373ffffffffffffffffffffffffffffffffffffffff1603610be9576040517f5461585f00000000000000000000000000000000000000000000000000000000815260040160405180910390fd5b600082905080600860003373ffffffffffffffffffffffffffffffffffffffff1673ffffffffffffffffffffffffffffffffffffffff16815260200190815260200160002060008673ffffffffffffffffffffffffffffffffffffffff1673ffffffffffffffffffffffffffffffffffffffff168152602001908152602001600020819055507f1f01303a1ce9329d9963e1937c201e23c5543a9e3536e9edead087aec7dc6d83338583604051610ca293929190614207565b60405180910390a1505b6001905092915050565b6000610cc26001611ee6565b905090565b600d6020528060005260406000206000915054906101000a900460ff1681565b60055481565b60008073ffffffffffffffffffffffffffffffffffffffff168473ffffffffffffffffffffffffffffffffffffffff1603610d54576040517fddb5de5e00000000000000000000000000000000000000000000000000000000815260040160405180910390fd5b600073ffffffffffffffffffffffffffffffffffffffff168373ffffffffffffffffffffffffffffffffffffffff1603610dba576040517f9c8d2cd200000000000000000000000000000000000000000000000000000000815260040160405180910390fd5b60065482116110de576000829050610dd181611eae565b73ffffffffffffffffffffffffffffffffffffffff168573ffffffffffffffffffffffffffffffffffffffff1614610e35576040517f82b4290000000000000000000000000000000000000000000000000000000000815260040160405180910390fd5b8473ffffffffffffffffffffffffffffffffffffffff163373ffffffffffffffffffffffffffffffffffffffff1614158015610ef85750600a60008673ffffffffffffffffffffffffffffffffffffffff1673ffffffffffffffffffffffffffffffffffffffff16815260200190815260200160002060003373ffffffffffffffffffffffffffffffffffffffff1673ffffffffffffffffffffffffffffffffffffffff16815260200190815260200160002060009054906101000a900460ff16155b8015610f6357506009600082815260200190815260200160002060009054906101000a900473ffffffffffffffffffffffffffffffffffffffff1673ffffffffffffffffffffffffffffffffffffffff163373ffffffffffffffffffffffffffffffffffffffff1614155b15610f9a576040517f82b4290000000000000000000000000000000000000000000000000000000000815260040160405180910390fd5b600d60008673ffffffffffffffffffffffffffffffffffffffff1673ffffffffffffffffffffffffffffffffffffffff16815260200190815260200160002060009054906101000a900460ff161561101e576040517f35af926600000000000000000000000000000000000000000000000000000000815260040160405180910390fd5b600d60008573ffffffffffffffffffffffffffffffffffffffff1673ffffffffffffffffffffffffffffffffffffffff16815260200190815260200160002060009054906101000a900460ff16156110a2576040517f5ce7539700000000000000000000000000000000000000000000000000000000815260040160405180910390fd5b6110cd85857f0000000000000000000000000000000000000000000000000000000000000000611f44565b6110d88585836120a4565b50611227565b60008290506000600860008773ffffffffffffffffffffffffffffffffffffffff1673ffffffffffffffffffffffffffffffffffffffff16815260200190815260200160002060003373ffffffffffffffffffffffffffffffffffffffff1673ffffffffffffffffffffffffffffffffffffffff1681526020019081526020016000205490507fffffffffffffffffffffffffffffffffffffffffffffffffffffffffffffffff8114611218578181611197919061426d565b600860008873ffffffffffffffffffffffffffffffffffffffff1673ffffffffffffffffffffffffffffffffffffffff16815260200190815260200160002060003373ffffffffffffffffffffffffffffffffffffffff1673ffffffffffffffffffffffffffffffffffffffff168152602001908152602001600020819055505b61122386868461241c565b5050505b600190509392505050565b7f000000000000000000000000000000000000000000000000000000000000000081565b60007f0000000000000000000000000000000000000000000000000000000000000000461461128c576112876128cb565b6112ae565b7f00000000000000000000000000000000000000000000000000000000000000005b905090565b6112ce83838360405180602001604052806000815250611853565b505050565b60006112de82611eae565b90506006548211806112f05750600082145b806113275750600073ffffffffffffffffffffffffffffffffffffffff168173ffffffffffffffffffffffffffffffffffffffff16145b1561135e576040517fc5723b5100000000000000000000000000000000000000000000000000000000815260040160405180910390fd5b919050565b60076020528060005260406000206000915090505481565b611383612957565b61138d60006129de565b565b60008083836040516020016113a59291906142a1565b604051602081830303815290604052805190602001206040516020016113cb91906142eb565b6040516020818303038152906040528051906020012090506113f08560105483612aa2565b156113ff576001915050611405565b60009150505b9392505050565b600e6020528060005260406000206000915090505481565b600f60009054906101000a900460ff1681565b6000600554905090565b6000801b60105414806114615750600f60009054906101000a900460ff16155b15611498576040517f2a47e63200000000000000000000000000000000000000000000000000000000815260040160405180910390fd5b6114a28282612ab9565b6114ae33826001612b1f565b5050565b60008060009054906101000a900473ffffffffffffffffffffffffffffffffffffffff16905090565b600480546114e8906141d6565b80601f0160208091040260200160405190810160405280929190818152602001828054611514906141d6565b80156115615780601f1061153657610100808354040283529160200191611561565b820191906000526020600020905b81548152906001019060200180831161154457829003601f168201915b505050505081565b7f000000000000000000000000000000000000000000000000000000000000000081565b600073ffffffffffffffffffffffffffffffffffffffff168273ffffffffffffffffffffffffffffffffffffffff16036115f3576040517fccea9e6f00000000000000000000000000000000000000000000000000000000815260040160405180910390fd5b80600a60003373ffffffffffffffffffffffffffffffffffffffff1673ffffffffffffffffffffffffffffffffffffffff16815260200190815260200160002060008473ffffffffffffffffffffffffffffffffffffffff1673ffffffffffffffffffffffffffffffffffffffff16815260200190815260200160002060006101000a81548160ff0219169083151502179055508173ffffffffffffffffffffffffffffffffffffffff163373ffffffffffffffffffffffffffffffffffffffff167f17307eab39ab6107e8899845ad3d59bd9653f200f220920489ca2b5937696c31836040516116e4919061389c565b60405180910390a35050565b60105481565b60008073ffffffffffffffffffffffffffffffffffffffff168373ffffffffffffffffffffffffffffffffffffffff160361175d576040517f9c8d2cd200000000000000000000000000000000000000000000000000000000815260040160405180910390fd5b61176833848461241c565b905092915050565b6060600c60008373ffffffffffffffffffffffffffffffffffffffff1673ffffffffffffffffffffffffffffffffffffffff1681526020019081526020016000208054806020026020016040519081016040528092919081815260200182805480156117fb57602002820191906000526020600020905b8154815260200190600101908083116117e7575b50505050509050919050565b6000600c60008373ffffffffffffffffffffffffffffffffffffffff1673ffffffffffffffffffffffffffffffffffffffff168152602001908152602001600020805490509050919050565b6006548211806118635750600082145b1561189a576040517fdfa1a40800000000000000000000000000000000000000000000000000000000815260040160405180910390fd5b6118a5848484610ced565b5060008373ffffffffffffffffffffffffffffffffffffffff163b14158015611994575063150b7a0260e01b7bffffffffffffffffffffffffffffffffffffffffffffffffffffffff19168373ffffffffffffffffffffffffffffffffffffffff1663150b7a02338786866040518563ffffffff1660e01b815260040161192f949392919061435b565b6020604051808303816000875af115801561194e573d6000803e3d6000fd5b505050506040513d601f19601f8201168201806040525081019061197291906143bc565b7bffffffffffffffffffffffffffffffffffffffffffffffffffffffff191614155b156119cb576040517f3da6393100000000000000000000000000000000000000000000000000000000815260040160405180910390fd5b50505050565b6000600654905090565b6119e3612957565b6119ed8282612c46565b5050565b60606119fc82612d0e565b604051602001611a0c919061444b565b6040516020818303038152906040529050919050565b42841015611a5c576040517f05787bdf00000000000000000000000000000000000000000000000000000000815260040160405180910390fd5b6006548511158015611a6e5750600085115b15611aa5576040517f1f3e0de800000000000000000000000000000000000000000000000000000000815260040160405180910390fd5b600073ffffffffffffffffffffffffffffffffffffffff168673ffffffffffffffffffffffffffffffffffffffff1603611b0b576040517f5461585f00000000000000000000000000000000000000000000000000000000815260040160405180910390fd5b60006001611b17611256565b7f6e71edae12b1b97f4d1f60370fef10105fa2faae0126114a169c64845d6126c98a8a8a600e60008f73ffffffffffffffffffffffffffffffffffffffff1673ffffffffffffffffffffffffffffffffffffffff1681526020019081526020016000206000815480929190600101919050558b604051602001611b9f96959493929190614471565b60405160208183030381529060405280519060200120604051602001611bc692919061451e565b6040516020818303038152906040528051906020012085858560405160008152602001604052604051611bfc9493929190614555565b6020604051602081039080840390855afa158015611c1e573d6000803e3d6000fd5b505050602060405103519050600073ffffffffffffffffffffffffffffffffffffffff168173ffffffffffffffffffffffffffffffffffffffff161480611c9157508773ffffffffffffffffffffffffffffffffffffffff168173ffffffffffffffffffffffffffffffffffffffff1614155b15611cc8576040517f815e1d6400000000000000000000000000000000000000000000000000000000815260040160405180910390fd5b85600860008373ffffffffffffffffffffffffffffffffffffffff1673ffffffffffffffffffffffffffffffffffffffff16815260200190815260200160002060008973ffffffffffffffffffffffffffffffffffffffff1673ffffffffffffffffffffffffffffffffffffffff16815260200190815260200160002081905550507f1f01303a1ce9329d9963e1937c201e23c5543a9e3536e9edead087aec7dc6d83878787604051611d7d93929190614207565b60405180910390a150505050505050565b611d96612957565b611d9e612ddc565b565b6008602052816000526040600020602052806000526040600020600091509150505481565b600a6020528160005260406000206020528060005260406000206000915091509054906101000a900460ff1681565b611dfc612957565b600073ffffffffffffffffffffffffffffffffffffffff168173ffffffffffffffffffffffffffffffffffffffff1603611e6e5760006040517f1e4fbdf7000000000000000000000000000000000000000000000000000000008152600401611e659190613a90565b60405180910390fd5b611e77816129de565b50565b60116020528060005260406000206000915054906101000a900460ff1681565b611ea2612957565b611eab81612e08565b50565b600080600b600084815260200190815260200160002054905073ffffffffffffffffffffffffffffffffffffffff8116915050919050565b60008160000160009054906101000a90046fffffffffffffffffffffffffffffffff168260000160109054906101000a90046fffffffffffffffffffffffffffffffff16036fffffffffffffffffffffffffffffffff169050919050565b600073ffffffffffffffffffffffffffffffffffffffff168373ffffffffffffffffffffffffffffffffffffffff1603611f96578060056000828254611f8a919061459a565b92505081905550611fed565b80600760008573ffffffffffffffffffffffffffffffffffffffff1673ffffffffffffffffffffffffffffffffffffffff1681526020019081526020016000206000828254611fe5919061426d565b925050819055505b80600760008473ffffffffffffffffffffffffffffffffffffffff1673ffffffffffffffffffffffffffffffffffffffff168152602001908152602001600020600082825401925050819055508173ffffffffffffffffffffffffffffffffffffffff168373ffffffffffffffffffffffffffffffffffffffff167fe59fdd36d0d223c0c7d996db7ad796880f45e1936cb0bb7ac102e7082e03148783604051612097919061395b565b60405180910390a3505050565b600073ffffffffffffffffffffffffffffffffffffffff168373ffffffffffffffffffffffffffffffffffffffff16146122a3576009600082815260200190815260200160002060006101000a81549073ffffffffffffffffffffffffffffffffffffffff02191690556000600c60008573ffffffffffffffffffffffffffffffffffffffff1673ffffffffffffffffffffffffffffffffffffffff1681526020019081526020016000206001600c60008773ffffffffffffffffffffffffffffffffffffffff1673ffffffffffffffffffffffffffffffffffffffff1681526020019081526020016000208054905061219e919061426d565b815481106121af576121ae6145ce565b5b9060005260206000200154905081811461223c5760006121ce83612e12565b905081600c60008773ffffffffffffffffffffffffffffffffffffffff1673ffffffffffffffffffffffffffffffffffffffff1681526020019081526020016000208281548110612222576122216145ce565b5b906000526020600020018190555061223a8282612e37565b505b600c60008573ffffffffffffffffffffffffffffffffffffffff1673ffffffffffffffffffffffffffffffffffffffff16815260200190815260200160002080548061228b5761228a6145fd565b5b60019003818190600052602060002001600090559055505b600073ffffffffffffffffffffffffffffffffffffffff168273ffffffffffffffffffffffffffffffffffffffff16146123a4576122e18183612f0a565b600c60008373ffffffffffffffffffffffffffffffffffffffff1673ffffffffffffffffffffffffffffffffffffffff16815260200190815260200160002081908060018154018082558091505060019003906000526020600020016000909190919091505561239f816001600c60008673ffffffffffffffffffffffffffffffffffffffff1673ffffffffffffffffffffffffffffffffffffffff1681526020019081526020016000208054905061239a919061426d565b612e37565b6123bc565b600b6000828152602001908152602001600020600090555b808273ffffffffffffffffffffffffffffffffffffffff168473ffffffffffffffffffffffffffffffffffffffff167fe5f815dc84b8cecdfd4beedfc3f91ab5be7af100eca4e8fb11552b867995394f60405160405180910390a4505050565b600080612428856108a0565b90506000612435856108a0565b9050612442868686611f44565b6000600d60008873ffffffffffffffffffffffffffffffffffffffff1673ffffffffffffffffffffffffffffffffffffffff16815260200190815260200160002060009054906101000a900460ff1690506000600d60008873ffffffffffffffffffffffffffffffffffffffff1673ffffffffffffffffffffffffffffffffffffffff16815260200190815260200160002060009054906101000a900460ff1690508180156124ee5750805b6128bc5781156125c55760007f000000000000000000000000000000000000000000000000000000000000000084612526919061465b565b7f0000000000000000000000000000000000000000000000000000000000000000600760008b73ffffffffffffffffffffffffffffffffffffffff1673ffffffffffffffffffffffffffffffffffffffff16815260200190815260200160002054612591919061465b565b61259b919061426d565b905060005b818110156125be576125b189612f7c565b80806001019150506125a0565b50506128bb565b80156126985760007f0000000000000000000000000000000000000000000000000000000000000000600760008b73ffffffffffffffffffffffffffffffffffffffff1673ffffffffffffffffffffffffffffffffffffffff16815260200190815260200160002054612638919061465b565b7f000000000000000000000000000000000000000000000000000000000000000086612664919061465b565b61266e919061426d565b905060005b81811015612691576126848a6130a4565b8080600101915050612673565b50506128ba565b60007f0000000000000000000000000000000000000000000000000000000000000000876126c6919061465b565b905060005b818110156127a05760006001600c60008d73ffffffffffffffffffffffffffffffffffffffff1673ffffffffffffffffffffffffffffffffffffffff16815260200190815260200160002080549050612724919061426d565b90506000600c60008d73ffffffffffffffffffffffffffffffffffffffff1673ffffffffffffffffffffffffffffffffffffffff1681526020019081526020016000208281548110612779576127786145ce565b5b906000526020600020015490506127918c8c836120a4565b828060010193505050506126cb565b5060007f0000000000000000000000000000000000000000000000000000000000000000886127cf919061468c565b90507f0000000000000000000000000000000000000000000000000000000000000000866127fd919061465b565b7f0000000000000000000000000000000000000000000000000000000000000000828861282a919061426d565b612834919061465b565b1015612844576128438a6130a4565b5b7f000000000000000000000000000000000000000000000000000000000000000085612870919061465b565b7f0000000000000000000000000000000000000000000000000000000000000000828761289d919061459a565b6128a7919061465b565b11156128b7576128b689612f7c565b5b50505b5b5b60019450505050509392505050565b60007f8b73c3c69bb8fe3d512ecc4cf759cc79239f7b179b0ffacaa9a75d522b39400f60036040516128fd9190614760565b60405180910390207fc89efdaa54c0f20c7adf612882df0950f5a951637e0307cdcb4c672f298b8bc6463060405160200161293c959493929190614777565b60405160208183030381529060405280519060200120905090565b61295f6131dc565b73ffffffffffffffffffffffffffffffffffffffff1661297d6114b2565b73ffffffffffffffffffffffffffffffffffffffff16146129dc576129a06131dc565b6040517f118cdaa70000000000000000000000000000000000000000000000000000000081526004016129d39190613a90565b60405180910390fd5b565b60008060009054906101000a900473ffffffffffffffffffffffffffffffffffffffff169050816000806101000a81548173ffffffffffffffffffffffffffffffffffffffff021916908373ffffffffffffffffffffffffffffffffffffffff1602179055508173ffffffffffffffffffffffffffffffffffffffff168173ffffffffffffffffffffffffffffffffffffffff167f8be0079c531659141344cd1fd0a4f28419497f9722a3daafe3b4186f6b6457e060405160405180910390a35050565b600082612aaf85846131e4565b1490509392505050565b6000801b6010541480612ad95750600f60009054906101000a900460ff16155b15612b10576040517f2a47e63200000000000000000000000000000000000000000000000000000000815260040160405180910390fd5b612b1b82338361323a565b5050565b600073ffffffffffffffffffffffffffffffffffffffff168373ffffffffffffffffffffffffffffffffffffffff1603612b85576040517f9c8d2cd200000000000000000000000000000000000000000000000000000000815260040160405180910390fd5b612b9160008484611f44565b808015612be85750600d60008473ffffffffffffffffffffffffffffffffffffffff1673ffffffffffffffffffffffffffffffffffffffff16815260200190815260200160002060009054906101000a900460ff16155b15612c415760007f000000000000000000000000000000000000000000000000000000000000000083612c1b919061465b565b905060005b81811015612c3e57612c3185612f7c565b8080600101915050612c20565b50505b505050565b7f0000000000000000000000000000000000000000000000000000000000000000612c70836108a0565b10158015612c7c575080155b15612cb3576040517f3908ab3c00000000000000000000000000000000000000000000000000000000815260040160405180910390fd5b80600d60008473ffffffffffffffffffffffffffffffffffffffff1673ffffffffffffffffffffffffffffffffffffffff16815260200190815260200160002060006101000a81548160ff0219169083151502179055505050565b606060006001612d1d8461335c565b01905060008167ffffffffffffffff811115612d3c57612d3b613bae565b5b6040519080825280601f01601f191660200182016040528015612d6e5781602001600182028036833780820191505090505b509050600082602001820190505b600115612dd1578080600190039150507f3031323334353637383961626364656600000000000000000000000000000000600a86061a8153600a8581612dc557612dc461462c565b5b04945060008503612d7c575b819350505050919050565b600f60009054906101000a900460ff1615600f60006101000a81548160ff021916908315150217905550565b8060108190555050565b600080600b60008481526020019081526020016000205490508060a01c915050919050565b6000600b600084815260200190815260200160002054905060a07fffffffffffffffffffffffff0000000000000000000000000000000000000000901c821115612ead576040517ffcb3438c00000000000000000000000000000000000000000000000000000000815260040160405180910390fd5b7fffffffffffffffffffffffff00000000000000000000000000000000000000008260a01b1673ffffffffffffffffffffffffffffffffffffffff821601905080600b600085815260200190815260200160002081905550505050565b6000600b600084815260200190815260200160002054905073ffffffffffffffffffffffffffffffffffffffff82167fffffffffffffffffffffffff0000000000000000000000000000000000000000821601905080600b600085815260200190815260200160002081905550505050565b600073ffffffffffffffffffffffffffffffffffffffff168173ffffffffffffffffffffffffffffffffffffffff1603612fe2576040517f9c8d2cd200000000000000000000000000000000000000000000000000000000815260040160405180910390fd5b6000612fee60016134af565b61300357612ffc600161351f565b9050613021565b60066000815480929190613016906147ca565b919050555060065490505b600061302c82611eae565b9050600073ffffffffffffffffffffffffffffffffffffffff168173ffffffffffffffffffffffffffffffffffffffff1614613094576040517f23369fa600000000000000000000000000000000000000000000000000000000815260040160405180910390fd5b61309f8184846120a4565b505050565b600073ffffffffffffffffffffffffffffffffffffffff168173ffffffffffffffffffffffffffffffffffffffff160361310a576040517fddb5de5e00000000000000000000000000000000000000000000000000000000815260040160405180910390fd5b6000600c60008373ffffffffffffffffffffffffffffffffffffffff1673ffffffffffffffffffffffffffffffffffffffff1681526020019081526020016000206001600c60008573ffffffffffffffffffffffffffffffffffffffff1673ffffffffffffffffffffffffffffffffffffffff1681526020019081526020016000208054905061319a919061426d565b815481106131ab576131aa6145ce565b5b906000526020600020015490506131c4826000836120a4565b6131d881600161368390919063ffffffff16565b5050565b600033905090565b60008082905060005b845181101561322f5761321a8286838151811061320d5761320c6145ce565b5b60200260200101516137a6565b91508080613227906147ca565b9150506131ed565b508091505092915050565b61324583838361138f565b61327b576040517f7745886e00000000000000000000000000000000000000000000000000000000815260040160405180910390fd5b601160008373ffffffffffffffffffffffffffffffffffffffff1673ffffffffffffffffffffffffffffffffffffffff16815260200190815260200160002060009054906101000a900460ff16156132ff576040517fe4ca4c0b00000000000000000000000000000000000000000000000000000000815260040160405180910390fd5b6001601160008473ffffffffffffffffffffffffffffffffffffffff1673ffffffffffffffffffffffffffffffffffffffff16815260200190815260200160002060006101000a81548160ff021916908315150217905550505050565b600080600090507a184f03e93ff9f4daa797ed6e38ed64bf6a1f01000000000000000083106133ba577a184f03e93ff9f4daa797ed6e38ed64bf6a1f01000000000000000083816133b0576133af61462c565b5b0492506040810190505b6d04ee2d6d415b85acef810000000083106133f7576d04ee2d6d415b85acef810000000083816133ed576133ec61462c565b5b0492506020810190505b662386f26fc10000831061342657662386f26fc10000838161341c5761341b61462c565b5b0492506010810190505b6305f5e100831061344f576305f5e10083816134455761344461462c565b5b0492506008810190505b612710831061347457612710838161346a5761346961462c565b5b0492506004810190505b60648310613497576064838161348d5761348c61462c565b5b0492506002810190505b600a83106134a6576001810190505b80915050919050565b60008160000160009054906101000a90046fffffffffffffffffffffffffffffffff166fffffffffffffffffffffffffffffffff168260000160109054906101000a90046fffffffffffffffffffffffffffffffff166fffffffffffffffffffffffffffffffff16149050919050565b6000808260000160109054906101000a90046fffffffffffffffffffffffffffffffff1690508260000160009054906101000a90046fffffffffffffffffffffffffffffffff166fffffffffffffffffffffffffffffffff16816fffffffffffffffffffffffffffffffff16036135c2576040517f75e52f4f00000000000000000000000000000000000000000000000000000000815260040160405180910390fd5b80600190039050826001016000826fffffffffffffffffffffffffffffffff166fffffffffffffffffffffffffffffffff168152602001908152602001600020549150826001016000826fffffffffffffffffffffffffffffffff166fffffffffffffffffffffffffffffffff16815260200190815260200160002060009055808360000160106101000a8154816fffffffffffffffffffffffffffffffff02191690836fffffffffffffffffffffffffffffffff16021790555050919050565b600060018360000160009054906101000a90046fffffffffffffffffffffffffffffffff160390508260000160109054906101000a90046fffffffffffffffffffffffffffffffff166fffffffffffffffffffffffffffffffff16816fffffffffffffffffffffffffffffffff1603613728576040517f8acb5f2700000000000000000000000000000000000000000000000000000000815260040160405180910390fd5b81836001016000836fffffffffffffffffffffffffffffffff166fffffffffffffffffffffffffffffffff16815260200190815260200160002081905550808360000160006101000a8154816fffffffffffffffffffffffffffffffff02191690836fffffffffffffffffffffffffffffffff160217905550505050565b60008183106137be576137b982846137d1565b6137c9565b6137c883836137d1565b5b905092915050565b600082600052816020526040600020905092915050565b6000604051905090565b600080fd5b600080fd5b60007fffffffff0000000000000000000000000000000000000000000000000000000082169050919050565b613831816137fc565b811461383c57600080fd5b50565b60008135905061384e81613828565b92915050565b60006020828403121561386a576138696137f2565b5b60006138788482850161383f565b91505092915050565b60008115159050919050565b61389681613881565b82525050565b60006020820190506138b1600083018461388d565b92915050565b600073ffffffffffffffffffffffffffffffffffffffff82169050919050565b60006138e2826138b7565b9050919050565b6138f2816138d7565b81146138fd57600080fd5b50565b60008135905061390f816138e9565b92915050565b60006020828403121561392b5761392a6137f2565b5b600061393984828501613900565b91505092915050565b6000819050919050565b61395581613942565b82525050565b6000602082019050613970600083018461394c565b92915050565b600081519050919050565b600082825260208201905092915050565b60005b838110156139b0578082015181840152602081019050613995565b60008484015250505050565b6000601f19601f8301169050919050565b60006139d882613976565b6139e28185613981565b93506139f2818560208601613992565b6139fb816139bc565b840191505092915050565b60006020820190508181036000830152613a2081846139cd565b905092915050565b613a3181613942565b8114613a3c57600080fd5b50565b600081359050613a4e81613a28565b92915050565b600060208284031215613a6a57613a696137f2565b5b6000613a7884828501613a3f565b91505092915050565b613a8a816138d7565b82525050565b6000602082019050613aa56000830184613a81565b92915050565b60008060408385031215613ac257613ac16137f2565b5b6000613ad085828601613900565b9250506020613ae185828601613a3f565b9150509250929050565b600080600060608486031215613b0457613b036137f2565b5b6000613b1286828701613900565b9350506020613b2386828701613900565b9250506040613b3486828701613a3f565b9150509250925092565b600060ff82169050919050565b613b5481613b3e565b82525050565b6000602082019050613b6f6000830184613b4b565b92915050565b6000819050919050565b613b8881613b75565b82525050565b6000602082019050613ba36000830184613b7f565b92915050565b600080fd5b7f4e487b7100000000000000000000000000000000000000000000000000000000600052604160045260246000fd5b613be6826139bc565b810181811067ffffffffffffffff82111715613c0557613c04613bae565b5b80604052505050565b6000613c186137e8565b9050613c248282613bdd565b919050565b600067ffffffffffffffff821115613c4457613c43613bae565b5b602082029050602081019050919050565b600080fd5b613c6381613b75565b8114613c6e57600080fd5b50565b600081359050613c8081613c5a565b92915050565b6000613c99613c9484613c29565b613c0e565b90508083825260208201905060208402830185811115613cbc57613cbb613c55565b5b835b81811015613ce55780613cd18882613c71565b845260208401935050602081019050613cbe565b5050509392505050565b600082601f830112613d0457613d03613ba9565b5b8135613d14848260208601613c86565b91505092915050565b600080600060608486031215613d3657613d356137f2565b5b600084013567ffffffffffffffff811115613d5457613d536137f7565b5b613d6086828701613cef565b9350506020613d7186828701613900565b9250506040613d8286828701613a3f565b9150509250925092565b60008060408385031215613da357613da26137f2565b5b600083013567ffffffffffffffff811115613dc157613dc06137f7565b5b613dcd85828601613cef565b9250506020613dde85828601613a3f565b9150509250929050565b613df181613881565b8114613dfc57600080fd5b50565b600081359050613e0e81613de8565b92915050565b60008060408385031215613e2b57613e2a6137f2565b5b6000613e3985828601613900565b9250506020613e4a85828601613dff565b9150509250929050565b600081519050919050565b600082825260208201905092915050565b6000819050602082019050919050565b613e8981613942565b82525050565b6000613e9b8383613e80565b60208301905092915050565b6000602082019050919050565b6000613ebf82613e54565b613ec98185613e5f565b9350613ed483613e70565b8060005b83811015613f05578151613eec8882613e8f565b9750613ef783613ea7565b925050600181019050613ed8565b5085935050505092915050565b60006020820190508181036000830152613f2c8184613eb4565b905092915050565b600080fd5b600067ffffffffffffffff821115613f5457613f53613bae565b5b613f5d826139bc565b9050602081019050919050565b82818337600083830152505050565b6000613f8c613f8784613f39565b613c0e565b905082815260208101848484011115613fa857613fa7613f34565b5b613fb3848285613f6a565b509392505050565b600082601f830112613fd057613fcf613ba9565b5b8135613fe0848260208601613f79565b91505092915050565b60008060008060808587031215614003576140026137f2565b5b600061401187828801613900565b945050602061402287828801613900565b935050604061403387828801613a3f565b925050606085013567ffffffffffffffff811115614054576140536137f7565b5b61406087828801613fbb565b91505092959194509250565b61407581613b3e565b811461408057600080fd5b50565b6000813590506140928161406c565b92915050565b600080600080600080600060e0888a0312156140b7576140b66137f2565b5b60006140c58a828b01613900565b97505060206140d68a828b01613900565b96505060406140e78a828b01613a3f565b95505060606140f88a828b01613a3f565b94505060806141098a828b01614083565b93505060a061411a8a828b01613c71565b92505060c061412b8a828b01613c71565b91505092959891949750929550565b60008060408385031215614151576141506137f2565b5b600061415f85828601613900565b925050602061417085828601613900565b9150509250929050565b6000602082840312156141905761418f6137f2565b5b600061419e84828501613c71565b91505092915050565b7f4e487b7100000000000000000000000000000000000000000000000000000000600052602260045260246000fd5b600060028204905060018216806141ee57607f821691505b602082108103614201576142006141a7565b5b50919050565b600060608201905061421c6000830186613a81565b6142296020830185613a81565b614236604083018461394c565b949350505050565b7f4e487b7100000000000000000000000000000000000000000000000000000000600052601160045260246000fd5b600061427882613942565b915061428383613942565b925082820390508181111561429b5761429a61423e565b5b92915050565b60006040820190506142b66000830185613a81565b6142c3602083018461394c565b9392505050565b6000819050919050565b6142e56142e082613b75565b6142ca565b82525050565b60006142f782846142d4565b60208201915081905092915050565b600081519050919050565b600082825260208201905092915050565b600061432d82614306565b6143378185614311565b9350614347818560208601613992565b614350816139bc565b840191505092915050565b60006080820190506143706000830187613a81565b61437d6020830186613a81565b61438a604083018561394c565b818103606083015261439c8184614322565b905095945050505050565b6000815190506143b681613828565b92915050565b6000602082840312156143d2576143d16137f2565b5b60006143e0848285016143a7565b91505092915050565b7f68747470733a2f2f6578616d706c652e636f6d2f746f6b656e2f000000000000815250565b600081905092915050565b600061442582613976565b61442f818561440f565b935061443f818560208601613992565b80840191505092915050565b6000614456826143e9565b601a82019150614466828461441a565b915081905092915050565b600060c0820190506144866000830189613b7f565b6144936020830188613a81565b6144a06040830187613a81565b6144ad606083018661394c565b6144ba608083018561394c565b6144c760a083018461394c565b979650505050505050565b7f1901000000000000000000000000000000000000000000000000000000000000600082015250565b600061450860028361440f565b9150614513826144d2565b600282019050919050565b6000614529826144fb565b915061453582856142d4565b60208201915061454582846142d4565b6020820191508190509392505050565b600060808201905061456a6000830187613b7f565b6145776020830186613b4b565b6145846040830185613b7f565b6145916060830184613b7f565b95945050505050565b60006145a582613942565b91506145b083613942565b92508282019050808211156145c8576145c761423e565b5b92915050565b7f4e487b7100000000000000000000000000000000000000000000000000000000600052603260045260246000fd5b7f4e487b7100000000000000000000000000000000000000000000000000000000600052603160045260246000fd5b7f4e487b7100000000000000000000000000000000000000000000000000000000600052601260045260246000fd5b600061466682613942565b915061467183613942565b9250826146815761468061462c565b5b828204905092915050565b600061469782613942565b91506146a283613942565b9250826146b2576146b161462c565b5b828206905092915050565b600081905092915050565b60008190508160005260206000209050919050565b600081546146ea816141d6565b6146f481866146bd565b9450600182166000811461470f576001811461472457614757565b60ff1983168652811515820286019350614757565b61472d856146c8565b60005b8381101561474f57815481890152600182019150602081019050614730565b838801955050505b50505092915050565b600061476c82846146dd565b915081905092915050565b600060a08201905061478c6000830188613b7f565b6147996020830187613b7f565b6147a66040830186613b7f565b6147b3606083018561394c565b6147c06080830184613a81565b9695505050505050565b60006147d582613942565b91507fffffffffffffffffffffffffffffffffffffffffffffffffffffffffffffffff82036148075761480661423e565b5b60018201905091905056fea2646970667358221220ca72d421c45a93b27338cde0d527e36642a88c203289da48aa63c617f801147c64736f6c63430008140033",
  "linkReferences": {},
  "deployedLinkReferences": {}
}