{
  "_format": "hh-sol-artifact-1",
  "contractName": "SohailStandardERC721A",
  "sourceName": "contracts/contracts/ERC721/ERC721a-standard.sol",
  "abi": [
    {
      "inputs": [
        {
          "internalType": "string",
          "name": "_name",
          "type": "string"
        },
        {
          "internalType": "string",
          "name": "_symbol",
          "type": "string"
        },
        {
          "internalType": "string",
          "name": "_uri",
          "type": "string"
        },
        {
          "internalType": "uint256",
          "name": "price",
          "type": "uint256"
        },
        {
          "internalType": "uint256",
          "name": "maxSupply",
          "type": "uint256"
        }
      ],
      "stateMutability": "payable",
      "type": "constructor"
    },
    {
      "inputs": [],
      "name": "ApprovalCallerNotOwnerNorApproved",
      "type": "error"
    },
    {
      "inputs": [],
      "name": "ApprovalQueryForNonexistentToken",
      "type": "error"
    },
    {
      "inputs": [],
      "name": "ApprovalToCurrentOwner",
      "type": "error"
    },
    {
      "inputs": [],
      "name": "ApproveToCaller",
      "type": "error"
    },
    {
      "inputs": [],
      "name": "BalanceQueryForZeroAddress",
      "type": "error"
    },
    {
      "inputs": [],
      "name": "MintToZeroAddress",
      "type": "error"
    },
    {
      "inputs": [],
      "name": "MintZeroQuantity",
      "type": "error"
    },
    {
      "inputs": [],
      "name": "OwnerQueryForNonexistentToken",
      "type": "error"
    },
    {
      "inputs": [],
      "name": "TransferCallerNotOwnerNorApproved",
      "type": "error"
    },
    {
      "inputs": [],
      "name": "TransferFromIncorrectOwner",
      "type": "error"
    },
    {
      "inputs": [],
      "name": "TransferToNonERC721ReceiverImplementer",
      "type": "error"
    },
    {
      "inputs": [],
      "name": "TransferToZeroAddress",
      "type": "error"
    },
    {
      "inputs": [],
      "name": "URIQueryForNonexistentToken",
      "type": "error"
    },
    {
      "anonymous": false,
      "inputs": [
        {
          "indexed": true,
          "internalType": "address",
          "name": "owner",
          "type": "address"
        },
        {
          "indexed": true,
          "internalType": "address",
          "name": "approved",
          "type": "address"
        },
        {
          "indexed": true,
          "internalType": "uint256",
          "name": "tokenId",
          "type": "uint256"
        }
      ],
      "name": "Approval",
      "type": "event"
    },
    {
      "anonymous": false,
      "inputs": [
        {
          "indexed": true,
          "internalType": "address",
          "name": "owner",
          "type": "address"
        },
        {
          "indexed": true,
          "internalType": "address",
          "name": "operator",
          "type": "address"
        },
        {
          "indexed": false,
          "internalType": "bool",
          "name": "approved",
          "type": "bool"
        }
      ],
      "name": "ApprovalForAll",
      "type": "event"
    },
    {
      "anonymous": false,
      "inputs": [
        {
          "indexed": true,
          "internalType": "address",
          "name": "previousOwner",
          "type": "address"
        },
        {
          "indexed": true,
          "internalType": "address",
          "name": "newOwner",
          "type": "address"
        }
      ],
      "name": "OwnershipTransferred",
      "type": "event"
    },
    {
      "anonymous": false,
      "inputs": [
        {
          "indexed": true,
          "internalType": "address",
          "name": "from",
          "type": "address"
        },
        {
          "indexed": true,
          "internalType": "address",
          "name": "to",
          "type": "address"
        },
        {
          "indexed": true,
          "internalType": "uint256",
          "name": "tokenId",
          "type": "uint256"
        }
      ],
      "name": "Transfer",
      "type": "event"
    },
    {
      "inputs": [],
      "name": "MAX_SUPPLY",
      "outputs": [
        {
          "internalType": "uint256",
          "name": "",
          "type": "uint256"
        }
      ],
      "stateMutability": "view",
      "type": "function"
    },
    {
      "inputs": [
        {
          "internalType": "address",
          "name": "to",
          "type": "address"
        },
        {
          "internalType": "uint256",
          "name": "tokenId",
          "type": "uint256"
        }
      ],
      "name": "approve",
      "outputs": [],
      "stateMutability": "nonpayable",
      "type": "function"
    },
    {
      "inputs": [
        {
          "internalType": "address",
          "name": "owner",
          "type": "address"
        }
      ],
      "name": "balanceOf",
      "outputs": [
        {
          "internalType": "uint256",
          "name": "",
          "type": "uint256"
        }
      ],
      "stateMutability": "view",
      "type": "function"
    },
    {
      "inputs": [],
      "name": "currentPrice",
      "outputs": [
        {
          "internalType": "uint256",
          "name": "",
          "type": "uint256"
        }
      ],
      "stateMutability": "view",
      "type": "function"
    },
    {
      "inputs": [
        {
          "internalType": "uint256",
          "name": "tokenId",
          "type": "uint256"
        }
      ],
      "name": "getApproved",
      "outputs": [
        {
          "internalType": "address",
          "name": "",
          "type": "address"
        }
      ],
      "stateMutability": "view",
      "type": "function"
    },
    {
      "inputs": [
        {
          "internalType": "address",
          "name": "owner",
          "type": "address"
        },
        {
          "internalType": "address",
          "name": "operator",
          "type": "address"
        }
      ],
      "name": "isApprovedForAll",
      "outputs": [
        {
          "internalType": "bool",
          "name": "",
          "type": "bool"
        }
      ],
      "stateMutability": "view",
      "type": "function"
    },
    {
      "inputs": [
        {
          "internalType": "uint256",
          "name": "amount",
          "type": "uint256"
        }
      ],
      "name": "mint",
      "outputs": [],
      "stateMutability": "payable",
      "type": "function"
    },
    {
      "inputs": [],
      "name": "name",
      "outputs": [
        {
          "internalType": "string",
          "name": "",
          "type": "string"
        }
      ],
      "stateMutability": "view",
      "type": "function"
    },
    {
      "inputs": [],
      "name": "owner",
      "outputs": [
        {
          "internalType": "address",
          "name": "",
          "type": "address"
        }
      ],
      "stateMutability": "view",
      "type": "function"
    },
    {
      "inputs": [
        {
          "internalType": "uint256",
          "name": "tokenId",
          "type": "uint256"
        }
      ],
      "name": "ownerOf",
      "outputs": [
        {
          "internalType": "address",
          "name": "",
          "type": "address"
        }
      ],
      "stateMutability": "view",
      "type": "function"
    },
    {
      "inputs": [],
      "name": "renounceOwnership",
      "outputs": [],
      "stateMutability": "nonpayable",
      "type": "function"
    },
    {
      "inputs": [
        {
          "internalType": "address",
          "name": "to",
          "type": "address"
        },
        {
          "internalType": "uint256",
          "name": "amount",
          "type": "uint256"
        }
      ],
      "name": "reserve",
      "outputs": [],
      "stateMutability": "nonpayable",
      "type": "function"
    },
    {
      "inputs": [
        {
          "internalType": "address",
          "name": "from",
          "type": "address"
        },
        {
          "internalType": "address",
          "name": "to",
          "type": "address"
        },
        {
          "internalType": "uint256",
          "name": "tokenId",
          "type": "uint256"
        }
      ],
      "name": "safeTransferFrom",
      "outputs": [],
      "stateMutability": "nonpayable",
      "type": "function"
    },
    {
      "inputs": [
        {
          "internalType": "address",
          "name": "from",
          "type": "address"
        },
        {
          "internalType": "address",
          "name": "to",
          "type": "address"
        },
        {
          "internalType": "uint256",
          "name": "tokenId",
          "type": "uint256"
        },
        {
          "internalType": "bytes",
          "name": "_data",
          "type": "bytes"
        }
      ],
      "name": "safeTransferFrom",
      "outputs": [],
      "stateMutability": "nonpayable",
      "type": "function"
    },
    {
      "inputs": [],
      "name": "saleIsActive",
      "outputs": [
        {
          "internalType": "bool",
          "name": "",
          "type": "bool"
        }
      ],
      "stateMutability": "view",
      "type": "function"
    },
    {
      "inputs": [
        {
          "internalType": "address",
          "name": "operator",
          "type": "address"
        },
        {
          "internalType": "bool",
          "name": "approved",
          "type": "bool"
        }
      ],
      "name": "setApprovalForAll",
      "outputs": [],
      "stateMutability": "nonpayable",
      "type": "function"
    },
    {
      "inputs": [
        {
          "internalType": "string",
          "name": "baseURI_",
          "type": "string"
        }
      ],
      "name": "setBaseURI",
      "outputs": [],
      "stateMutability": "nonpayable",
      "type": "function"
    },
    {
      "inputs": [
        {
          "internalType": "uint256",
          "name": "price",
          "type": "uint256"
        }
      ],
      "name": "setCurrentPrice",
      "outputs": [],
      "stateMutability": "nonpayable",
      "type": "function"
    },
    {
      "inputs": [
        {
          "internalType": "bool",
          "name": "isActive",
          "type": "bool"
        }
      ],
      "name": "setSaleIsActive",
      "outputs": [],
      "stateMutability": "nonpayable",
      "type": "function"
    },
    {
      "inputs": [
        {
          "internalType": "bytes4",
          "name": "interfaceId",
          "type": "bytes4"
        }
      ],
      "name": "supportsInterface",
      "outputs": [
        {
          "internalType": "bool",
          "name": "",
          "type": "bool"
        }
      ],
      "stateMutability": "view",
      "type": "function"
    },
    {
      "inputs": [],
      "name": "symbol",
      "outputs": [
        {
          "internalType": "string",
          "name": "",
          "type": "string"
        }
      ],
      "stateMutability": "view",
      "type": "function"
    },
    {
      "inputs": [
        {
          "internalType": "uint256",
          "name": "tokenId",
          "type": "uint256"
        }
      ],
      "name": "tokenURI",
      "outputs": [
        {
          "internalType": "string",
          "name": "",
          "type": "string"
        }
      ],
      "stateMutability": "view",
      "type": "function"
    },
    {
      "inputs": [],
      "name": "totalSupply",
      "outputs": [
        {
          "internalType": "uint256",
          "name": "",
          "type": "uint256"
        }
      ],
      "stateMutability": "view",
      "type": "function"
    },
    {
      "inputs": [
        {
          "internalType": "address",
          "name": "from",
          "type": "address"
        },
        {
          "internalType": "address",
          "name": "to",
          "type": "address"
        },
        {
          "internalType": "uint256",
          "name": "tokenId",
          "type": "uint256"
        }
      ],
      "name": "transferFrom",
      "outputs": [],
      "stateMutability": "nonpayable",
      "type": "function"
    },
    {
      "inputs": [
        {
          "internalType": "address",
          "name": "newOwner",
          "type": "address"
        }
      ],
      "name": "transferOwnership",
      "outputs": [],
      "stateMutability": "nonpayable",
      "type": "function"
    },
    {
      "inputs": [],
      "name": "walletLimit",
      "outputs": [
        {
          "internalType": "uint256",
          "name": "",
          "type": "uint256"
        }
      ],
      "stateMutability": "view",
      "type": "function"
    },
    {
      "inputs": [],
      "name": "withdraw",
      "outputs": [],
      "stateMutability": "nonpayable",
      "type": "function"
    }
  ],
  "bytecode": "0x60a06040526001600860146101000a81548160ff02191690831515021790555060405162003715380380620037158339818101604052810190620000449190620002ef565b848481600290805190602001906200005e929190620001b6565b50806003908051906020019062000077929190620001b6565b5062000088620000e360201b60201c565b6000819055505050620000b0620000a4620000e860201b60201c565b620000f060201b60201c565b8260099080519060200190620000c8929190620001b6565b5081600a819055508060808181525050505050505062000550565b600090565b600033905090565b6000600860009054906101000a900473ffffffffffffffffffffffffffffffffffffffff16905081600860006101000a81548173ffffffffffffffffffffffffffffffffffffffff021916908373ffffffffffffffffffffffffffffffffffffffff1602179055508173ffffffffffffffffffffffffffffffffffffffff168173ffffffffffffffffffffffffffffffffffffffff167f8be0079c531659141344cd1fd0a4f28419497f9722a3daafe3b4186f6b6457e060405160405180910390a35050565b828054620001c4906200045b565b90600052602060002090601f016020900481019282620001e8576000855562000234565b82601f106200020357805160ff191683800117855562000234565b8280016001018555821562000234579182015b828111156200023357825182559160200191906001019062000216565b5b50905062000243919062000247565b5090565b5b808211156200026257600081600090555060010162000248565b5090565b60006200027d6200027784620003e5565b620003bc565b9050828152602081018484840111156200029657600080fd5b620002a384828562000425565b509392505050565b600082601f830112620002bd57600080fd5b8151620002cf84826020860162000266565b91505092915050565b600081519050620002e98162000536565b92915050565b600080600080600060a086880312156200030857600080fd5b600086015167ffffffffffffffff8111156200032357600080fd5b6200033188828901620002ab565b955050602086015167ffffffffffffffff8111156200034f57600080fd5b6200035d88828901620002ab565b945050604086015167ffffffffffffffff8111156200037b57600080fd5b6200038988828901620002ab565b93505060606200039c88828901620002d8565b9250506080620003af88828901620002d8565b9150509295509295909350565b6000620003c8620003db565b9050620003d6828262000491565b919050565b6000604051905090565b600067ffffffffffffffff821115620004035762000402620004f6565b5b6200040e8262000525565b9050602081019050919050565b6000819050919050565b60005b838110156200044557808201518184015260208101905062000428565b8381111562000455576000848401525b50505050565b600060028204905060018216806200047457607f821691505b602082108114156200048b576200048a620004c7565b5b50919050565b6200049c8262000525565b810181811067ffffffffffffffff82111715620004be57620004bd620004f6565b5b80604052505050565b7f4e487b7100000000000000000000000000000000000000000000000000000000600052602260045260246000fd5b7f4e487b7100000000000000000000000000000000000000000000000000000000600052604160045260246000fd5b6000601f19601f8301169050919050565b62000541816200041b565b81146200054d57600080fd5b50565b60805161319b6200057a600039600081816109a601528181610c800152610ff2015261319b6000f3fe60806040526004361061019c5760003560e01c80636352211e116100ec578063a22cb4651161008a578063cc47a40b11610064578063cc47a40b14610591578063e985e9c5146105ba578063eb8d2444146105f7578063f2fde38b146106225761019c565b8063a22cb46514610502578063b88d4fde1461052b578063c87b56dd146105545761019c565b80638da5cb5b116100c65780638da5cb5b1461046557806395d89b41146104905780639d1b464a146104bb578063a0712d68146104e65761019c565b80636352211e146103d457806370a0823114610411578063715018a61461044e5761019c565b806318b20071116101595780633c8463a1116101335780633c8463a1146103405780633ccfd60b1461036b57806342842e0e1461038257806355f804b3146103ab5761019c565b806318b20071146102c357806323b872dd146102ec57806332cb6b0c146103155761019c565b806301ffc9a7146101a157806302c88989146101de57806306fdde0314610207578063081812fc14610232578063095ea7b31461026f57806318160ddd14610298575b600080fd5b3480156101ad57600080fd5b506101c860048036038101906101c39190612901565b61064b565b6040516101d59190612bc7565b60405180910390f35b3480156101ea57600080fd5b50610205600480360381019061020091906128d8565b61072d565b005b34801561021357600080fd5b5061021c610752565b6040516102299190612be2565b60405180910390f35b34801561023e57600080fd5b5061025960048036038101906102549190612994565b6107e4565b6040516102669190612b60565b60405180910390f35b34801561027b57600080fd5b506102966004803603810190610291919061289c565b610860565b005b3480156102a457600080fd5b506102ad61096b565b6040516102ba9190612ca4565b60405180910390f35b3480156102cf57600080fd5b506102ea60048036038101906102e59190612994565b610982565b005b3480156102f857600080fd5b50610313600480360381019061030e9190612796565b610994565b005b34801561032157600080fd5b5061032a6109a4565b6040516103379190612ca4565b60405180910390f35b34801561034c57600080fd5b506103556109c8565b6040516103629190612ca4565b60405180910390f35b34801561037757600080fd5b506103806109ce565b005b34801561038e57600080fd5b506103a960048036038101906103a49190612796565b610a25565b005b3480156103b757600080fd5b506103d260048036038101906103cd9190612953565b610a45565b005b3480156103e057600080fd5b506103fb60048036038101906103f69190612994565b610a67565b6040516104089190612b60565b60405180910390f35b34801561041d57600080fd5b5061043860048036038101906104339190612731565b610a7d565b6040516104459190612ca4565b60405180910390f35b34801561045a57600080fd5b50610463610b4d565b005b34801561047157600080fd5b5061047a610b61565b6040516104879190612b60565b60405180910390f35b34801561049c57600080fd5b506104a5610b8b565b6040516104b29190612be2565b60405180910390f35b3480156104c757600080fd5b506104d0610c1d565b6040516104dd9190612ca4565b60405180910390f35b61050060048036038101906104fb9190612994565b610c23565b005b34801561050e57600080fd5b5061052960048036038101906105249190612860565b610d49565b005b34801561053757600080fd5b50610552600480360381019061054d91906127e5565b610ec1565b005b34801561056057600080fd5b5061057b60048036038101906105769190612994565b610f3d565b6040516105889190612be2565b60405180910390f35b34801561059d57600080fd5b506105b860048036038101906105b3919061289c565b610fdc565b005b3480156105c657600080fd5b506105e160048036038101906105dc919061275a565b61106d565b6040516105ee9190612bc7565b60405180910390f35b34801561060357600080fd5b5061060c611101565b6040516106199190612bc7565b60405180910390f35b34801561062e57600080fd5b5061064960048036038101906106449190612731565b611114565b005b60007f80ac58cd000000000000000000000000000000000000000000000000000000007bffffffffffffffffffffffffffffffffffffffffffffffffffffffff1916827bffffffffffffffffffffffffffffffffffffffffffffffffffffffff1916148061071657507f5b5e139f000000000000000000000000000000000000000000000000000000007bffffffffffffffffffffffffffffffffffffffffffffffffffffffff1916827bffffffffffffffffffffffffffffffffffffffffffffffffffffffff1916145b80610726575061072582611198565b5b9050919050565b610735611202565b80600860146101000a81548160ff02191690831515021790555050565b60606002805461076190612eef565b80601f016020809104026020016040519081016040528092919081815260200182805461078d90612eef565b80156107da5780601f106107af576101008083540402835291602001916107da565b820191906000526020600020905b8154815290600101906020018083116107bd57829003601f168201915b5050505050905090565b60006107ef82611280565b610825576040517fcf4700e400000000000000000000000000000000000000000000000000000000815260040160405180910390fd5b6006600083815260200190815260200160002060009054906101000a900473ffffffffffffffffffffffffffffffffffffffff169050919050565b600061086b82610a67565b90508073ffffffffffffffffffffffffffffffffffffffff168373ffffffffffffffffffffffffffffffffffffffff1614156108d3576040517f943f7b8c00000000000000000000000000000000000000000000000000000000815260040160405180910390fd5b8073ffffffffffffffffffffffffffffffffffffffff166108f26112ce565b73ffffffffffffffffffffffffffffffffffffffff161415801561092457506109228161091d6112ce565b61106d565b155b1561095b576040517fcfb3b94200000000000000000000000000000000000000000000000000000000815260040160405180910390fd5b6109668383836112d6565b505050565b6000610975611388565b6001546000540303905090565b61098a611202565b80600a8190555050565b61099f83838361138d565b505050565b7f000000000000000000000000000000000000000000000000000000000000000081565b600b5481565b6109d6611202565b60004790503373ffffffffffffffffffffffffffffffffffffffff166108fc829081150290604051600060405180830381858888f19350505050158015610a21573d6000803e3d6000fd5b5050565b610a4083838360405180602001604052806000815250610ec1565b505050565b610a4d611202565b8060099080519060200190610a63929190612512565b5050565b6000610a7282611843565b600001519050919050565b60008073ffffffffffffffffffffffffffffffffffffffff168273ffffffffffffffffffffffffffffffffffffffff161415610ae5576040517f8f4eb60400000000000000000000000000000000000000000000000000000000815260040160405180910390fd5b600560008373ffffffffffffffffffffffffffffffffffffffff1673ffffffffffffffffffffffffffffffffffffffff16815260200190815260200160002060000160009054906101000a900467ffffffffffffffff1667ffffffffffffffff169050919050565b610b55611202565b610b5f6000611ad2565b565b6000600860009054906101000a900473ffffffffffffffffffffffffffffffffffffffff16905090565b606060038054610b9a90612eef565b80601f0160208091040260200160405190810160405280929190818152602001828054610bc690612eef565b8015610c135780601f10610be857610100808354040283529160200191610c13565b820191906000526020600020905b815481529060010190602001808311610bf657829003601f168201915b5050505050905090565b600a5481565b6000610c2d61096b565b9050600860149054906101000a900460ff16610c7e576040517f08c379a0000000000000000000000000000000000000000000000000000000008152600401610c7590612c84565b60405180910390fd5b7f00000000000000000000000000000000000000000000000000000000000000008282610cab9190612d89565b1115610cec576040517f08c379a0000000000000000000000000000000000000000000000000000000008152600401610ce390612c24565b60405180910390fd5b3482600a54610cfb9190612ddf565b14610d3b576040517f08c379a0000000000000000000000000000000000000000000000000000000008152600401610d3290612c44565b60405180910390fd5b610d453383611b98565b5050565b610d516112ce565b73ffffffffffffffffffffffffffffffffffffffff168273ffffffffffffffffffffffffffffffffffffffff161415610db6576040517fb06307db00000000000000000000000000000000000000000000000000000000815260040160405180910390fd5b8060076000610dc36112ce565b73ffffffffffffffffffffffffffffffffffffffff1673ffffffffffffffffffffffffffffffffffffffff16815260200190815260200160002060008473ffffffffffffffffffffffffffffffffffffffff1673ffffffffffffffffffffffffffffffffffffffff16815260200190815260200160002060006101000a81548160ff0219169083151502179055508173ffffffffffffffffffffffffffffffffffffffff16610e706112ce565b73ffffffffffffffffffffffffffffffffffffffff167f17307eab39ab6107e8899845ad3d59bd9653f200f220920489ca2b5937696c3183604051610eb59190612bc7565b60405180910390a35050565b610ecc84848461138d565b610eeb8373ffffffffffffffffffffffffffffffffffffffff16611bb6565b8015610f005750610efe84848484611bd9565b155b15610f37576040517fd1a57ed600000000000000000000000000000000000000000000000000000000815260040160405180910390fd5b50505050565b6060610f4882611280565b610f7e576040517fa14c4b5000000000000000000000000000000000000000000000000000000000815260040160405180910390fd5b6000610f88611d39565b9050600081511415610fa95760405180602001604052806000815250610fd4565b80610fb384611dcb565b604051602001610fc4929190612b3c565b6040516020818303038152906040525b915050919050565b610fe4611202565b6000610fee61096b565b90507f0000000000000000000000000000000000000000000000000000000000000000828261101d9190612d89565b111561105e576040517f08c379a000000000000000000000000000000000000000000000000000000000815260040161105590612c24565b60405180910390fd5b6110688383611b98565b505050565b6000600760008473ffffffffffffffffffffffffffffffffffffffff1673ffffffffffffffffffffffffffffffffffffffff16815260200190815260200160002060008373ffffffffffffffffffffffffffffffffffffffff1673ffffffffffffffffffffffffffffffffffffffff16815260200190815260200160002060009054906101000a900460ff16905092915050565b600860149054906101000a900460ff1681565b61111c611202565b600073ffffffffffffffffffffffffffffffffffffffff168173ffffffffffffffffffffffffffffffffffffffff16141561118c576040517f08c379a000000000000000000000000000000000000000000000000000000000815260040161118390612c04565b60405180910390fd5b61119581611ad2565b50565b60007f01ffc9a7000000000000000000000000000000000000000000000000000000007bffffffffffffffffffffffffffffffffffffffffffffffffffffffff1916827bffffffffffffffffffffffffffffffffffffffffffffffffffffffff1916149050919050565b61120a6112ce565b73ffffffffffffffffffffffffffffffffffffffff16611228610b61565b73ffffffffffffffffffffffffffffffffffffffff161461127e576040517f08c379a000000000000000000000000000000000000000000000000000000000815260040161127590612c64565b60405180910390fd5b565b60008161128b611388565b1115801561129a575060005482105b80156112c7575060046000838152602001908152602001600020600001601c9054906101000a900460ff16155b9050919050565b600033905090565b826006600084815260200190815260200160002060006101000a81548173ffffffffffffffffffffffffffffffffffffffff021916908373ffffffffffffffffffffffffffffffffffffffff160217905550818373ffffffffffffffffffffffffffffffffffffffff168273ffffffffffffffffffffffffffffffffffffffff167f8c5be1e5ebec7d5bd14f71427d1e84f3dd0314c0f7b2291e5b200ac8c7c3b92560405160405180910390a4505050565b600090565b600061139882611843565b90508373ffffffffffffffffffffffffffffffffffffffff16816000015173ffffffffffffffffffffffffffffffffffffffff1614611403576040517fa114810000000000000000000000000000000000000000000000000000000000815260040160405180910390fd5b60008473ffffffffffffffffffffffffffffffffffffffff166114246112ce565b73ffffffffffffffffffffffffffffffffffffffff16148061145357506114528561144d6112ce565b61106d565b5b8061149857506114616112ce565b73ffffffffffffffffffffffffffffffffffffffff16611480846107e4565b73ffffffffffffffffffffffffffffffffffffffff16145b9050806114d1576040517f59c896be00000000000000000000000000000000000000000000000000000000815260040160405180910390fd5b600073ffffffffffffffffffffffffffffffffffffffff168473ffffffffffffffffffffffffffffffffffffffff161415611538576040517fea553b3400000000000000000000000000000000000000000000000000000000815260040160405180910390fd5b6115458585856001611eef565b611551600084876112d6565b6001600560008773ffffffffffffffffffffffffffffffffffffffff1673ffffffffffffffffffffffffffffffffffffffff16815260200190815260200160002060000160008282829054906101000a900467ffffffffffffffff160392506101000a81548167ffffffffffffffff021916908367ffffffffffffffff1602179055506001600560008673ffffffffffffffffffffffffffffffffffffffff1673ffffffffffffffffffffffffffffffffffffffff16815260200190815260200160002060000160008282829054906101000a900467ffffffffffffffff160192506101000a81548167ffffffffffffffff021916908367ffffffffffffffff1602179055506000600460008581526020019081526020016000209050848160000160006101000a81548173ffffffffffffffffffffffffffffffffffffffff021916908373ffffffffffffffffffffffffffffffffffffffff160217905550428160000160146101000a81548167ffffffffffffffff021916908367ffffffffffffffff16021790555060006001850190506000600460008381526020019081526020016000209050600073ffffffffffffffffffffffffffffffffffffffff168160000160009054906101000a900473ffffffffffffffffffffffffffffffffffffffff1673ffffffffffffffffffffffffffffffffffffffff1614156117d15760005482146117d057878160000160006101000a81548173ffffffffffffffffffffffffffffffffffffffff021916908373ffffffffffffffffffffffffffffffffffffffff16021790555084602001518160000160146101000a81548167ffffffffffffffff021916908367ffffffffffffffff1602179055505b5b505050828473ffffffffffffffffffffffffffffffffffffffff168673ffffffffffffffffffffffffffffffffffffffff167fddf252ad1be2c89b69c2b068fc378daa952ba7f163c4a11628f55a4df523b3ef60405160405180910390a461183c8585856001611ef5565b5050505050565b61184b612598565b600082905080611859611388565b11158015611868575060005481105b15611a9b576000600460008381526020019081526020016000206040518060600160405290816000820160009054906101000a900473ffffffffffffffffffffffffffffffffffffffff1673ffffffffffffffffffffffffffffffffffffffff1673ffffffffffffffffffffffffffffffffffffffff1681526020016000820160149054906101000a900467ffffffffffffffff1667ffffffffffffffff1667ffffffffffffffff16815260200160008201601c9054906101000a900460ff16151515158152505090508060400151611a9957600073ffffffffffffffffffffffffffffffffffffffff16816000015173ffffffffffffffffffffffffffffffffffffffff161461197d578092505050611acd565b5b600115611a9857818060019003925050600460008381526020019081526020016000206040518060600160405290816000820160009054906101000a900473ffffffffffffffffffffffffffffffffffffffff1673ffffffffffffffffffffffffffffffffffffffff1673ffffffffffffffffffffffffffffffffffffffff1681526020016000820160149054906101000a900467ffffffffffffffff1667ffffffffffffffff1667ffffffffffffffff16815260200160008201601c9054906101000a900460ff1615151515815250509050600073ffffffffffffffffffffffffffffffffffffffff16816000015173ffffffffffffffffffffffffffffffffffffffff1614611a93578092505050611acd565b61197e565b5b505b6040517fdf2d9b4200000000000000000000000000000000000000000000000000000000815260040160405180910390fd5b919050565b6000600860009054906101000a900473ffffffffffffffffffffffffffffffffffffffff16905081600860006101000a81548173ffffffffffffffffffffffffffffffffffffffff021916908373ffffffffffffffffffffffffffffffffffffffff1602179055508173ffffffffffffffffffffffffffffffffffffffff168173ffffffffffffffffffffffffffffffffffffffff167f8be0079c531659141344cd1fd0a4f28419497f9722a3daafe3b4186f6b6457e060405160405180910390a35050565b611bb2828260405180602001604052806000815250611efb565b5050565b6000808273ffffffffffffffffffffffffffffffffffffffff163b119050919050565b60008373ffffffffffffffffffffffffffffffffffffffff1663150b7a02611bff6112ce565b8786866040518563ffffffff1660e01b8152600401611c219493929190612b7b565b602060405180830381600087803b158015611c3b57600080fd5b505af1925050508015611c6c57506040513d601f19601f82011682018060405250810190611c69919061292a565b60015b611ce6573d8060008114611c9c576040519150601f19603f3d011682016040523d82523d6000602084013e611ca1565b606091505b50600081511415611cde576040517fd1a57ed600000000000000000000000000000000000000000000000000000000815260040160405180910390fd5b805181602001fd5b63150b7a0260e01b7bffffffffffffffffffffffffffffffffffffffffffffffffffffffff1916817bffffffffffffffffffffffffffffffffffffffffffffffffffffffff191614915050949350505050565b606060098054611d4890612eef565b80601f0160208091040260200160405190810160405280929190818152602001828054611d7490612eef565b8015611dc15780601f10611d9657610100808354040283529160200191611dc1565b820191906000526020600020905b815481529060010190602001808311611da457829003601f168201915b5050505050905090565b606060006001611dda84611f0d565b01905060008167ffffffffffffffff811115611e1f577f4e487b7100000000000000000000000000000000000000000000000000000000600052604160045260246000fd5b6040519080825280601f01601f191660200182016040528015611e515781602001600182028036833780820191505090505b509050600082602001820190505b600115611ee4578080600190039150507f3031323334353637383961626364656600000000000000000000000000000000600a86061a8153600a8581611ece577f4e487b7100000000000000000000000000000000000000000000000000000000600052601260045260246000fd5b0494506000851415611edf57611ee4565b611e5f565b819350505050919050565b50505050565b50505050565b611f088383836001612144565b505050565b600080600090507a184f03e93ff9f4daa797ed6e38ed64bf6a1f0100000000000000008310611f91577a184f03e93ff9f4daa797ed6e38ed64bf6a1f0100000000000000008381611f87577f4e487b7100000000000000000000000000000000000000000000000000000000600052601260045260246000fd5b0492506040810190505b6d04ee2d6d415b85acef81000000008310611ff4576d04ee2d6d415b85acef81000000008381611fea577f4e487b7100000000000000000000000000000000000000000000000000000000600052601260045260246000fd5b0492506020810190505b662386f26fc10000831061204957662386f26fc10000838161203f577f4e487b7100000000000000000000000000000000000000000000000000000000600052601260045260246000fd5b0492506010810190505b6305f5e1008310612098576305f5e100838161208e577f4e487b7100000000000000000000000000000000000000000000000000000000600052601260045260246000fd5b0492506008810190505b61271083106120e35761271083816120d9577f4e487b7100000000000000000000000000000000000000000000000000000000600052601260045260246000fd5b0492506004810190505b6064831061212c5760648381612122577f4e487b7100000000000000000000000000000000000000000000000000000000600052601260045260246000fd5b0492506002810190505b600a831061213b576001810190505b80915050919050565b600080549050600073ffffffffffffffffffffffffffffffffffffffff168573ffffffffffffffffffffffffffffffffffffffff1614156121b1576040517f2e07630000000000000000000000000000000000000000000000000000000000815260040160405180910390fd5b60008414156121ec576040517fb562e8dd00000000000000000000000000000000000000000000000000000000815260040160405180910390fd5b6121f96000868387611eef565b83600560008773ffffffffffffffffffffffffffffffffffffffff1673ffffffffffffffffffffffffffffffffffffffff16815260200190815260200160002060000160008282829054906101000a900467ffffffffffffffff160192506101000a81548167ffffffffffffffff021916908367ffffffffffffffff16021790555083600560008773ffffffffffffffffffffffffffffffffffffffff1673ffffffffffffffffffffffffffffffffffffffff16815260200190815260200160002060000160088282829054906101000a900467ffffffffffffffff160192506101000a81548167ffffffffffffffff021916908367ffffffffffffffff160217905550846004600083815260200190815260200160002060000160006101000a81548173ffffffffffffffffffffffffffffffffffffffff021916908373ffffffffffffffffffffffffffffffffffffffff160217905550426004600083815260200190815260200160002060000160146101000a81548167ffffffffffffffff021916908367ffffffffffffffff1602179055506000819050600085820190508380156123c357506123c28773ffffffffffffffffffffffffffffffffffffffff16611bb6565b5b15612489575b818773ffffffffffffffffffffffffffffffffffffffff16600073ffffffffffffffffffffffffffffffffffffffff167fddf252ad1be2c89b69c2b068fc378daa952ba7f163c4a11628f55a4df523b3ef60405160405180910390a46124386000888480600101955088611bd9565b61246e576040517fd1a57ed600000000000000000000000000000000000000000000000000000000815260040160405180910390fd5b808214156123c957826000541461248457600080fd5b6124f5565b5b818060010192508773ffffffffffffffffffffffffffffffffffffffff16600073ffffffffffffffffffffffffffffffffffffffff167fddf252ad1be2c89b69c2b068fc378daa952ba7f163c4a11628f55a4df523b3ef60405160405180910390a48082141561248a575b81600081905550505061250b6000868387611ef5565b5050505050565b82805461251e90612eef565b90600052602060002090601f0160209004810192826125405760008555612587565b82601f1061255957805160ff1916838001178555612587565b82800160010185558215612587579182015b8281111561258657825182559160200191906001019061256b565b5b50905061259491906125db565b5090565b6040518060600160405280600073ffffffffffffffffffffffffffffffffffffffff168152602001600067ffffffffffffffff1681526020016000151581525090565b5b808211156125f45760008160009055506001016125dc565b5090565b600061260b61260684612ce4565b612cbf565b90508281526020810184848401111561262357600080fd5b61262e848285612ead565b509392505050565b600061264961264484612d15565b612cbf565b90508281526020810184848401111561266157600080fd5b61266c848285612ead565b509392505050565b60008135905061268381613109565b92915050565b60008135905061269881613120565b92915050565b6000813590506126ad81613137565b92915050565b6000815190506126c281613137565b92915050565b600082601f8301126126d957600080fd5b81356126e98482602086016125f8565b91505092915050565b600082601f83011261270357600080fd5b8135612713848260208601612636565b91505092915050565b60008135905061272b8161314e565b92915050565b60006020828403121561274357600080fd5b600061275184828501612674565b91505092915050565b6000806040838503121561276d57600080fd5b600061277b85828601612674565b925050602061278c85828601612674565b9150509250929050565b6000806000606084860312156127ab57600080fd5b60006127b986828701612674565b93505060206127ca86828701612674565b92505060406127db8682870161271c565b9150509250925092565b600080600080608085870312156127fb57600080fd5b600061280987828801612674565b945050602061281a87828801612674565b935050604061282b8782880161271c565b925050606085013567ffffffffffffffff81111561284857600080fd5b612854878288016126c8565b91505092959194509250565b6000806040838503121561287357600080fd5b600061288185828601612674565b925050602061289285828601612689565b9150509250929050565b600080604083850312156128af57600080fd5b60006128bd85828601612674565b92505060206128ce8582860161271c565b9150509250929050565b6000602082840312156128ea57600080fd5b60006128f884828501612689565b91505092915050565b60006020828403121561291357600080fd5b60006129218482850161269e565b91505092915050565b60006020828403121561293c57600080fd5b600061294a848285016126b3565b91505092915050565b60006020828403121561296557600080fd5b600082013567ffffffffffffffff81111561297f57600080fd5b61298b848285016126f2565b91505092915050565b6000602082840312156129a657600080fd5b60006129b48482850161271c565b91505092915050565b6129c681612e39565b82525050565b6129d581612e4b565b82525050565b60006129e682612d46565b6129f08185612d5c565b9350612a00818560208601612ebc565b612a0981612fdf565b840191505092915050565b6000612a1f82612d51565b612a298185612d6d565b9350612a39818560208601612ebc565b612a4281612fdf565b840191505092915050565b6000612a5882612d51565b612a628185612d7e565b9350612a72818560208601612ebc565b80840191505092915050565b6000612a8b602683612d6d565b9150612a9682612ff0565b604082019050919050565b6000612aae602083612d6d565b9150612ab98261303f565b602082019050919050565b6000612ad1601983612d6d565b9150612adc82613068565b602082019050919050565b6000612af4602083612d6d565b9150612aff82613091565b602082019050919050565b6000612b17602283612d6d565b9150612b22826130ba565b604082019050919050565b612b3681612ea3565b82525050565b6000612b488285612a4d565b9150612b548284612a4d565b91508190509392505050565b6000602082019050612b7560008301846129bd565b92915050565b6000608082019050612b9060008301876129bd565b612b9d60208301866129bd565b612baa6040830185612b2d565b8181036060830152612bbc81846129db565b905095945050505050565b6000602082019050612bdc60008301846129cc565b92915050565b60006020820190508181036000830152612bfc8184612a14565b905092915050565b60006020820190508181036000830152612c1d81612a7e565b9050919050565b60006020820190508181036000830152612c3d81612aa1565b9050919050565b60006020820190508181036000830152612c5d81612ac4565b9050919050565b60006020820190508181036000830152612c7d81612ae7565b9050919050565b60006020820190508181036000830152612c9d81612b0a565b9050919050565b6000602082019050612cb96000830184612b2d565b92915050565b6000612cc9612cda565b9050612cd58282612f21565b919050565b6000604051905090565b600067ffffffffffffffff821115612cff57612cfe612fb0565b5b612d0882612fdf565b9050602081019050919050565b600067ffffffffffffffff821115612d3057612d2f612fb0565b5b612d3982612fdf565b9050602081019050919050565b600081519050919050565b600081519050919050565b600082825260208201905092915050565b600082825260208201905092915050565b600081905092915050565b6000612d9482612ea3565b9150612d9f83612ea3565b9250827fffffffffffffffffffffffffffffffffffffffffffffffffffffffffffffffff03821115612dd457612dd3612f52565b5b828201905092915050565b6000612dea82612ea3565b9150612df583612ea3565b9250817fffffffffffffffffffffffffffffffffffffffffffffffffffffffffffffffff0483118215151615612e2e57612e2d612f52565b5b828202905092915050565b6000612e4482612e83565b9050919050565b60008115159050919050565b60007fffffffff0000000000000000000000000000000000000000000000000000000082169050919050565b600073ffffffffffffffffffffffffffffffffffffffff82169050919050565b6000819050919050565b82818337600083830152505050565b60005b83811015612eda578082015181840152602081019050612ebf565b83811115612ee9576000848401525b50505050565b60006002820490506001821680612f0757607f821691505b60208210811415612f1b57612f1a612f81565b5b50919050565b612f2a82612fdf565b810181811067ffffffffffffffff82111715612f4957612f48612fb0565b5b80604052505050565b7f4e487b7100000000000000000000000000000000000000000000000000000000600052601160045260246000fd5b7f4e487b7100000000000000000000000000000000000000000000000000000000600052602260045260246000fd5b7f4e487b7100000000000000000000000000000000000000000000000000000000600052604160045260246000fd5b6000601f19601f8301169050919050565b7f4f776e61626c653a206e6577206f776e657220697320746865207a65726f206160008201527f6464726573730000000000000000000000000000000000000000000000000000602082015250565b7f507572636861736520776f756c6420657863656564206d617820746f6b656e73600082015250565b7f56616c75652073656e74206973206e6f7420636f727265637400000000000000600082015250565b7f4f776e61626c653a2063616c6c6572206973206e6f7420746865206f776e6572600082015250565b7f53616c65206d7573742062652061637469766520746f206d696e7420746f6b6560008201527f6e73000000000000000000000000000000000000000000000000000000000000602082015250565b61311281612e39565b811461311d57600080fd5b50565b61312981612e4b565b811461313457600080fd5b50565b61314081612e57565b811461314b57600080fd5b50565b61315781612ea3565b811461316257600080fd5b5056fea2646970667358221220c52bab98a058d745be08bea951ca46c136bc9060943675fcabf42413cce0df9f64736f6c63430008040033",
  "linkReferences": {},
  "deployedLinkReferences": {}
}